:100000000C9457010C9488010C9488010C9488017D
:100010000C9488010C9488010C9488010C9488013C
:100020000C9488010C9488010C9488010C9488012C
:100030000C9488010C9488010C9488010C9488011C
:100040000C9488010C9488010C9488010C9488010C
:100050000C9488010C9488010C9488010C94F00590
:100060000C9488010C9464060C943A060C94880154
:100070000C9488010C9488010C9488010C948801DC
:100080000C9488010C9488010C9488010C948801CC
:100090000C9488010C9488010C9488010C948801BC
:1000A0000C9488010C9488010C9488010C948801AC
:1000B0000C9488010C9488010C9488010C9488019C
:1000C0000C9488010C9488010C9488010C9488018C
:1000D0000C9488010C9488010C9488010C9488017C
:1000E0000C9488010C94E3010C94E9010C943C0CF1
:1000F0000C94480C0C94FA0B0C94E8010C94950C9D
:100100000C94D5010C94C1030C94D1010C94B6014C
:100110000C94EE030C94DB010C94C3010C94BA0113
:100120000C94710C0C94120C0C94C7010C94B20139
:100130000C94ED010C94BD010C94300C0C94890CC2
:100140000C949A060C941F040C94A8010C947D0C3A
:100150000C94CD010C94A4040C94650C0C94DA0B53
:100160000C94E80B0C94240C0C94DF010C941104F7
:100170000C94EE0B0C94060C0C94AE010C94590CE0
:100180000C941B0C0C94FD030C94570400002000ED
:100190002300260029002C002F003200000100005F
:1001A00003010601090100002100240027002A00A4
:1001B0002D003000330001010000040107010A0195
:1001C00000002200250028002B002E003100340002
:1001D00002010000050108010B01050505050705E1
:1001E00008080808020202020A0A080804040404B3
:1001F00001010101010101010303030303030303DF
:10020000040707070C0C0C0C0C0C0C0C020202026D
:1002100006060606060606060B0B0B0B0B0B0B0B56
:100220000102102020080810204010204080020108
:1002300002010804020101020408102040808040ED
:1002400020100804020180040201804020100804EC
:10025000020108040201010204081020408001028A
:1002600004081020408000000A0B02090C0D0E0843
:10027000070304010000000000000000000000006F
:10028000000000000000000000000000000000006E
:10029000000012111000000000000000000000002B
:1002A0000000000000000000000000009A06112479
:1002B0001FBECFEFD1E2DEBFCDBF00E00CBF24E018
:1002C000ACE0B3E001C01D92AC32B207E1F713E03D
:1002D000A0E0B2E0ECE9F9E100E00BBF02C007905A
:1002E0000D92AC30B107D9F711E0C7E5D1E000E0DD
:1002F00006C021970109802FFE010E94B00CC6356F
:10030000D10780E00807A9F70E9450070C94CC0C95
:100310000C9400008150823108F05AC0E82FF0E0C0
:100320008827EA56FE4F8F4F0C94B00CB601BA01E5
:10033000A801AE01B201E801BD01C301C701CD01B1
:10034000D101D501DB01DF01E801E301E901ED01A4
:10035000809180008F778093800008958091800045
:100360008F7DF9CF80918000877FF5CF84B58F771F
:1003700084BD089584B58F7DFBCF8091B0008F77C9
:100380008093B00008958091B0008F7DF9CF809167
:1003900090008F77809390000895809190008F7DDA
:1003A000F9CF80919000877FF5CF8091A0008F7763
:1003B0008093A00008958091A0008F7DF9CF809157
:1003C000A000877FF5CF809120018F778093200157
:1003D0000895809120018F7DF9CF80912001877F42
:1003E000F5CF1F93CF93DF93282F30E0F901EA591F
:1003F000FD4F8491F901E05EFD4FD491F901E65281
:10040000FE4FC491CC23A9F0162F81110E948A01BE
:10041000EC2FF0E0EE0FFF1FE054FE4FA591B491DA
:100420008FB7F894EC91111108C0D095DE23DC93BE
:100430008FBFDF91CF911F910895DE2BF8CFEF9200
:10044000FF920F931F93CF93CBE201E010E0E82ED1
:10045000880FFF08C7018023912361E0892B09F4ED
:1004600060E08C2F0E94F101000F111FCF5FC3339A
:1004700089F760E083E30E94F10160E084E30E9479
:10048000F10161E085E30E94F1018BE99FE00197B2
:10049000F1F760E085E30E94F10181E0CF911F91C7
:1004A0000F91FF90EF900895EF92FF920F931F939B
:1004B000CF93CBE201E010E0E82E880FFF08C701E0
:1004C0008023912361E0892B09F460E08C2F0E9446
:1004D000F101000F111FCF5FC33389F761E083E3A0
:1004E0000E94F10160E084E30E94F10161E085E394
:1004F0000E94F1018BE99FE00197F1F760E085E34D
:100500000E94F10181E0CF911F910F91FF90EF9038
:100510000895EF92FF920F931F93CF93DF93EC0117
:1005200080E80E941F027E018FE0E80EF11C8E0120
:10053000F80181918F010E945402E016F106C1F783
:1005400080EC0E941F028E01005F1F4F6F96F80122
:1005500081918F010E945402C017D107C1F781E039
:10056000DF91CF911F910F91FF90EF9008950F931E
:100570001F93CF93DF938C01862F8295880F880F6E
:10058000807C80580E941F02E801015F1F4F899103
:100590000E945402C017D107D1F781E0DF91CF91BB
:1005A0001F910F910895CF93DF9390E0FC01E05EDF
:1005B000FD4F249186529E4FFC0184918823D1F0F7
:1005C00090E0880F991FFC01EA55FE4FA591B49168
:1005D000FC01E054FE4FC591D49161110EC09FB74C
:1005E000F8948C91E22FE0958E238C932881E2235E
:1005F000E8839FBFDF91CF9108958FB7F894EC9176
:10060000E22BEC938FBFF6CF0F931F93CF93C6E1EE
:1006100001E010E080911004909111048023912357
:10062000892B69F060E08C2F0E94D302000F111F0C
:10063000CF5FC03279F7CF911F910F91089561E09C
:100640008C2F0E94D30260E08C2F0E94F101EECF2C
:10065000863308F0865320917B00982F9870277F6F
:10066000922B90937B008770806480937C008091B4
:100670007A00806480937A0080917A0086FDFCCFB6
:10068000809178009091790008953FB7F894809117
:100690003B0390913C03A0913D03B0913E0326B5EE
:1006A000A89B05C02F3F19F00196A11DB11D3FBFAA
:1006B000BA2FA92F982F8827BC01CD01620F711D79
:1006C000811D911D42E0660F771F881F991F4A9573
:1006D000D1F708952FB7F8946091370370913803DC
:1006E0008091390390913A032FBF08950F931F9380
:1006F00080911E0490911F048230910591F1909396
:100700002104809320040E946A0300912204109126
:1007100023042091240430912504601B710B820B6B
:10072000930B6530710581059105B8F00E946A034D
:1007300060932204709323048093240490932504EF
:10074000809126040E942803843692406CF085E054
:1007500090E090931F0480931E0480911E0490915A
:100760001F041F910F910895809126040E94280371
:100770008D3991401CF487E090E0EBCF83E090E06E
:10078000E8CFAF92BF92CF92DF92EF92FF920F939A
:100790001F93CF93DF936C017B018B01040F151F17
:1007A000EB015E01AE18BF08C017D10759F069917F
:1007B000D601ED91FC910190F081E02DC6011995D3
:1007C000892B79F7C501DF91CF911F910F91FF9090
:1007D000EF90DF90CF90BF90AF900895FC01538DC4
:1007E000448D252F30E0842F90E0821B930B54170B
:1007F00010F0CF96089501970895FC01918D828D98
:10080000981761F0A28DAE0FBF2FB11D5D968C9130
:10081000928D9F5F9F73928F90E008958FEF9FEF6F
:100820000895FC01918D828D981731F0828DE80F2B
:10083000F11D858D90E008958FEF9FEF0895FC01E5
:10084000918D228D892F90E0805C9F4F821B9109B2
:100850008F73992708958FE393E00E941F0421E08E
:10086000892B09F420E0822F0895FC01A48DA80FA4
:10087000B92FB11DA35ABF4F2C91848D90E00196E2
:100880008F739927848FA689B7892C93A089B18902
:100890008C91837080648C93938D848D981306C0A3
:1008A0000288F389E02D80818F7D80830895EF9207
:1008B000FF920F931F93CF93DF93EC0181E0888F1A
:1008C0009B8D8C8D98131AC0E889F989808185FFEA
:1008D00015C09FB7F894EE89FF896083E889F9898C
:1008E00080818370806480839FBF81E090E0DF918E
:1008F000CF911F910F91FF90EF900895F62E0B8DE1
:1009000010E00F5F1F4F0F731127E02E8C8D8E119B
:100910000CC00FB607FCFACFE889F989808185FF02
:10092000F5CFCE010E943504F1CFEB8DEC0FFD2FFA
:10093000F11DE35AFF4FF0829FB7F8940B8FEA89BD
:10094000FB8980818062CFCFCF93DF93EC01888DCC
:100950008823B9F0AA89BB89E889F9898C9185FD3A
:1009600003C0808186FD0DC00FB607FCF7CF8C91C8
:1009700085FFF2CF808185FFEDCFCE010E94350447
:10098000E9CFDF91CF91089581E080930F0308951F
:100990000E942B04882319F081E080930F0380E0EC
:1009A00090E0892B49F080E090E0892B29F00E94AB
:1009B000000081110E94000080E090E0892B49F046
:1009C00080E090E0892B29F00E94000081110E94B4
:1009D000000080E090E0892B49F080E090E0892BD6
:1009E00029F00E94000081110C94000008958F925C
:1009F0009F92AF92BF92CF92DF92EF92FF920F93AE
:100A00001F93CF936C01C42FC295CC0FCC0FC07C29
:100A1000C60FC05808EE13E0B12CA12C8AE0882E36
:100A2000912CC601F12CE12C8017910734F0801B2A
:100A3000910B2FEFE21AF20AF7CFE09EC001E19E80
:100A4000900DF09E900D1124C81AD90A8C2F0E9487
:100A50001F0280E38E0D0E9454028FEFA81AB80A7D
:100A6000C801B4010E949C0C8B01CF5F24E0A21648
:100A7000B104B9F6CF911F910F91FF90EF90DF90E5
:100A8000CF90BF90AF909F908F9008950F931F933A
:100A9000CF93DF93FC01208131812530310509F4AA
:100AA00039C0EC01338322830E946A030C811D81CB
:100AB0002E813F81601B710B820B930B653071059A
:100AC0008105910528F1288539853327F901EA59EF
:100AD000FD4F8491F901E05EFD4F0491F901E6526A
:100AE000FE4F1491112381F081110E948A01E12FA0
:100AF000F0E0EE0FFF1FE457FE4FA591B491EC918B
:100B00000E2381E090E011F482E090E099838883E5
:100B100028813981C901DF91CF911F910F910895EB
:100B20000F931F93CF93DF93EC01162F072F60E0F5
:100B3000812F0E94D302188709870E946A036C8361
:100B40007D838E839F8384E090E0998388839B8359
:100B50008A83DF91CF911F910F910895CF9384E005
:100B600094E00E9446058130910531F520910D03F6
:100B700030910E0322303105F9F490930E038093E7
:100B80000D038091340390913503892BF9F0809106
:100B9000120490911304029751F0C091140461E083
:100BA0008C2F0E94D30260E08C2F0E94F1011092E2
:100BB00035031092340308C084E094E00E94460597
:100BC00090930E0380930D03CF91089580911203AB
:100BD0009091130301969093350380933403F4CFDF
:100BE0001F920F920FB60F9211242F933F938F9362
:100BF0009F93AF93BF938091370390913803A09157
:100C00003903B0913A033091360323E0230F2D3797
:100C100058F50196A11DB11D20933603809337032B
:100C200090933803A0933903B0933A0380913B0328
:100C300090913C03A0913D03B0913E030196A11D0C
:100C4000B11D80933B0390933C03A0933D03B0936D
:100C50003E03BF91AF919F918F913F912F910F9044
:100C60000FBE0F901F90189526E8230F0296A11D26
:100C7000B11DD2CF1F920F920FB60F9211240BB657
:100C80000F922F933F934F935F936F937F938F9325
:100C90009F93AF93BF93EF93FF938FE393E00E94F3
:100CA0003504FF91EF91BF91AF919F918F917F910B
:100CB0006F915F914F913F912F910F900BBE0F90CD
:100CC0000FBE0F901F9018951F920F920FB60F92A4
:100CD00011240BB60F922F938F939F93EF93FF9353
:100CE000E0914F03F09150038081E0915503F09122
:100CF000560382FD1DC09081809158038F5F8F73D2
:100D000020915903821741F0E0915803F0E0E15C33
:100D1000FC4F958F80935803FF91EF919F918F9196
:100D20002F910F900BBE0F900FBE0F901F90189534
:100D30008081F2CFCF93DF93109242031092410350
:100D400088EE93E0A0E0B0E08093430390934403E7
:100D5000A0934503B09346038DEF92E09093400338
:100D600080933F0385EC90E090934C0380934B037A
:100D700084EC90E090934E0380934D0380EC90E0E0
:100D80009093500380934F0381EC90E09093520333
:100D90008093510382EC90E090935403809353032B
:100DA00086EC90E09093560380935503109258037D
:100DB0001092590310925A0310925B03CBE261E048
:100DC0008C2F0E94D302CF5FC333C9F7C1E0D0E0BC
:100DD000D0932B04C0932A0489E390E090932704D6
:100DE000809326048AE390E090932904809328045A
:100DF00060E089E30E94D30260E08AE30E94D302AC
:100E000086E390E0909319048093180487E390E0C0
:100E100090931B0480931A0488E390E090931D0440
:100E200080931C0460E086E30E94D30260E087E3C5
:100E30000E94D30260E088E30E94D30289E090E040
:100E40009093150480931404D0931304C093120458
:100E5000C6E160E08C2F0E94D302CF5FC032C9F799
:100E600062E270E084E094E00E94900563E270E04A
:100E70008AEF93E00E94900564E270E080EF93E0D7
:100E80000E94900565E270E086EE93E00E94900576
:100E900066E270E08CED93E0DF91CF910C949005C9
:100EA000CF93DF9300D000D01F921F92CDB7DEB753
:100EB000789484B5826084BD84B5816084BD85B535
:100EC000826085BD85B5816085BD80916E00816041
:100ED00080936E00109281008091810082608093E7
:100EE00081008091810081608093810080918000E9
:100EF0008160809380008091B10084608093B10014
:100F00008091B00081608093B000809191008260F8
:100F100080939100809191008160809391008091F5
:100F200090008160809390008091A1008260809306
:100F3000A1008091A10081608093A1008091A00018
:100F400081608093A00080912101826080932101C3
:100F50008091210181608093210180912001816035
:100F60008093200180917A00846080937A00809140
:100F70007A00826080937A0080917A008160809309
:100F80007A0080917A00806880937A001092C10084
:100F9000E0914F03F091500382E08083E0914B0396
:100FA000F0914C031082E0914D03F0914E038FECD1
:100FB000808310925703E0915303F091540386E02D
:100FC0008083E0915103F09152038081806180839E
:100FD000E0915103F0915203808188608083E09119
:100FE0005103F0915203808180688083E091510326
:100FF000F091520380818F7D80832BE22F8361E00B
:101000008F810E94D30260E08F810E94F1013F81B5
:101010003F5F3F83363399F781E090E090932B0454
:1010200080932A0480E30E941F020E9445031B0153
:101030002C01EAE08E2E912CA12CB12C0E944503AC
:101040006219730984099509683E73408105910509
:10105000A8F341E0841A9108A108B10858EE250EC2
:1010600053E0351E411C511C81149104A104B104AC
:1010700029F788E30E941F028CE00E941F0281E092
:101080000E941F0286E00E941F028DE00E941F0244
:1010900080E80E941F025524539459E1852E912C1B
:1010A000A12CB12C63E0E62EF12C74E0272E312C1C
:1010B00080913403909135038230910509F4A0C1E9
:1010C00054F4009709F448C08130910509F450C1E7
:1010D0000E94C804EDCF8430910509F4C6C20CF417
:1010E000EDC185309105A1F72091F7023091F8020A
:1010F0002530310581F09093F8028093F7025092E9
:10110000F6028CE00E941F0280E80E941F0286E522
:1011100092E00E9489020E94AE0580911E04909187
:101120001F04029759F0809126040E9428039E8391
:101130008D83809128040E9428036C0141E050E0D7
:1011400062E070E08D819E810E94F70441E050E0F2
:1011500069E070E0C60151C18091F7029091F802F8
:10116000892B21F01092F8021092F7020E94760368
:10117000079749F4809110039091110383309105F2
:1011800079F0059769F00E9476038530910509F49E
:101190004EC00E947603909311038093100311C0F8
:1011A00047E050E0509311034093100380911203E5
:1011B0009091130384309105A4F1109213031092BF
:1011C00012030E94AE0580911203909113038230A6
:1011D000910509F493C00CF04AC0009709F46AC065
:1011E000019709F075CF80915002909151020197BB
:1011F00029F48091F602882309F46ACF81E090E017
:1012000090935102809350021092F60270E060E0D9
:1012100080E192E00E94B70261E070E080E292E03B
:1012200064C001969093130380931203CACF209158
:101230001003309111032B7F2330310509F0A9CF22
:1012400020911203309113039093110380931003A4
:10125000121613062CF03092130320921203B1CF12
:10126000215031093093130320931203AACF833006
:10127000910509F461C0049709F02ACF80915002CA
:1012800090915102049729F48091F602882309F481
:101290001FCF30925102209250021092F60270E05D
:1012A00060E080E492E00E94B70261E070E080E0DC
:1012B00092E01BC08091500290915102892B29F439
:1012C0008091F602882309F403CF10925102109204
:1012D00050021092F60270E060E080E092E00E941E
:1012E000B70261E070E080E192E00E94B7028DE019
:1012F0000E941F0280E80E941F02EACE80915002E5
:1013000090915102029729F48091F602882309F402
:10131000DFCE82E090E090935102809350021092D1
:10132000F60270E060E080E292E00E94B70261E0C5
:1013300070E080E392E0D9CF809150029091510209
:10134000039729F48091F602882309F4C1CEF09224
:101350005102E09250021092F60270E060E080E3E9
:1013600092E00E94B70261E070E080E492E0BDCFBD
:101370002091F7023091F8022130310581F09093ED
:10138000F8028093F7025092F6028CE00E941F024E
:1013900080E80E941F0286ED92E00E9489020E946E
:1013A000AE058091160490911704029789F0809100
:1013B00018040E9428039A83898380911A040E944A
:1013C00028039C838B8380911C040E9428033C018A
:1013D00050E040E06AE070E089819A810E94F70461
:1013E00041E050E062E070E08B819C810E94F70454
:1013F00041E050E06AE070E0C3010E94F70468CE6B
:101400002091F7023091F8022230310581F090935B
:10141000F8028093F7025092F6028CE00E941F02BD
:1014200080E80E941F0286EB92E00E9489020E94DF
:10143000AE058AEF93E00E944605019759F583E8CF
:101440000E941F0281E30E94540280EF93E00E94F9
:101450004605019721F58BE80E941F0281E30E9457
:10146000540286EE93E00E9446050197E9F483EC6E
:101470000E941F0281E30E9454028CED93E00E94BF
:1014800046050197B1F48BEC0E941F0281E30E9494
:1014900054021ECE83E80E941F0280E3D4CF8BE863
:1014A0000E941F0280E3DBCF83EC0E941F0280E3D7
:1014B000E2CF8BEC0E941F0280E3E9CF8091F7021C
:1014C0009091F802039781F0F092F802E092F7020F
:1014D0005092F6028CE00E941F0280E80E941F02D8
:1014E00086E992E00E94890280911F0381110CC05D
:1014F0000E946A0360931B0370931C0380931D0377
:1015000090931E0350921F030E94AE058AEF93E052
:101510000E9446058130910509F05FC090931A033F
:10152000809319030E946A0300911B0310911C030E
:1015300020911D0330911E03601B710B820B930BD6
:1015400000915202109153022091540230915502A1
:10155000601771078207930708F4BACD0E946A03E7
:1015600060931B0370931C0380931D0390931E03D1
:101570008091190390911A03009709F049C0809255
:10158000520290925302A0925402B09255022091BE
:101590001703309118032436310524F110921603F5
:1015A00040911603442321F12F5F3F4F30931803DE
:1015B00020931703209117033091180338872F8346
:1015C0002AE030E04F81588542175307A4F0880F76
:1015D000991F0196265F3F4FF5CF10921A03109284
:1015E0001903A0CF12161306DCF250921603D8CFBF
:1015F00021503109DBCF90931104809310040E9495
:10160000040350E040E06BE070E08F819885F5CEF8
:10161000019709F05DCD8092520290925302A09200
:101620005402B09255028091140390911503880FD3
:10163000991F91FF18C09093150380931403809114
:1016400014039091150398878F83909311048093CE
:1016500010040E94040350E040E06BE070E08F81D2
:1016600098859370CACE0196E6CF2091F70230910B
:10167000F8022430310581F09093F8028093F7024C
:101680005092F6028CE00E941F0280E80E941F0226
:1016900086E792E00E94890280912C03811108C0A4
:1016A0000E946A0370932B0360932A0350922C03C9
:1016B0000E94AE050E946A0320912A0330912B03F9
:1016C0008901330F220B330BAB01BC01401B510BC3
:1016D000620B730B443151056105710508F4F8CCB8
:1016E0000E946A0370932B0360932A03809128035E
:1016F000909129039C01215031092E3F310528F09A
:101700004091270345254093270340912703442315
:1017100019F1019690932903809328038091120474
:1017200090911304029709F44AC020912803309144
:10173000290338872F83009114041091150461E068
:10174000802F0E94D3024F815885452B51F460E0D1
:10175000802F0E94F10133C0309329032093280386
:10176000DDCF8F8198858F3F910511F461E0F0CF37
:10177000F801FF27EA59FD4FE491E150E23108F00A
:10178000D4C0F0E08827E853F44F8F4F0C94B00C8E
:10179000DA0BE80BEE0BFA0B060C950C120C1B0C7B
:1017A000240C300C3C0C480C590C650C950C710C3D
:1017B0007D0C890C84B5806884BD9F8197BD50E005
:1017C00040E06BE070E0809128039091290315CEF2
:1017D00084B5806284BD2F8128BDF1CF80918000C7
:1017E0008068809380004F81588550938900409392
:1017F0008800E5CF809180008062809380008F8197
:10180000988590938B0080938A00D9CF8091800037
:101810008860809380002F81388530938D002093DD
:101820008C00CDCF8091B00080688093B0003F8164
:101830003093B300C4CF8091B00080628093B00039
:101840004F814093B400BBCF80919000806880931B
:1018500090008F8198859093990080939800AFCFE6
:10186000809190008062809390002F813885309322
:101870009B0020939A00A3CF809190008860809372
:1018800090004F81588550939D0040939C0097CFC6
:101890008091A00080688093A0008091A0008F7B41
:1018A0008093A0008F8198859093A9008093A800D1
:1018B00086CF8091A00080628093A0002F81388520
:1018C0003093AB002093AA007ACF8091A00088606B
:1018D0008093A0004F8158855093AD004093AC0099
:1018E0006ECF809120018068809320018F81988540
:1018F000909329018093280162CF8091200180621A
:10190000809320012F81388530932B0120932A0169
:1019100056CF809120018860809320014F815885A7
:1019200050932D0140932C014ACF8F8198858038A8
:1019300091050CF01BCF0BCF97FB072E16F40094EC
:1019400007D077FD09D00E94B80C07FC05D03EF403
:10195000909581959F4F0895709561957F4F08955B
:10196000EE0FFF1F881F8BBF0790F691E02D199493
:10197000AA1BBB1B51E107C0AA1FBB1FA617B707B5
:1019800010F0A61BB70B881F991F5A95A9F78095D1
:0C1990009095BC01CD010895F894FFCFA4
:10199C0031202D20416363656C2020202020200005
:1019AC0032202D20426F7574746F6E202020200021
:1019BC0033202D20426172677261706865202000AF
:1019CC0034202D204D6F746575722020202020004E
:1019DC0035202D204A6F79737469636B20202000A9
:1019EC00FFFF320000004A6F79737469636B20202B
:1019FC00202020202000583A2020202020593A2056
:101A0C002020202020004D6F74657572202020202E
:101A1C0020202020200020202020202020202020DA
:101A2C00202020202000426172677261706865205E
:101A3C0020202020200020202020202020202020BA
:101A4C0020202020200042323A2020202020423327
:101A5C003A202020200042343A20202020204235F9
:101A6C003A2020202000416363656C202020583AE6
:101A7C00202020202000593A2020202020205A3AD3
:101A8C0020202020200001FFFF000000005704C18F
:0C1A9C0003EE03A4041F04FD031104006A
:00000001FF
