:100000000C9457010C9488010C9488010C9488017D
:100010000C9488010C9488010C9488010C9488013C
:100020000C9488010C9488010C9488010C9488012C
:100030000C9488010C9488010C9488010C9488011C
:100040000C9488010C9488010C9488010C9488010C
:100050000C9488010C9488010C9488010C949006EF
:100060000C9488010C9404070C94DA060C94880113
:100070000C9488010C9488010C9488010C948801DC
:100080000C9488010C9488010C9488010C948801CC
:100090000C9488010C9488010C9488010C948801BC
:1000A0000C9488010C9488010C9488010C948801AC
:1000B0000C9488010C9488010C9488010C9488019C
:1000C0000C9488010C9488010C9488010C9488018C
:1000D0000C9488010C9488010C9488010C9488017C
:1000E0000C9488010C94E9010C94710C0C94FD03A0
:1000F0000C94650C0C944D0C0C94AE010C94D10135
:100100000C94BA010C94DB010C94E8010C94F40CEF
:100110000C9411040C94A70C0C94A8010C94E80CFA
:100120000C9457040C94C7010C94B2010C94C103B5
:100130000C941F040C94D00C0C94DF010C94B80C9C
:100140000C94B6010C94E3010C949B0C0C947A0C67
:100150000C94D5010C94390C0C94A4040C94470C09
:100160000C94EE030C94590C0C94C40C0C94830C5A
:100170000C9458070C94C3010C948F0C0C94CD0173
:100180000C94DC0C0C94ED010C94BD0100002000DB
:100190002300260029002C002F003200000100005F
:1001A00003010601090100002100240027002A00A4
:1001B0002D003000330001010000040107010A0195
:1001C00000002200250028002B002E003100340002
:1001D00002010000050108010B01050505050705E1
:1001E00008080808020202020A0A080804040404B3
:1001F00001010101010101010303030303030303DF
:10020000040707070C0C0C0C0C0C0C0C020202026D
:1002100006060606060606060B0B0B0B0B0B0B0B56
:100220000102102020080810204010204080020108
:1002300002010804020101020408102040808040ED
:1002400020100804020180040201804020100804EC
:10025000020108040201010204081020408001028A
:1002600004081020408000000A0B02090C0D0E0843
:10027000070304010000000000000000000000006F
:10028000000000000000000000000000000000006E
:10029000000012111000000000000000000000002B
:1002A00000000000000000000000000058071124BA
:1002B0001FBECFEFD1E2DEBFCDBF00E00CBF24E018
:1002C000A8E2B3E001C01D92A334B207E1F713E046
:1002D000A0E0B2E0EEE9FAE100E00BBF02C0079057
:1002E0000D92A832B107D9F711E0C7E5D1E000E0DF
:1002F00006C021970109802FFE010E94310DC635ED
:10030000D10780E00807A9F70E940E080C944D0D54
:100310000C9400008150823108F05AC0E82FF0E0C0
:100320008827EA56FE4F8F4F0C94310DB601BA0163
:10033000A801AE01B201E801BD01C301C701CD01B1
:10034000D101D501DB01DF01E801E301E901ED01A4
:10035000809180008F778093800008958091800045
:100360008F7DF9CF80918000877FF5CF84B58F771F
:1003700084BD089584B58F7DFBCF8091B0008F77C9
:100380008093B00008958091B0008F7DF9CF809167
:1003900090008F77809390000895809190008F7DDA
:1003A000F9CF80919000877FF5CF8091A0008F7763
:1003B0008093A00008958091A0008F7DF9CF809157
:1003C000A000877FF5CF809120018F778093200157
:1003D0000895809120018F7DF9CF80912001877F42
:1003E000F5CF1F93CF93DF93282F30E0F901EA591F
:1003F000FD4F8491F901E05EFD4FD491F901E65281
:10040000FE4FC491CC23A9F0162F81110E948A01BE
:10041000EC2FF0E0EE0FFF1FE054FE4FA591B491DA
:100420008FB7F894EC91111108C0D095DE23DC93BE
:100430008FBFDF91CF911F910895DE2BF8CFEF9200
:10044000FF920F931F93CF93CBE201E010E0E82ED1
:10045000880FFF08C7018023912361E0892B09F4ED
:1004600060E08C2F0E94F101000F111FCF5FC3339A
:1004700089F760E083E30E94F10160E084E30E9479
:10048000F10161E085E30E94F1018BE99FE00197B2
:10049000F1F760E085E30E94F10181E0CF911F91C7
:1004A0000F91FF90EF900895EF92FF920F931F939B
:1004B000CF93CBE201E010E0E82E880FFF08C701E0
:1004C0008023912361E0892B09F460E08C2F0E9446
:1004D000F101000F111FCF5FC33389F761E083E3A0
:1004E0000E94F10160E084E30E94F10161E085E394
:1004F0000E94F1018BE99FE00197F1F760E085E34D
:100500000E94F10181E0CF911F910F91FF90EF9038
:100510000895EF92FF920F931F93CF93DF93EC0117
:1005200080E80E941F027E018FE0E80EF11C8E0120
:10053000F80181918F010E945402E016F106C1F783
:1005400080EC0E941F028E01005F1F4F6F96F80122
:1005500081918F010E945402C017D107C1F781E039
:10056000DF91CF911F910F91FF90EF9008950F931E
:100570001F93CF93DF938C01862F8295880F880F6E
:10058000807C80580E941F02E801015F1F4F899103
:100590000E945402C017D107D1F781E0DF91CF91BB
:1005A0001F910F910895CF93DF9390E0FC01E05EDF
:1005B000FD4F249186529E4FFC0184918823D1F0F7
:1005C00090E0880F991FFC01EA55FE4FA591B49168
:1005D000FC01E054FE4FC591D49161110EC09FB74C
:1005E000F8948C91E22FE0958E238C932881E2235E
:1005F000E8839FBFDF91CF9108958FB7F894EC9176
:10060000E22BEC938FBFF6CF0F931F93CF93C6E1EE
:1006100001E010E080912704909128048023912329
:10062000892B69F060E08C2F0E94D302000F111F0C
:10063000CF5FC03279F7CF911F910F91089561E09C
:100640008C2F0E94D30260E08C2F0E94F101EECF2C
:10065000863308F0865320917B00982F9870277F6F
:10066000922B90937B008770806480937C008091B4
:100670007A00806480937A0080917A0086FDFCCFB6
:10068000809178009091790008953FB7F894809117
:10069000520390915303A0915403B091550326B592
:1006A000A89B05C02F3F19F00196A11DB11D3FBFAA
:1006B000BA2FA92F982F8827BC01CD01620F711D79
:1006C000811D911D42E0660F771F881F991F4A9573
:1006D000D1F708952FB7F89460914E0370914F03AE
:1006E00080915003909151032FBF08950F931F9352
:1006F00080913504909136048230910591F1909368
:100700003804809337040E946A03009139041091E1
:100710003A0420913B0430913C04601B710B820B26
:10072000930B6530710581059105B8F00E946A034D
:100730006093390470933A0480933B0490933C0493
:1007400080913D040E942803843692406CF085E03D
:1007500090E0909336048093350480913504909115
:1007600036041F910F91089580913D040E94280343
:100770008D3991401CF487E090E0EBCF83E090E06E
:10078000E8CFAF92BF92CF92DF92EF92FF920F939A
:100790001F93CF93DF936C017B018B01040F151F17
:1007A000EB015E01AE18BF08C017D10759F069917F
:1007B000D601ED91FC910190F081E02DC6011995D3
:1007C000892B79F7C501DF91CF911F910F91FF9090
:1007D000EF90DF90CF90BF90AF900895FC01538DC4
:1007E000448D252F30E0842F90E0821B930B54170B
:1007F00010F0CF96089501970895FC01918D828D98
:10080000981761F0A28DAE0FBF2FB11D5D968C9130
:10081000928D9F5F9F73928F90E008958FEF9FEF6F
:100820000895FC01918D828D981731F0828DE80F2B
:10083000F11D858D90E008958FEF9FEF0895FC01E5
:10084000918D228D892F90E0805C9F4F821B9109B2
:100850008F739927089586E593E00E941F0421E095
:10086000892B09F420E0822F0895FC01A48DA80FA4
:10087000B92FB11DA35ABF4F2C91848D90E00196E2
:100880008F739927848FA689B7892C93A089B18902
:100890008C91837080648C93938D848D981306C0A3
:1008A0000288F389E02D80818F7D80830895EF9207
:1008B000FF920F931F93CF93DF93EC0181E0888F1A
:1008C0009B8D8C8D98131AC0E889F989808185FFEA
:1008D00015C09FB7F894EE89FF896083E889F9898C
:1008E00080818370806480839FBF81E090E0DF918E
:1008F000CF911F910F91FF90EF900895F62E0B8DE1
:1009000010E00F5F1F4F0F731127E02E8C8D8E119B
:100910000CC00FB607FCFACFE889F989808185FF02
:10092000F5CFCE010E943504F1CFEB8DEC0FFD2FFA
:10093000F11DE35AFF4FF0829FB7F8940B8FEA89BD
:10094000FB8980818062CFCFCF93DF93EC01888DCC
:100950008823B9F0AA89BB89E889F9898C9185FD3A
:1009600003C0808186FD0DC00FB607FCF7CF8C91C8
:1009700085FFF2CF808185FFEDCFCE010E94350447
:10098000E9CFDF91CF91089581E080932B03089503
:100990000E942B04882319F081E080932B0380E0D0
:1009A00090E0892B49F080E090E0892B29F00E94AB
:1009B000000081110E94000080E090E0892B49F046
:1009C00080E090E0892B29F00E94000081110E94B4
:1009D000000080E090E0892B49F080E090E0892BD6
:1009E00029F00E94000081110C94000008950F93DB
:1009F0001F93CF93DF93FC01208131812530310596
:100A000009F439C0EC01338322830E946A030C810C
:100A10001D812E813F81601B710B820B930B653012
:100A200071058105910528F1288539853327F9015C
:100A3000EA59FD4F8491F901E05EFD4F0491F901FF
:100A4000E652FE4F1491112381F081110E948A0118
:100A5000E12FF0E0EE0FFF1FE457FE4FA591B49198
:100A6000EC910E2381E090E011F482E090E0998314
:100A7000888328813981C901DF91CF911F910F911E
:100A80000895FC0101900020E9F73197AF01481B60
:100A9000590BBC0186E593E00C94C1038F929F92A1
:100AA000AF92BF92CF92DF92EF92FF920F931F937C
:100AB000CF93DF93CDB7DEB7A1970FB6F894DEBF23
:100AC0000FBECDBF6B017C01F7FE41C06DE286E534
:100AD00093E00E9457048C0122273327A9012C1987
:100AE0003D094E095F0919A2CE0181967C019AE069
:100AF000892E912CA12CB12CCA01B901A501940118
:100B00000E940F0D605DF70162937F012115310591
:100B10004105510589F790E080E0309719F0CF0149
:100B20000E944105800F911FA1960FB6F894DEBF79
:100B30000FBECDBFDF91CF911F910F91FF90EF902E
:100B4000DF90CF90BF90AF909F908F900895AC01B1
:100B50009B0119A28E010F5D1F4F8AE0C82ED12C78
:100B6000E12CF12CCA01B901A70196010E940F0DD9
:100B7000605DF80162938F01211531054105510532
:100B800089F790E080E0309779F2CF010E9441052B
:100B9000CBCF3F924F925F926F927F928F929F92B4
:100BA000AF92BF92CF92DF92EF92FF920F931F937B
:100BB000CF93DF936C01342E3294330C330C80ECE2
:100BC0003822630D90E8392E360EC8EED3E0712C32
:100BD000612C2AE0422E512C760110E000E04E01FB
:100BE0000D2E000CAA08BB08EC16FD063CF1EC1A11
:100BF000FD0A0F5F1F4F8BE093E00E944105C50186
:100C0000B4010E944E058FE093E00E944105B701B8
:100C10000F2C000C880B990B0E944E058BE193E082
:100C20000E944105B801012E000C880B990B0E940F
:100C30004E0585E293E00E944105D6CF0C9FC0018E
:100C40000D9F900D1C9F900D1124C81AD90A832D59
:100C50000E941F0280E3800F0E9454028FEF681AE7
:100C6000780ACE01B2010E94FB0CEB01339484E0C0
:100C70006816710409F0B0CFDF91CF911F910F91E9
:100C8000FF90EF90DF90CF90BF90AF909F908F90AC
:100C90007F906F905F904F903F900895CF938BE13E
:100CA00094E00E94F7048130910531F520912903E9
:100CB00030912A0322303105F9F490932A0380936E
:100CC000290380914B0390914C03892BF9F080917B
:100CD000290490912A04029751F0C0912B0461E0FD
:100CE0008C2F0E94D30260E08C2F0E94F1011092A1
:100CF0004C0310924B0308C08BE194E00E94F70470
:100D000090932A0380932903CF91089580912E0315
:100D100090912F03019690934C0380934B03F4CF53
:100D20001F920F920FB60F9211242F933F938F9320
:100D30009F93AF93BF9380914E0390914F03A091E7
:100D40005003B091510330914D0323E0230F2D3711
:100D500058F50196A11DB11D20934D0380934E03BC
:100D600090934F03A0935003B0935103809152038B
:100D700090915303A0915403B09155030196A11D86
:100D8000B11D8093520390935303A0935403B093E7
:100D90005503BF91AF919F918F913F912F910F90EC
:100DA0000FBE0F901F90189526E8230F0296A11DE5
:100DB000B11DD2CF1F920F920FB60F9211240BB616
:100DC0000F922F933F934F935F936F937F938F93E4
:100DD0009F93AF93BF93EF93FF9386E593E00E94B9
:100DE0003504FF91EF91BF91AF919F918F917F91CA
:100DF0006F915F914F913F912F910F900BBE0F908C
:100E00000FBE0F901F9018951F920F920FB60F9262
:100E100011240BB60F922F938F939F93EF93FF9311
:100E2000E0916603F09167038081E0916C03F0919B
:100E30006D0382FD1DC0908180916F038F5F8F7362
:100E400020917003821741F0E0916F03F0E0EA5ABD
:100E5000FC4F958F80936F03FF91EF919F918F913E
:100E60002F910F900BBE0F900FBE0F901F901895F3
:100E70008081F2CF0F931F93CF93DF93EC01162F56
:100E8000072F60E0812F0E94D302188709870E94F4
:100E90006A036C837D838E839F8384E090E09983D3
:100EA00088839B838A83DF91CF911F910F9108954F
:100EB000CF93DF93109259031092580388EE93E07A
:100EC000A0E0B0E080935A0390935B03A0935C038F
:100ED000B0935D038DEF92E0909357038093560398
:100EE00085EC90E0909363038093620384EC90E040
:100EF000909365038093640380EC90E09093670384
:100F00008093660381EC90E090936903809368037B
:100F100082EC90E090936B0380936A0386EC90E000
:100F200090936D0380936C0310926F031092700383
:100F30001092710310927203CBE261E08C2F0E9439
:100F4000D302CF5FC333C9F7C1E0D0E0D0934204EE
:100F5000C093410489E390E090933E0480933D0464
:100F60008AE390E09093400480933F0460E089E33B
:100F70000E94D30260E08AE30E94D30286E390E0FD
:100F80009093300480932F0487E390E09093320491
:100F90008093310488E390E0909334048093330489
:100FA00060E086E30E94D30260E087E30E94D30200
:100FB00060E088E30E94D30289E090E090932C04E3
:100FC00080932B04D0932A04C0932904C6E160E0E7
:100FD0008C2F0E94D302CF5FC032C9F762E270E06B
:100FE0008BE194E00E943A0763E270E081E194E0D3
:100FF0000E943A0764E270E087E094E00E943A07BA
:1010000065E270E08DEF93E00E943A0766E270E0DF
:1010100083EF93E0DF91CF910C943A07CF93DF9366
:1010200000D000D000D0CDB7DEB7789484B5826010
:1010300084BD84B5816084BD85B5826085BD85B57C
:10104000816085BD80916E00816080936E001092FA
:101050008100809181008260809381008091810075
:101060008160809381008091800081608093800006
:101070008091B10084608093B1008091B000816064
:101080008093B00080919100826080939100809164
:1010900091008160809391008091900081608093A5
:1010A00090008091A10082608093A1008091A100B6
:1010B00081608093A1008091A00081608093A00056
:1010C00080912101826080932101809121018160C2
:1010D0008093210180912001816080932001809183
:1010E0007A00846080937A0080917A008260809395
:1010F0007A0080917A00816080937A0080917A00F2
:10110000806880937A001092C100E0916603F091AC
:10111000670382E08083E0916203F09163031082B1
:10112000E0916403F09165038FEC808310926E036D
:10113000E0916A03F0916B0386E08083E09168039D
:10114000F0916903808180618083E0916803F09170
:101150006903808188608083E0916803F09169036E
:10116000808180688083E0916803F09169038081C9
:101170008F7D80832BE22F8361E08F810E94D302D9
:1011800060E08F810E94F1018F818F5F8F838633B2
:1011900099F781E090E0909342048093410480E3CA
:1011A0000E941F020E9445031B012C016AE0862E4B
:1011B000912CA12CB12C0E9445036219730984095A
:1011C0009509683E734081059105A8F391E0891A5D
:1011D0009108A108B10828EE220E23E0321E411C1E
:1011E000511C81149104A104B10429F788E30E94E1
:1011F0001F028CE00E941F0281E00E941F0286E015
:101200000E941F028DE00E941F0280E80E941F02C0
:101210005524539434EF832E99249394A12CB12C0C
:1012200043E0E42EF12C54E0252E312C80914B0329
:1012300090914C038230910509F4A0C154F40097B9
:1012400009F448C08130910509F450C10E94C804D6
:10125000EDCF8430910509F467C20CF4EDC18530FF
:101260009105A1F72091F7023091F8022530310560
:1012700081F09093F8028093F7025092F6028CE08E
:101280000E941F0280E80E941F0286E592E00E94F1
:1012900089020E944E06809135049091360402978F
:1012A00059F080913D040E9428039E838D83809194
:1012B0003F040E9428036C0141E050E062E070E0CE
:1012C0008D819E810E94C90541E050E069E070E097
:1012D000C60151C18091F7029091F802892B21F04B
:1012E0001092F8021092F7020E947603079749F4D1
:1012F00080912C0390912D038330910579F005970F
:1013000069F00E9476038530910509F44EC00E9471
:10131000760390932D0380932C0311C087E090E017
:1013200090932D0380932C0380912E0390912F0393
:1013300084309105A4F110922F0310922E030E9485
:101340004E0680912E0390912F038230910509F46F
:1013500093C00CF04AC0009709F46AC0019709F0E5
:1013600075CF8091500290915102019729F480919C
:10137000F602882309F46ACF81E090E0909351024D
:10138000809350021092F60270E060E080E192E0FB
:101390000E94B70261E070E080E292E064C00196D2
:1013A00090932F0380932E03CACF20912C0330916A
:1013B0002D032B7F2330310509F0A9CF20912E0377
:1013C00030912F0390932D0380932C031216130654
:1013D0002CF030922F0320922E03B1CF21503109EF
:1013E00030932F0320932E03AACF8330910509F465
:1013F00061C0049709F02ACF809150029091510268
:10140000049729F48091F602882309F41FCF3092C3
:101410005102209250021092F60270E060E080E4E7
:1014200092E00E94B70261E070E080E092E01BC0B1
:101430008091500290915102892B29F48091F602FB
:10144000882309F403CF1092510210925002109297
:10145000F60270E060E080E092E00E94B70261E096
:1014600070E080E192E00E94B7028DE00E941F02CE
:1014700080E80E941F02EACE8091500290915102B2
:10148000029729F48091F602882309F4DFCE82E0E6
:1014900090E090935102809350021092F60270E017
:1014A00060E080E292E00E94B70261E070E080E3D9
:1014B00092E0D9CF8091500290915102039729F484
:1014C0008091F602882309F4C1CEF0925102E09295
:1014D00050021092F60270E060E080E392E00E9419
:1014E000B70261E070E080E492E0BDCF2091F702A6
:1014F0003091F8022130310581F09093F802809309
:10150000F7025092F6028CE00E941F0280E80E94CF
:101510001F0286ED92E00E9489020E944E06809191
:101520002D0490912E04029789F080912F040E943F
:1015300028039A838983809131040E9428039C8325
:101540008B83809133040E9428033C0150E040E0EB
:101550006AE070E089819A810E94C90541E050E00B
:1015600062E070E08B819C810E94C90541E050E0FF
:101570006AE070E0C3010E94C90568CE2091F702BD
:101580003091F8022230310581F09093F802809377
:10159000F7025092F6028CE00E941F0280E80E943F
:1015A0001F0286EB92E00E9489020E944E0681E1B2
:1015B00094E00E94F704019759F583E80E941F0206
:1015C00081E30E94540287E094E00E94F7040197AF
:1015D00021F58BE80E941F0281E30E9454028DEFE7
:1015E00093E00E94F7040197E9F483EC0E941F0244
:1015F00081E30E94540283EF93E00E94F704019775
:10160000B1F48BEC0E941F0281E30E9454021ECEB3
:1016100083E80E941F0280E3D4CF8BE80E941F0260
:1016200080E3DBCF83EC0E941F0280E3E2CF8BECF0
:101630000E941F0280E3E9CF8091F7029091F802A7
:10164000039781F0F092F802E092F7025092F602CE
:101650008CE00E941F0280E80E941F0286E992E04F
:101660000E9489028091360381110CC00E946A0396
:101670006093320370933303809334039093350364
:10168000509236030E944E060E946A030091320374
:10169000109133032091340330913503601B710B9B
:1016A000820B930B0091520210915302209154022D
:1016B00030915502601771078207930708F4C6CD71
:1016C0000E946A0360933203709333038093340360
:1016D000909335038092520290925302A09254024A
:1016E000B09255028091300390913103880F991F79
:1016F00091FF18C0909331038093300380913003A1
:1017000090913103998788879093280480932704C8
:101710000E94040350E040E06BE070E0888599850A
:10172000937029CF0196E6CF2091F7023091F8020D
:101730002430310581F09093F8028093F7025092A3
:10174000F6028CE00E941F0280E80E941F0286E7DA
:1017500092E00E94890280914303811108C00E9497
:101760006A037093420360934103509243030E94C3
:101770004E060E946A032091410330914203890181
:10178000330F220B330BAB01BC01401B510B620B1F
:10179000730B443151056105710508F457CD0E9462
:1017A0006A03709342036093410380913F039091D9
:1017B00040039C01215031092E3F310528F0409112
:1017C0003E03452540933E0340913E03442319F1D7
:1017D00001969093400380933F0380912904909158
:1017E0002A04029709F44AC080913F039091400374
:1017F0009987888700912B0410912C0461E0802F39
:101800000E94D30288859985892B51F460E0802F4E
:101810000E94F10133C03093400320933F03DDCF9A
:10182000888599858F3F910511F461E0F0CFF8012B
:10183000FF27EA59FD4FE491E150E23108F0D4C0AE
:10184000F0E08827E95DF34F8F4F0C94310D390C90
:10185000470C4D0C590C650CF40C710C7A0C830C74
:101860008F0C9B0CA70CB80CC40CF40CD00CDC0C2B
:10187000E80C84B5806884BD988597BD50E040E051
:101880006BE070E080913F039091400374CE84B58B
:10189000806284BD288528BDF1CF8091800080685A
:1018A0008093800088859985909389008093880033
:1018B000E5CF809180008062809380008885998543
:1018C00090938B0080938A00D9CF809180008860AC
:1018D000809380008885998590938D0080938C00FB
:1018E000CDCF8091B00080688093B00098859093B0
:1018F000B300C4CF8091B00080628093B00028858F
:101900002093B400BBCF80919000806880939000BA
:10191000888599859093990080939800AFCF8091A6
:1019200090008062809390008885998590939B00B9
:1019300080939A00A3CF809190008860809390005C
:101940008885998590939D0080939C0097CF809186
:10195000A00080688093A0008091A0008F7B80937E
:10196000A000888599859093A9008093A80086CFD0
:101970008091A00080628093A000888599859093D3
:10198000AB008093AA007ACF8091A00088608093FA
:10199000A000888599859093AD008093AC006ECFB0
:1019A000809120018068809320018885998590939B
:1019B00029018093280162CF809120018062809369
:1019C00020018885998590932B0180932A0156CF19
:1019D000809120018860809320018885998590936B
:1019E0002D0180932C014ACF8885998580389105F7
:1019F0000CF01BCF0BCF97FB072E16F4009407D0EB
:101A000077FD09D00E94390D07FC05D03EF4909572
:101A100081959F4F0895709561957F4F0895A1E23C
:101A20001A2EAA1BBB1BFD010DC0AA1FBB1FEE1F58
:101A3000FF1FA217B307E407F50720F0A21BB30BA3
:101A4000E40BF50B661F771F881F991F1A9469F71F
:101A500060957095809590959B01AC01BD01CF017B
:101A60000895EE0FFF1F881F8BBF0790F691E02DA2
:101A70001994AA1BBB1B51E107C0AA1FBB1FA617C5
:101A8000B70710F0A61BB70B881F991F5A95A9F727
:0E1A900080959095BC01CD010895F894FFCF8C
:101A9E0031202D20416363656C2020202020200002
:101AAE0032202D20426F7574746F6E20202020001E
:101ABE0033202D20426172677261706865202000AC
:101ACE0034202D204D6F746575722020202020004B
:101ADE0035202D204A6F79737469636B20202000A6
:101AEE00FFFF320000004A6F79737469636B202028
:101AFE00202020202000583A2020202020593A2053
:101B0E002020202020004D6F74657572202020202B
:101B1E0020202020200020202020202020202020D7
:101B2E00202020202000426172677261706865205B
:101B3E0020202020200020202020202020202020B7
:101B4E0020202020200042323A2020202020423324
:101B5E003A202020200042343A20202020204235F6
:101B6E003A2020202000416363656C202020583AE3
:101B7E00202020202000593A2020202020205A3AD0
:101B8E0020202020200001FFFF000000005704C18C
:101B9E0003EE03A4041F04FD031104693A20002080
:101BAE002076616C54656D703A20002020636F6D55
:081BBE0070743A20000D0A00CA
:00000001FF
