:100000000C9459010C948A010C948A010C948A0175
:100010000C948A010C948A010C948A010C948A0134
:100020000C948A010C948A010C948A010C948A0124
:100030000C948A010C948A010C948A010C948A0114
:100040000C948A010C948A010C948A010C948A0104
:100050000C948A010C948A010C948A010C94030E6E
:100060000C948A010C94770E0C944D0E0C948A011A
:100070000C948A010C948A010C948A010C948A01D4
:100080000C948A010C948A010C948A010C948A01C4
:100090000C948A010C948A010C948A010C948A01B4
:1000A0000C948A010C948A010C948A010C948A01A4
:1000B0000C948A010C948A010C948A010C948A0194
:1000C0000C948A010C948A010C948A010C948A0184
:1000D0000C948A010C948A010C948A010C948A0174
:1000E0000C948A010C94B4010C9411030C94EF014C
:1000F0000C94CF010C94D5020C94D7010C94DD0123
:100100000C9402030C94EA010C94C5010C94CB0EE0
:100110000C9425030C94B8030C94EB010C94D301BC
:100120000C94AA010C94BF010C94E1010C94C90138
:100130000C94B0010C946B030C9433030C94BC012D
:100140000C94B8010C94E501000020002300260067
:1001500029002C002F0032000001000003010601DD
:100160000901CDCCCC3D0AD7233C17B7D13877CC89
:100170002B329595E6241FB14F0A0000803FCDCC6D
:10018000CC3D6F12833A95BFD6337D1D9026B3CEFA
:10019000010C000020410000C84200401C4620BC69
:1001A000BE4CCA1B0E5AAEC59D740000210024002F
:1001B00027002A002D003000330001010000040157
:1001C00007010A0100002200250028002B002E0054
:1001D0003100340002010000050108010B01050592
:1001E0000505070508080808020202020A0A0808AD
:1001F00004040404010101010101010103030303DB
:1002000003030303040707070C0C0C0C0C0C0C0C69
:100210000202020206060606060606060B0B0B0B7A
:100220000B0B0B0B0102102020080810204010209F
:1002300040800201020108040201010204081020AA
:1002400040808040201008040201800402018040A8
:100250002010080402010804020101020408102011
:100260004080010204081020408000000A0B0209AF
:100270000C0D0E0807030401000000000000000040
:10028000000000000000000000000000000000006E
:10029000000000000000121110000000000000002B
:1002A000000000000000000000000000000000004E
:1002B000CB0E11241FBECFEFD1E2DEBFCDBF00E0D9
:1002C0000CBF12E0A0E0B2E0ECEAFAE200E00BBF03
:1002D00002C007900D92A43CB107D9F727E0A4EC27
:1002E000B2E001C01D92A83CB207E1F711E0C9E5F8
:1002F000D1E000E006C021970109802FFE010E9495
:100300002214C835D10780E00807A9F70E94C80F5A
:100310000C9454150C9400008150823108F05AC09E
:10032000E82FF0E08827E856FE4F8F4F0C942214F8
:10033000B801BC01AA01B001B401EA01BF01C501C5
:10034000C901CF01D301D701DD01E101EA01E501D6
:10035000EB01EF01809180008F77809380000895FA
:10036000809180008F7DF9CF80918000877FF5CFCD
:1003700084B58F7784BD089584B58F7DFBCF809140
:10038000B0008F778093B00008958091B0008F7D8A
:10039000F9CF809190008F7780939000089580919D
:1003A00090008F7DF9CF80919000877FF5CF80916D
:1003B000A0008F778093A00008958091A0008F7D8A
:1003C000F9CF8091A000877FF5CF809120018F77B2
:1003D000809320010895809120018F7DF9CF809135
:1003E0002001877FF5CF1F93CF93DF93282F30E035
:1003F000F901E659FD4F8491F901EC5DFD4FD4916F
:10040000F901E252FE4FC491CC23A9F0162F8111BD
:100410000E948C01EC2FF0E0EE0FFF1FEC53FE4F1B
:10042000A591B4918FB7F894EC91111108C0D095B3
:10043000DE23DC938FBFDF91CF911F910895DE2BD8
:10044000F8CFEF92FF920F931F93CF93CBE201E08F
:1004500010E0E82E880FFF08C7018023912361E098
:10046000892B09F460E08C2F0E94F301000F111F0B
:10047000CF5FC33389F760E083E30E94F30160E05C
:1004800084E30E94F30161E085E30E94F3018BE9BC
:100490009FE00197F1F760E085E30E94F30181E0BE
:1004A000CF911F910F91FF90EF900895CF93DF931D
:1004B00090E0FC01EC5DFD4F249182529E4FFC01C7
:1004C00084918823D1F090E0880F991FFC01E655B4
:1004D000FE4FA591B491FC01EC53FE4FC591D49110
:1004E00061110EC09FB7F8948C91E22FE0958E2396
:1004F0008C932881E223E8839FBFDF91CF910895F9
:100500008FB7F894EC91E22BEC938FBFF6CF863344
:1005100008F0865320917B00982F9870277F922BAC
:1005200090937B008770806480937C0080917A0038
:10053000806480937A0080917A0086FDFCCF809160
:1005400078009091790008953FB7F8948091CB029C
:100550009091CC02A091CD02B091CE0226B5A89B7D
:1005600005C02F3F19F00196A11DB11D3FBFBA2F45
:10057000A92F982F8827BC01CD01620F711D811D05
:10058000911D42E0660F771F881F991F4A95D1F78A
:1005900008952FB7F8946091C7027091C8028091B6
:1005A000C9029091CA022FBF0895AF92BF92CF9215
:1005B000DF92EF92FF920F931F93CF93DF936C0123
:1005C0007B018B01040F151FEB015E01AE18BF0804
:1005D000C017D10759F06991D601ED91FC910190B6
:1005E000F081E02DC6011995892B79F7C501DF91BE
:1005F000CF911F910F91FF90EF90DF90CF90BF9020
:10060000AF900895FC01538D448D252F30E0842F49
:1006100090E0821B930B541710F0CF96089501972A
:100620000895FC01918D828D981761F0A28DAE0F17
:10063000BF2FB11D5D968C91928D9F5F9F73928F9E
:1006400090E008958FEF9FEF0895FC01918D828DCA
:10065000981731F0828DE80FF11D858D90E0089597
:100660008FEF9FEF0895FC01918D228D892F90E0EF
:10067000805C9F4F821B91098F73992708958FEC9F
:1006800092E00E94330321E0892B09F420E0822FBD
:100690000895FC01A48DA80FB92FB11DA35ABF4F17
:1006A0002C91848D90E001968F739927848FA68971
:1006B000B7892C93A089B1898C91837080648C93C5
:1006C000938D848D981306C00288F389E02D808174
:1006D0008F7D80830895EF92FF920F931F93CF93A6
:1006E000DF93EC0181E0888F9B8D8C8D98131AC06D
:1006F000E889F989808185FF15C09FB7F894EE8954
:10070000FF896083E889F9898081837080648083B0
:100710009FBF81E090E0DF91CF911F910F91FF90FB
:10072000EF900895F62E0B8D10E00F5F1F4F0F73A3
:100730001127E02E8C8D8E110CC00FB607FCFACF5E
:10074000E889F989808185FFF5CFCE010E944903B0
:10075000F1CFEB8DEC0FFD2FF11DE35AFF4FF0822F
:100760009FB7F8940B8FEA89FB8980818062CFCF95
:10077000CF93DF93EC01888D8823B9F0AA89BB89D8
:10078000E889F9898C9185FD03C0808186FD0DC0C3
:100790000FB607FCF7CF8C9185FFF2CF808185FFE4
:1007A000EDCFCE010E944903E9CFDF91CF910895AB
:1007B00081E08093770708950E943F03882319F012
:1007C00081E08093770780E090E0892B49F080E01A
:1007D00090E0892B29F00E94000081110E94000006
:1007E00080E090E0892B49F080E090E0892B29F0AF
:1007F0000E94000081110E94000080E090E0892B9F
:1008000049F080E090E0892B29F00E9400008111DE
:100810000C94000008950895CF93DF93EC01888134
:100820009981DC01ED91FC910190F081E02D199509
:100830002A813B81820F931F9B838A83DF91CF9113
:100840000895CF93DF93EC0188819981DC01ED91CC
:10085000FC910280F381E02D19952A813B81820F62
:10086000931F9B838A83DF91CF9108958F929F92EC
:10087000AF92BF92CF92DF92EF92FF920F931F93AE
:10088000CF93DF93CDB7DEB766970FB6F894DEBF90
:100890000FBECDBF6C018E01095E1F4F78018AE04B
:1008A000882E912CA12CB12CCB01BA01A501940169
:1008B0000E94DD13942F852F605DF80162938F01F4
:1008C000A901692F782F411551056105710561F75F
:1008D000A7014E1B5F0BBF01C6010E942104669653
:1008E0000FB6F894DEBF0FBECDBFDF91CF911F9141
:1008F0000F91FF90EF90DF90CF90BF90AF909F90BF
:100900008F90089580339CF08A3324F08F3524F043
:100910008B3724F481E0089581344CF08B35D4F387
:1009200093ED980F81E09230B0F380E008958B3220
:10093000B9F7F0CFCF92DF92EF92FF920F931F9310
:10094000CF93DF93EC018C85811130C009851A8526
:100950000E94C902D80118966D937D938D939C9344
:100960001B97D801ED91FC910284F385E02DC8011D
:10097000199597FF25C00E94C902F801C084D1844F
:10098000E284F3846C197D098E099F09C480D580A7
:10099000E680F7806C157D058E059F0510F38FEFBF
:1009A0009FEF97FD80E08B8781E08C878B85DF91BF
:1009B000CF911F910F91FF90EF90DF90CF9008950E
:1009C0009927EFCF1F93CF93DF93EC01162F0E944F
:1009D0009A04811306C01C8681E0DF91CF911F919C
:1009E000089580E0FACFCF93DF93EC01CE010E940F
:1009F0009A048B303CF489304CF4882349F081E030
:100A0000888710C08D3011F08032C9F71C86EECF78
:100A1000888581110AC081E090E0C15BDF4F998336
:100A2000888380E0DF91CF91089582E090E0F5CF58
:100A30000895FC0124813581A9014F5F5F4F8681B4
:100A400097814817590748F48281938155834483DD
:100A5000FC01E20FF31F608308950190F081E02D07
:100A600081E0808708959F92AF92BF92CF92DF92EC
:100A7000EF92FF920F931F93CF93DF9300D01F92BB
:100A80001F92CDB7DEB78C010E949A04D82ED801F0
:100A90001C961C92F12CE12C60EFC62EC8010E941E
:100AA0009A04F8011486D81609F4BDC0811119C042
:100AB000F801E15BFF4F82E090E09183808380E06A
:100AC0000F900F900F900F900F90DF91CF911F918B
:100AD0000F91FF90EF90DF90CF90BF90AF909F90DD
:100AE00008958C3509F09DC0C8010E949A0488239E
:100AF000F9F2EEE1F2E0853709F087C0D8011C96E3
:100B00001C9254E0952EB12CA12CC8010E949A048D
:100B1000882371F281344CF48053803148F0F8011D
:100B2000E15BFF4F83E090E0C8CF8F7D8753F5CF27
:100B300044E0AA0CBB1C4A95E1F7A82AF8011486E8
:100B40009A949110E2CFC501985D8115944020F4EC
:100B5000750123E0F222A2CFC5019C5D811594406E
:100B6000A8F4B3E0BB22B701762F6627770F770F83
:100B70006A297B2990E080E0019660387105810543
:100B8000910540F4C8010E94190588CFB50190E095
:100B900080E0F3CF1982262F2F7320682A8326E066
:100BA00096958795779567952A95D1F76032710567
:100BB00080F4606C6B835E01E4E0AE0EB11CD50185
:100BC0006E915D01662309F469CFC8010E94190581
:100BD000F6CF262F2F7320682B8386E076956795B6
:100BE0008A95E1F76031710538F4606E6C835E01BF
:100BF000F5E0AF0EB11CE3CF60686C83CD825E017F
:100C000026E0A20EB11CDBCF32969081992309F425
:100C100086CF8913F9CF8181882309F480CFF80129
:100C20001486682FAFCF0190F081E02D8085882356
:100C300031F0F801E15BFF4F84E090E03ECF81E0CE
:100C40003FCF4F925F926F927F928F929F92AF921F
:100C5000BF92CF92DF92EF92FF920F931F93CF93A9
:100C6000DF93EC018B0188818B32C9F18D32C1F5A4
:100C70002196FF24F394888190ED980F9A3018F014
:100C80008E3209F04DC160E070E0CB01FE01219190
:100C9000A0ED8A2E820E39E0381520F16A3949E933
:100CA0007407840749E1940738F5AAE0B0E09B0196
:100CB000AC010E94D213912CB12CA12C240135013E
:100CC00040945094609470944616570668067906CE
:100CD00098F0680D791D8A1D9B1DEF01D7CF2196D5
:100CE000F12CC9CF211108C0FF20F1F1613071054D
:100CF000810550E89507A0F0E12CEAE08E2E912CBA
:100D0000A12CB12C61157105F0E88F079105C0F198
:100D1000A50194010E94DD13CA01B901E394F2CF49
:100D2000F801248120782A6024839B01AC01882764
:100D30009927DC01821B930BA40BB50B8083918355
:100D4000A283B3838F2DDF91CF911F910F91FF90DD
:100D5000EF90DF90CF90BF90AF909F908F907F905B
:100D60006F905F904F900895F8012481207828605B
:100D700024836083718382839383FF24F394E2CF7F
:100D8000FE01299130ED320F3A3010F4E394F8CFA0
:100D90002E32F1F4EF012196FE012196208150EDD3
:100DA000D52ED20E29E02D1598F06C3C3CEC730743
:100DB0003CE08307910580F7AAE0B0E09B01AC011D
:100DC0000E94D2136D0D711D811D911DEA94E4CF17
:100DD00020812F7DD0E0C0E0253409F05DC0218165
:100DE0002D32D9F53296CC24C394DF01D0E0C0E097
:100DF0002E2D0E2C000C330B4AE0B42EFD01DD909D
:100E000040ED4D0D4A3008F042C0BC9EA001BD9E91
:100E1000500D1124CD2DDD0CDD0BE097C40FD51F37
:100E2000AE01420F531F4732510544F3F80184814C
:100E3000CC20D1F040E050E060E070E8F11003C059
:100E400040E050E0BA0180788C60F80184834083F0
:100E5000518362837383FC2C75CF2B3219F031964A
:100E6000C12CC3CF3296FCCF40E050E060E87FEF6A
:100E7000F11004C040E050E060E87FE780788C60CB
:100E8000F8018483408351836283738376CFCC20BF
:100E900019F0D195C195D1092081211141C0CE0D04
:100EA000D11DE7FCDA950E9494121C161D0604F56C
:100EB000E12CC0FF0CC024E0E29EF0011124EE56AC
:100EC000FE4F25913591459154910E94F512D5958B
:100ED000C795E394209769F7F1109058F8012481A1
:100EE00020782C602483608371838283938345CF31
:100EF000D195C195D109E12C209771F3C0FF0CC0A9
:100F000044E0E49EF0011124EE59FE4F2591359105
:100F1000459154910E94F512D595C795E394ECCF75
:100F2000F12C10CFCF92DF92EF92FF92CF93DF930D
:100F300000D01F921F92CDB7DEB7FC0184818F775E
:100F40008630B9F028F4843088F590E080E013C052
:100F50008A30E9F08C30B9F18830B9F7808191811D
:100F6000A281B381811520E89207A105B10568F738
:100F700002C0808190E00F900F900F900F900F9023
:100F8000DF91CF91FF90EF90DF90CF900895808117
:100F90009181A281B381AC01BD0150586F4F7F4F49
:100FA000411551056140710580F6E5CF8081918141
:100FB0001D82BE016F5F7F4F0E942106CE01019608
:100FC0000E949207D8CFC080D180E280F38020E0D9
:100FD00030E040E057ECC701B6010E94461587FD9E
:100FE000B4CF20E03EEF4FEF56E4C701B6010E94B8
:100FF0008F1218160CF4A9CFC701B6010E94101564
:10100000CB01B9CFCF93DF93DC01EB01EC81FD8104
:101010008A819B810896E817F90740F481E0888768
:10102000F0E0E0E0CF01DF91CF9108953897FD83A4
:10103000EC833097B9F31296CD91DC9113972097FA
:1010400091F0CF018C1B9D0B23E0959587952A95F8
:10105000E1F78D831396FC93EE9312971582148219
:1010600017821682DFCF1196FC93EE93F3CFEF92A7
:10107000FF920F931F93CF93DF937C01DC011296B5
:101080002D913C911397ED91FC91AB01420F531FB1
:10109000EF01C60FD71FC217D307A0F488818111B3
:1010A0000BC0E901CF014C175D0751F00991DC013C
:1010B0001D91CD010117B9F381918111FDCFE8CFC9
:1010C000309751F4620F731FCB010196F7019383A0
:1010D0008283DB011C92F901CF01DF91CF911F9137
:1010E0000F91FF90EF900895FC012581222339F0A4
:1010F000F8E02F0290011124820F931F089590E0D1
:1011000080E008950F931F93CF93DF93FC0120811C
:1011100031812430310509F437C0EC013383228357
:101120000E94C9020C811D812E813F81601B710BC1
:10113000820B930B653071058105910518F12885A7
:1011400039853327F901E659FD4F8491F901EC5DAA
:10115000FD4F0491F901E252FE4F14911123D1F099
:1011600081110E948C01E12FF0E0EE0FFF1FE85B80
:10117000FE4FA591B491EC910E2361F081E090E0D7
:101180009983888328813981C901DF91CF911F918B
:101190000F91089519821882F5CFFC01019000206B
:1011A000E9F73197AF01481B590BBC018FEC92E076
:1011B0000C94D502FB0101900020E9F73197AF01B3
:1011C000461B570B0C9421041F93CF93DF93EEE142
:1011D000F2E01281112379F0329621816213F9CF66
:1011E000EC016CE50E940C04612FCE01DF91CF91E0
:1011F0001F910C940C046111F9CF6FE272E0DF9142
:10120000CF911F910C94DA082F923F924F925F92E8
:101210006F927F928F929F92AF92BF92CF92DF9206
:10122000EF92FF920F931F93CF93DF93CDB7DEB76B
:101230006C970FB6F894DEBF0FBECDBF8C011B01BB
:10124000DC0114968C9114978F77863009F492C242
:1012500068F58230A0F11296ED90FC901397CC9037
:101260001196DC90843008F056C2A701B601C10186
:101270000E942104F101828193816C960FB6F8944B
:10128000DEBF0FBECDBFDF91CF911F910F91FF90B9
:10129000EF90DF90CF90BF90AF909F908F907F9016
:1012A0006F905F904F903F902F9008958C3069F130
:1012B00060F4883009F459C28A3009F43FC266E309
:1012C00072E0C1010E94DA08E5C1803209F4ECC184
:1012D0008034A9F76BE5C1010E940C04F80100817C
:1012E00011810115110509F4DAC1B101C8010E948B
:1012F0000409C8010E9474088C01892B09F4CFC12C
:101300006CE2C1010E940C04ECCFF801C080D180D6
:10131000E280F380A7019601C701B6010E948F12F7
:101320008111CDCF20E030E0A901C701B6010E94B4
:101330008F12882379F0A7019601C701B6010E9498
:1013400032149B01AC01C701B6010E948F128823A1
:1013500009F4B5CF20E030E0A901C701B6010E9431
:101360008F1287FF08C06DE2C1010E940C04F7FADA
:10137000F094F7F8F09420E836E948E15BE4C7011F
:10138000B6010E94461587FD81C074E1A72EB12CDD
:1013900000E210E0188E1F8AF501EE56FE4F2591EF
:1013A000359145915491C701B6010E94461587FDBC
:1013B00013C0F501EE59FE4F259135914591549199
:1013C000C701B6010E94F5126B017C012F89388D8F
:1013D000200F311F388F2F8B1595079534E0A31AF6
:1013E000B1088CEFA8168FEFB806B1F655245A94C1
:1013F00020E030E0A901C701B6010E944615181689
:101400000CF04BC02CEA35EC47E257E3C701B601BC
:101410000E948F1218160CF440C0A52DB4E0AB0248
:10142000C0011124B12CA12CFC01E658FE4F3F0154
:101430009C012E563E4F49013FEF531671F1F301C7
:10144000EA0DFB1D2591359145915491C701B601D7
:101450000E948F1287FF13C0F401EA0DFB1D259136
:10146000359145915491C701B6010E94F5126B0167
:101470007C018F89988D801B910B988F8F8B159590
:1014800007955A9494E0A91AB108D6CF00E210E06B
:1014900055E0552E188E1F8AABCFC701B6010E94AA
:1014A00017154B015C012B013C0106E080E492E43E
:1014B000AFE0B0E0898F9A8FAB8FBC8F102F0150B7
:1014C0009AE04916510461047104C8F0698D7A8D5F
:1014D0008B8D9C8D2AE030E040E050E00E94DD13CF
:1014E000298F3A8F4B8F5C8FC301B2012AE030E025
:1014F00040E050E00E94DD1329013A01DFCFC50131
:10150000B4010E9494129B01AC01C701B6010E9474
:1015100031146B017C01698D7A8D8B8D9C8D0E94BD
:1015200094129B01AC01C701B6010E94F5122B0178
:101530003C010E9417156B017C010E9494129B01D3
:10154000AC01C301B2010E9431149B01AC010E94A5
:1015500032140E941715C60ED71EE81EF91E898D7B
:101560009A8DAB8DBC8DC816D906EA06FB06D8F05D
:101570009FEF891A990AA90AB90AAF89B88DAB2BCE
:1015800039F1BAE08B169104A104B10408F1EF8996
:10159000F88D3196F88FEF8BC12CD12C7601812CF0
:1015A000912C540183942AE0422E512C612C712CF1
:1015B000C701B601A30192010E94DD13672B682BBE
:1015C000692B51F4111644F469017A011150F0CFDE
:1015D000C12CD12C7601E7CFB501A401C1010E9435
:1015E0003604112371F14E01F1E18F0E911C012F90
:1015F00054019AE0492E512C612C712C015068F055
:10160000C701B601A30192010E94DD13605DD40100
:101610006E934D0169017A01F1CF812F90E0BC01F9
:1016200060957095F501E81BF90B31978EE2808388
:1016300044275527461B570B6A0D7B1DC1010E948D
:101640002104EF89F88DEF2B29F165E6C1010E9495
:101650000C040F89188D17FF07C06DE2C1010E94AD
:101660000C04119501951109FE0177969F018AE0FE
:10167000E82EF12CC801B7010E940E14805D829300
:101680008B01672BB9F7A9014E1B5F0BBF01C1018D
:101690000E942104D10112968D919C91EECD6DE5B1
:1016A000C1010E940C04F6CF6BE7C1010E940C043B
:1016B000F801008111810115110559F1D801169623
:1016C000CC9016971796DC9062E2C1010E940C0440
:1016D0007601F70161917F01662321F0C1010E942B
:1016E000E408F7CF62E2C1010E940C046AE3C10181
:1016F0000E940C04B101C8010E940409C8010E94A3
:1017000074088C01892B29F06CE2C1010E940C0441
:10171000D2CF6DE7C5CF62E2C1010E940C04860101
:10172000E00EF11EE016F10639F0F80161918F012B
:10173000C1010E94E408F6CF62E2B2CFCD90DD9005
:10174000ED90FC90B701A601F7FE0BC06DE2C10160
:101750000E940C0444275527BA014C195D096E09F3
:101760007F09C1010E94360485CD4D915D916D9137
:101770007C91F7CF8C916BE372E0811102C060E441
:1017800072E0C1010E94DA0875CD0F931F93CF93C9
:10179000DF93D0E0C0E06115710591F08B01FC0191
:1017A000C081D181209761F06E817F81C8010E9444
:1017B0004B15892B29F0CE010E947408EC01F2CF61
:1017C000CE01DF91CF911F910F9108959F92AF921B
:1017D000BF92CF92DF92EF92FF920F931F93CF931E
:1017E000DF93EC018B01E42E0E94F304D82E8111CB
:1017F0000EC0F12C8F2DDF91CF911F910F91FF9093
:10180000EF90DF90CF90BF90AF909F900895CE0162
:101810000E949A04873209F42CC114F5823209F42B
:1018200028C1CE010E949A04E82E5E01FFE0AF0EAF
:10183000B11CF12C9A2CCB2C8E2D0E948204882373
:1018400009F443C18FE3F81609F43FC11C86F394F1
:10185000F501E1925F01CE010E949A04E82EECCFDF
:101860008B3509F44AC08B37E1F6F8018481807822
:10187000806284831182108213821282EE2009F426
:1018800047C01C86CE010E94F304882309F4B1CF1F
:101890006DE7CE010E94E204F82E81114FC0CC24E6
:1018A000C394EA94E881F981828193819B838A833E
:1018B0008481958122813381821B930B9F838E8348
:1018C0001D821C82892B09F4C086CE010E949A04D5
:1018D000873209F460C0823209F45DC0CE010E94F3
:1018E0009A04D82E0E9482048111AEC0C15BDF4FE2
:1018F00083E090E0998388837DCFF80184818078AC
:10190000806484831182108213821282E11007C0E6
:10191000C15BDF4F85E090E0998388836ACF1C86A6
:10192000CE010E94F304882309F463CF6DE5CE0154
:101930000E94E204F82EEA94882311F0FD2C5ACF7D
:101940006D857E85C8010E940208009729F4C15B5D
:10195000DF4F84E090E0CECF4E2DBC01CE010E943F
:10196000E60B882309F445CFCE010E94F3048823B7
:1019700009F43FCF6DE5CE010E94E2048111DECF74
:101980006CE2CE010E94E2048111DACFC15BDF4F2D
:1019900083E090E0C1CFCE010E943305882309F493
:1019A00029CFCE010E94F304882309F423CF6AE3F0
:1019B000CE010E94E204882309F498CFEA81FB81DA
:1019C0008C819D81E80FF91F1082AC80BD806A81F7
:1019D0007B81C8010E94C50BBC01892BA9F4B5010C
:1019E000888199810E9437085C016D857E85C801D8
:1019F0000E940208FC01892B09F4A9CF8481806828
:101A00008483B782A682BF014E2DCE010E94E60BD1
:101A1000882309F4EFCECE010E94F304882309F451
:101A2000E9CE6DE7CE010E94E204811120C06CE294
:101A3000CE010E94E204882309F458CFCE010E940F
:101A4000F30481112FCFD6CE1C866D2DCE010E94BE
:101A50001905CE010E949A04D82E0E948204811199
:101A6000F3CFE881F9818085811171CF9ACFF82E6B
:101A7000C1CEE881F981828193819B838A838481AD
:101A8000958122813381821B930B9F838E831D82DC
:101A90001C82892B11F481E08087CE010E943305DE
:101AA000F82E882309F4A5CECC80DD80B60188818C
:101AB00099810E943708F8012481207825602483C9
:101AC00091838083D382C28295CEFE01EF0DF11DFA
:101AD00017868F85843781F4F80184818078866049
:101AE000848381E08083F4E0FF1609F427CFC15B93
:101AF000DF4F82E090E010CF863641F4F801848118
:101B00008078866084831082F5E0EECF8E3621F4F3
:101B100084E0F812ECCF12CFB801892D9C2D0E94E1
:101B20002106882309F432CF09CFEF92FF920F9359
:101B30001F93CF93DF93EC018C81982F9F7739F41B
:101B4000807880628C83198218821B821A828C8131
:101B500085FF1DC061157105D1F07A018B01CE01A1
:101B60000E94C50B009761F4B701CE010E940208E4
:101B7000009731F0FC0124812F772483178306839B
:101B8000DF91CF911F910F91FF90EF90089590E01A
:101B900080E0F6CFCF92DF92EF92FF926A017B0155
:101BA00042E753E0BC018BE793E00E94950DFC01F6
:101BB000892B41F0948190789C609483C082D1827B
:101BC000E282F382FF90EF90DF90CF900895CF9361
:101BD000DF93EB0142E753E0BC018BE793E00E9407
:101BE000950DFC01892B61F0948190789A60948323
:101BF000CE01DD0FAA0BBB0B80839183A283B3833D
:101C0000DF91CF9108951F920F920FB60F9211247A
:101C10002F933F938F939F93AF93BF938091C7026E
:101C20009091C802A091C902B091CA023091C60237
:101C300023E0230F2D3758F50196A11DB11D2093E8
:101C4000C6028093C7029093C802A093C902B093C2
:101C5000CA028091CB029091CC02A091CD02B091AA
:101C6000CE020196A11DB11D8093CB029093CC02B0
:101C7000A093CD02B093CE02BF91AF919F918F916F
:101C80003F912F910F900FBE0F901F90189526E84F
:101C9000230F0296A11DB11DD2CF1F920F920FB636
:101CA0000F9211240BB60F922F933F934F935F9394
:101CB0006F937F938F939F93AF93BF93EF93FF9314
:101CC0008FEC92E00E944903FF91EF91BF91AF9199
:101CD0009F918F917F916F915F914F913F912F9144
:101CE0000F900BBE0F900FBE0F901F9018951F9274
:101CF0000F920FB60F9211240BB60F922F938F9362
:101D00009F93EF93FF93E091DF02F091E0028081D7
:101D1000E091E502F091E60282FD1DC09081809184
:101D2000E8028F5F8F732091E902821741F0E09102
:101D3000E802F0E0E153FD4F958F8093E802FF91B8
:101D4000EF919F918F912F910F900BBE0F900FBE2F
:101D50000F901F9018958081F2CF0F931F93CF9310
:101D6000DF93EC01162F072F60E0812F0E945602AF
:101D7000188709870E94C9026C837D838E839F83A5
:101D800083E090E0998388839B838A83DF91CF915E
:101D90001F910F910895CF93DF931092D20210926A
:101DA000D10288EE93E0A0E0B0E08093D30290935C
:101DB000D402A093D502B093D60280E192E0909332
:101DC000D0028093CF0285EC90E09093DC02809368
:101DD000DB0284EC90E09093DE028093DD0280ECE5
:101DE00090E09093E0028093DF0281EC90E090938A
:101DF000E2028093E10282EC90E09093E40280930F
:101E0000E30286EC90E09093E6028093E502109264
:101E1000E8021092E9021092EA021092EB02CBE281
:101E200061E08C2F0E945602CF5FC333C9F7C1E037
:101E3000D0E0D093C707C093C60789E390E09093A2
:101E4000C3078093C2078AE390E09093C50780930D
:101E5000C40760E089E30E94560260E08AE30E94C2
:101E6000560286E390E09093B5078093B40787E32A
:101E700090E09093B7078093B60788E390E0909343
:101E8000B9078093B80760E086E30E94560260E0DD
:101E900087E30E94560260E088E30E94560289E0D0
:101EA00090E09093B1078093B007D093AF07C093B1
:101EB000AE07C6E160E08C2F0E945602CF5FC032B1
:101EC000C9F762E270E080EA97E00E94AD0E63E23B
:101ED00070E086E997E00E94AD0E64E270E08CE865
:101EE00097E00E94AD0E65E270E082E897E00E9404
:101EF000AD0E66E270E088E797E00E94AD0E80E8E4
:101F000093E090937303809372039093750380938F
:101F1000740384E795E0909377038093760390931E
:101F200079038093780310927A0310927F0382E8FA
:101F300095E0909375058093740590937705809351
:101F4000760586E797E090937905809378059093DE
:101F50007B0580937A0510927C0510928105109282
:101F600076071092770780E092ECA1E0B0E08093D2
:101F70006C0390936D03A0936E03B0936F0383E0A3
:101F800090E09093710380937003DF91CF91089557
:101F9000CF93DF93CDB7DEB7C356D1090FB6F89410
:101FA000DEBF0FBECDBF789484B5826084BD84B59A
:101FB000816084BD85B5826085BD85B5816085BD44
:101FC00080916E00816080936E00109281008091FC
:101FD0008100826080938100809181008160809384
:101FE0008100809180008160809380008091B100A9
:101FF00084608093B1008091B00081608093B000D4
:102000008091910082608093910080919100816025
:1020100080939100809190008160809390008091E6
:10202000A10082608093A1008091A10081608093D3
:10203000A1008091A00081608093A0008091210187
:102040008260809321018091210181608093210130
:102050008091200181608093200180917A008460CA
:1020600080937A0080917A00826080937A008091D8
:102070007A00816080937A0080917A0080688093F2
:102080007A001092C100E091DF02F091E00282E05C
:102090008083E091DB02F091DC021082E091DD02AE
:1020A000F091DE0280E180831092E702E091E3028A
:1020B000F091E40286E08083E091E102F091E20297
:1020C000808180618083E091E102F091E202808171
:1020D00088608083E091E102F091E2028081806873
:1020E0008083E091E102F091E20280818F7D808324
:1020F0001BE261E0812F0E94560260E0812F0E9466
:10210000F3011F5F1633A9F781E090E09093C707B2
:102110008093C60780E30E9421020E94A4024B0123
:102120005C01EAE04E2E512C612C712C0E94A4021D
:10213000681979098A099B09683E734081059105F0
:10214000A8F321E0421A51086108710888EE880E50
:1021500083E0981EA11CB11C411451046104710458
:1021600029F788E30E9421028CE00E94210281E08D
:102170000E94210286E00E9421028DE00E9421023D
:1021800080E80E9421026FECC62E62E0D62E8824E1
:102190008A9473E0972EA12CB12C80917707882325
:1021A00009F4B1C1809174059091750590937705FC
:1021B0008093760580917A0590917B0590937905BF
:1021C0008093780510927C05109281051092770714
:1021D00084E795E06C969FAF8EAF6C9788E0FE0128
:1021E000E65AFF4FDE01AE5ABF4F01900D928A951D
:1021F000E1F788E0FE01EE5AFF4FDE0111960190F3
:102200000D928A95E1F71986DB86CA861D86E4E77A
:10221000F5E0FF87EE8762961FAE1EAE62974AE03A
:102220006DE775E0CE0101960E94E60B62960EAD59
:102230001FAD62970115110501F58C858823E9F022
:102240008091810583FF19C081E08093760703E0C8
:1022500010E086E492E00E94CD08000F111FF80103
:10226000E050FE4F80819181009711F00E94CD08CF
:102270008DE592E00E94CD0806C081E0809376074C
:102280000115110531F78091810585FF16C060E6C3
:1022900072E08DE795E00E94C50B009771F0FC019C
:1022A00084818F7751F060E672E08DE795E00E94BF
:1022B000C50B009711F00E9492070E94C9022B01E2
:1022C0003C0142E753E064E672E08BE793E00E9452
:1022D000950DFC01892B41F094819078986094834E
:1022E00040825182628273828091BA079091BB07CB
:1022F000029769F08091C2070E9487027C01809159
:10230000C4070E948702A4969FAF8EAFA49728ECC3
:1023100030E0A496AEADBFADA4970E942A14A501EB
:1023200094010E94B313CA01B9016456710981096D
:1023300091090E9496122B013C0128EC30E0D70154
:102340000E942A14A50194010E94B313CA01B90185
:1023500064567109810991090E94961220E030E0CB
:1023600048EC52E40E949E14AB01BC0189E692E065
:102370000E94CA0D20E030E048EC52E4C301B201F3
:102380000E949E14AB01BC018EE692E00E94CA0D31
:1023900020E030E0A901C301B2010E94461587FF89
:1023A00004C077FA709477F87094C301B2010E9468
:1023B000101590E080E02AE030E06217730734F0F7
:1023C000959587959E5F265F3F4FF7CF9093AD071A
:1023D0008093AC0796E1392E01E010E08091AC07C4
:1023E0009091AD0780239123892B09F48FC060E081
:1023F000832D0E945602000F111F3394F0E23F120A
:10240000EDCF80EA97E00E948208BC0183E792E06A
:102410000E94E70D86E997E00E948208BC0186E7EA
:1024200092E00E94E70D8CE897E00E948208BC01D0
:1024300089E792E00E94E70D82E897E00E94820817
:10244000BC018CE792E00E94E70D88E797E00E94CC
:102450008208BC018FE792E00E94E70D8091B207ED
:102460009091B307029729F08091B4070E948702E8
:102470007C0197010F2C000C440B550B295A31405D
:1024800041095109A8E0B7E00E94D21324E73FEFC9
:102490004FEF5FEF0E94B313CA01B9016458734054
:1024A000810991090E94961220E030E040E251E457
:1024B0000E949E14AB01BC0182E892E00E94CA0D0A
:1024C000DA82C9821C821B82BE016F5F7F4F8BE75D
:1024D00093E00E940409809172039091730390939A
:1024E000750380937403809178039091790390939E
:1024F00077038093760310927A0310927F031092F1
:102500007607109277070E94DC0347CE61E0832DA7
:102510000E94560260E0832D0E94F3016CCF0E945E
:10252000D11208F481E00895E89409C097FB3EF4C5
:1025300090958095709561957F4F8F4F9F4F992310
:10254000A9F0F92F96E9BB279395F695879577958E
:102550006795B795F111F8CFFAF4BB0F11F460FF4E
:102560001BC06F5F7F4F8F4F9F4F16C0882311F0A6
:1025700096E911C0772321F09EE8872F762F05C0BA
:10258000662371F096E8862F70E060E02AF09A9555
:10259000660F771F881FDAF7880F9695879597F94A
:1025A0000895990F0008550FAA0BE0E8FEEF1616E4
:1025B0001706E807F907C0F012161306E407F50737
:1025C00098F0621B730B840B950B39F40A2661F0AB
:1025D000232B242B252B21F408950A2609F4A1404E
:1025E000A6958FEF811D811D08950E9408130C94FC
:1025F00079130E946B1338F00E94721320F0952318
:1026000011F00C9462130C94681311240C94AD1304
:102610000E948A1370F3959FC1F3950F50E0551FE8
:10262000629FF001729FBB27F00DB11D639FAA2727
:10263000F00DB11DAA1F649F6627B00DA11D661F76
:10264000829F2227B00DA11D621F739FB00DA11D97
:10265000621F839FA00D611D221F749F3327A00D51
:10266000611D231F849F600D211D822F762F6A2FED
:1026700011249F5750409AF0F1F088234AF0EE0F52
:10268000FF1FBB1F661F771F881F91505040A9F77F
:102690009E3F510580F00C9462130C94AD135F3F84
:1026A000E4F3983ED4F3869577956795B795F795BB
:1026B000E7959F5FC1F7FE2B880F911D9695879533
:1026C00097F9089597F99F6780E870E060E00895B2
:1026D0009FEF80EC089500240A941616170618063A
:1026E0000906089500240A94121613061406050616
:1026F0000895092E0394000C11F4882352F0BB0FA7
:1027000040F4BF2B11F460FF04C06F5F7F4F8F4F09
:102710009F4F089557FD9058440F551F59F05F3F44
:1027200071F04795880F97FB991F61F09F3F79F0F3
:1027300087950895121613061406551FF2CF469575
:10274000F1DF08C0161617061806991FF1CF8695F7
:102750007105610508940895E894BB2766277727DB
:10276000CB0197F90895052E97FB1EF400940E9463
:10277000CA1357FD07D00E94DD1307FC03D04EF4A7
:102780000C94CA1350954095309521953F4F4F4F6B
:102790005F4F089590958095709561957F4F8F4F0D
:1027A0009F4F08950E94FF13A59F900DB49F900D19
:1027B000A49F800D911D11240895A1E21A2EAA1B39
:1027C000BB1BFD010DC0AA1FBB1FEE1FFF1FA217E1
:1027D000B307E407F50720F0A21BB30BE40BF50BDE
:1027E000661F771F881F991F1A9469F76095709567
:1027F000809590959B01AC01BD01CF010895A29FEA
:10280000B001B39FC001A39F700D811D1124911DC4
:10281000B29F700D811D1124911D0895AA1BBB1B31
:1028200051E107C0AA1FBB1FA617B70710F0A61BD0
:10283000B70B881F991F5A95A9F780959095BC01F1
:10284000CD010895EE0FFF1F881F8BBF0790F691F3
:10285000E02D19940E94FF13B7FF0895821B930B7C
:1028600008955058BB27AA270E9449140C94791345
:102870000E946B1338F00E94721320F039F49F3FCE
:1028800019F426F40C9468130EF4E095E7FB0C940D
:102890006213E92F0E948A1358F3BA17620773076D
:1028A0008407950720F079F4A6F50C94AC130EF488
:1028B000E0950B2EBA2FA02D0B01B90190010C0150
:1028C000CA01A0011124FF27591B99F0593F50F468
:1028D000503E68F11A16F040A22F232F342F4427C0
:1028E000585FF3CF469537952795A795F0405395B8
:1028F000C9F77EF41F16BA0B620B730B840BBAF088
:102900009150A1F0FF0FBB1F661F771F881FC2F7F2
:102910000EC0BA0F621F731F841F48F48795779506
:102920006795B795F7959E3F08F0B0CF9395880FC0
:1029300008F09927EE0F9795879508950E94B21495
:102940000C9479130E94721358F00E946B1340F09C
:1029500029F45F3F29F00C94621351110C94AD13CC
:102960000C9468130E948A1368F39923B1F35523DA
:1029700091F3951B550BBB27AA2762177307840792
:1029800038F09F5F5F4F220F331F441FAA1FA9F328
:1029900035D00E2E3AF0E0E832D091505040E69516
:1029A000001CCAF72BD0FE2F29D0660F771F881F77
:1029B000BB1F261737074807AB07B0E809F0BB0B6A
:1029C000802DBF01FF2793585F4F3AF09E3F51057E
:1029D00078F00C9462130C94AD135F3FE4F3983ECF
:1029E000D4F3869577956795B795F7959F5FC9F767
:1029F000880F911D9695879597F90895E1E0660FE8
:102A0000771F881FBB1F621773078407BA0720F060
:102A1000621B730B840BBA0BEE1F88F7E0950895C9
:102A20000E9417156894B1110C94AD1308950E947B
:102A3000921388F09F5798F0B92F9927B751B0F0AB
:102A4000E1F0660F771F881F991F1AF0BA95C9F732
:102A500014C0B13091F00E94AC13B1E008950C9411
:102A6000AC13672F782F8827B85F39F0B93FCCF3C4
:102A7000869577956795B395D9F73EF490958095AF
:102A8000709561957F4F8F4F9F4F08950E94D1128F
:102A900008F48FEF0895FB01DC018D9101908019FE
:0C2AA0000110D9F3990B0895F894FFCFB2
:102AAC0088028B029602A602B302BC020000000050
:102ABC006B03D5020203B8033303110325032F2F35
:102ACC0022225C5C6208660C6E0A720D7409005C52
:102ADC007530303030006E756C6C0074727565003A
:102AEC0066616C736500646573657269616C697AA3
:102AFC00652829206661696C65643A20000D0A001E
:102B0C006C65640074696D65004A6F7958004A6F92
:102B1C0079590042310042320042330042340042C3
:102B2C003500416E676C65004F6B00456D707479B4
:102B3C00496E70757400496E636F6D706C65746569
:102B4C00496E70757400496E76616C6964496E707B
:102B5C007574004E6F4D656D6F727900546F6F44D4
:042B6C00656570002B
:00000001FF
