:100000000C947B010C94AC010C94AC010C94AC01ED
:100010000C94AC010C94AC010C94AC010C94AC01AC
:100020000C94AC010C94AC010C94AC010C94AC019C
:100030000C94AC010C94AC010C94AC010C94AC018C
:100040000C94AC010C94AC010C94AC010C94AC017C
:100050000C94AC010C94AC010C94AC010C94D30B3B
:100060000C94AC010C94470C0C941D0C0C94AC013A
:100070000C94AC010C94AC010C94AC010C94AC014C
:100080000C94AC010C94AC010C94AC010C94AC013C
:100090000C94AC010C94AC010C94AC010C94AC012C
:1000A0000C94AC010C94AC010C94AC010C94AC011C
:1000B0000C94AC010C94AC010C94AC010C94AC010C
:1000C0000C94AC010C94AC010C94AC010C94AC01FC
:1000D0000C94AC010C94AC010C94AC010C94AC01EC
:1000E0000C94AC010C942A040C9462040C94D91363
:1000F0000C94F9010C9436130C94F9030C94C51369
:100100000C94E7010C940C020C94B1130C9456134C
:100110000C9484130C94CC010C94E1010C941C04F9
:100120000C94CF130C947D0C0C94DE010C94F5010F
:100130000C94A7130C946A130C94D6010C94D2015E
:100140000C947A130C94EB010C9472130C940D0222
:100150000C9447130C94FF010C9411020C940702A9
:100160000C94DA010C944C130C948E130C94AF0481
:100170000C9403020C9460130C94F1010C949813EA
:100180000C9408040C94CC030C94BB1300002000C6
:100190002300260029002C002F003200000100005F
:1001A000030106010901CDCCCC3D0AD7233C17B78A
:1001B000D13877CC2B329595E6241FB14F0A000039
:1001C000803FCDCCCC3D6F12833A95BFD6337D1D99
:1001D0009026B3CE010C000020410000C842004030
:1001E0001C4620BCBE4CCA1B0E5AAEC59D740000F6
:1001F0002100240027002A002D00300033000101D7
:100200000000040107010A01000022002500280067
:100210002B002E003100340002010000050108010E
:100220000B0105050505070508080808020202027A
:100230000A0A080804040404010101010101010182
:100240000303030303030303040707070C0C0C0C4D
:100250000C0C0C0C02020202060606060606060636
:100260000B0B0B0B0B0B0B0B0102102020080810C3
:100270002040102040800201020108040201010216
:1002800004081020408080402010080402018004EF
:10029000020180402010080402010804020101024A
:1002A0000408102040800102040810204080000053
:1002B0000A0B02090C0D0E080703040100000000E0
:1002C000000000000000000000000000000000002E
:1002D00000000000000000000000121110000000EB
:1002E000000000000000000000000000000000000E
:1002F000000000007D0C11241FBECFEFD1E2DEBF55
:10030000CDBF00E00CBF13E0A0E0B2E0E8E7FDE203
:1003100000E00BBF02C007900D92AC35B107D9F7D2
:1003200028E0ACE5B3E001C01D92A838B207E1F7C0
:1003300011E0CBE7D1E000E006C021970109802F52
:10034000FE010E948815CA37D10780E00807A9F787
:100350000E947A0D0C94BA160C94000081508231E0
:1003600008F05AC0E82FF0E08827E654FE4F8F4F80
:100370000C948815DA01DE01CC01D201D6010C0201
:10038000E101E701EB01F101F501F901FF010302D0
:100390000C0207020D021102809180008F7780937A
:1003A00080000895809180008F7DF9CF809180003A
:1003B000877FF5CF84B58F7784BD089584B58F7D11
:1003C000FBCF8091B0008F778093B000089580912B
:1003D000B0008F7DF9CF809190008F77809390004F
:1003E0000895809190008F7DF9CF80919000877F54
:1003F000F5CF8091A0008F778093A0000895809121
:10040000A0008F7DF9CF8091A000877FF5CF8091EC
:1004100020018F77809320010895809120018F7DA6
:10042000F9CF80912001877FF5CF1F93CF93DF9382
:10043000282F30E0F901E255FD4F8491F901E85988
:10044000FD4FD491F901EE5DFD4FC491CC23A9F08D
:10045000162F81110E94AE01EC2FF0E0EE0FFF1F6E
:10046000E85FFD4FA591B4918FB7F894EC9111110D
:1004700008C0D095DE23DC938FBFDF91CF911F9111
:100480000895DE2BF8CFEF92FF920F931F93CF9337
:10049000CBE201E010E0E82E880FFF08C7018023BF
:1004A000912361E0892B09F460E08C2F0E941502F2
:1004B000000F111FCF5FC33389F760E083E30E9411
:1004C000150260E084E30E94150261E085E30E946A
:1004D00015028BE99FE00197F1F760E085E30E9448
:1004E000150281E0CF911F910F91FF90EF90089539
:1004F000EF92FF920F931F93CF93CBE201E010E0B6
:10050000E82E880FFF08C7018023912361E0892B23
:1005100009F460E08C2F0E941502000F111FCF5FBD
:10052000C33389F761E083E30E94150260E084E34E
:100530000E94150261E085E30E9415028BE99FE0AD
:100540000197F1F760E085E30E94150281E0CF9109
:100550001F910F91FF90EF900895EF92FF920F93EC
:100560001F93CF93DF93EC0180E80E9443027E014A
:100570008FE0E80EF11C8E01F80181918F010E943D
:100580007802E016F106C1F780EC0E9443028E016A
:10059000005F1F4F6F96F80181918F010E947802D2
:1005A000C017D107C1F781E0DF91CF911F910F9163
:1005B000FF90EF9008950F931F93CF93DF938C01DB
:1005C000862F8295880F880F807C80580E94430276
:1005D000E801015F1F4F89910E947802C017D1077F
:1005E000D1F781E0DF91CF911F910F910895CF93C3
:1005F000DF9390E0FC01E859FD4F24918E5D9D4F03
:10060000FC0184918823D1F090E0880F991FFC01B0
:10061000E251FE4FA591B491FC01E85FFD4FC591F9
:10062000D49161110EC09FB7F8948C91E22FE095A0
:100630008E238C932881E223E8839FBFDF91CF91A3
:1006400008958FB7F894EC91E22BEC938FBFF6CF1F
:100650000F931F93CF93C6E101E010E080916C08E7
:1006600090916D0880239123892B69F060E08C2F95
:100670000E94F702000F111FCF5FC03279F7CF91B0
:100680001F910F91089561E08C2F0E94F70260E0A6
:100690008C2F0E941502EECF863308F086532091EE
:1006A0007B00982F9870277F922B90937B00877008
:1006B000806480937C0080917A00806480937A00CB
:1006C00080917A0086FDFCCF80917800909179002E
:1006D00008953FB7F89480918B0390918C03A0917B
:1006E0008D03B0918E0326B5A89B05C02F3F19F04E
:1006F0000196A11DB11D3FBFBA2FA92F982F8827A2
:10070000BC01CD01620F711D811D911D42E0660F7C
:10071000771F881F991F4A95D1F708958F929F924E
:10072000AF92BF92CF92DF92EF92FF924B015C01AA
:100730000E9469036B017C010E9469036C197D09A9
:100740008E099F09683E734081059105A8F321E059
:10075000821A9108A108B10888EEC80E83E0D81E5D
:10076000E11CF11C81149104A104B10429F7FF904C
:10077000EF90DF90CF90BF90AF909F908F900895B3
:100780002FB7F89460918703709188038091890353
:1007900090918A032FBF0895AF92BF92CF92DF92BC
:1007A000EF92FF920F931F93CF93DF936C017B0126
:1007B0008B01040F151FEB015E01AE18BF08C017B7
:1007C000D10759F06991D601ED91FC910190F0812A
:1007D000E02DC6011995892B79F7C501DF91CF91DD
:1007E0001F910F91FF90EF90DF90CF90BF90AF904F
:1007F0000895FC01538D448D252F30E0842F90E027
:10080000821B930B541710F0CF960895019708950B
:10081000FC01918D828D981761F0A28DAE0FBF2FD4
:10082000B11D5D968C91928D9F5F9F73928F90E02A
:1008300008958FEF9FEF0895FC01918D828D981799
:1008400031F0828DE80FF11D858D90E008958FEFD6
:100850009FEF0895FC01918D228D892F90E0805C9F
:100860009F4F821B91098F73992708958FE893E01A
:100870000E942A0421E0892B09F420E0822F0895A8
:10088000FC01A48DA80FB92FB11DA35ABF4F2C9105
:10089000848D90E001968F739927848FA689B789FC
:1008A0002C93A089B1898C91837080648C93938DF3
:1008B000848D981306C00288F389E02D80818F7D96
:1008C00080830895EF92FF920F931F93CF93DF934E
:1008D000EC0181E0888F9B8D8C8D98131AC0E8897C
:1008E000F989808185FF15C09FB7F894EE89FF894B
:1008F0006083E889F98980818370806480839FBFE9
:1009000081E090E0DF91CF911F910F91FF90EF90E8
:100910000895F62E0B8D10E00F5F1F4F0F731127F8
:10092000E02E8C8D8E110CC00FB607FCFACFE88933
:10093000F989808185FFF5CFCE010E944004F1CF77
:10094000EB8DEC0FFD2FF11DE35AFF4FF0829FB7A7
:10095000F8940B8FEA89FB8980818062CFCFCF9397
:10096000DF93EC01888D8823B9F0AA89BB89E889D7
:10097000F9898C9185FD03C0808186FD0DC00FB67D
:1009800007FCF7CF8C9185FFF2CF808185FFEDCFFB
:10099000CE010E944004E9CFDF91CF91089581E01C
:1009A0008093370808950E943604882319F081E067
:1009B0008093370880E090E0892B49F080E090E058
:1009C000892B29F00E94000081110E94000080E024
:1009D00090E0892B49F080E090E0892B29F00E947B
:1009E000000081110E94000080E090E0892B49F016
:1009F00080E090E0892B29F00E94000081110C9486
:100A0000000008958F929F92AF92BF92CF92DF9293
:100A1000EF92FF920F931F93CF936C01C42FC29557
:100A2000CC0FCC0FC07CC60FC05808EE13E0B12C21
:100A3000A12C8AE0882E912CC601F12CE12C801784
:100A4000910734F0801B910B2FEFE21AF20AF7CFD7
:100A5000E09EC001E19E900DF09E900D1124C81AF9
:100A6000D90A8C2F0E94430280E38E0D0E947802E7
:100A70008FEFA81AB80AC801B4010E9474158B013F
:100A8000CF5F24E0A216B104B9F6CF911F910F9168
:100A9000FF90EF90DF90CF90BF90AF909F908F909E
:100AA00008950895CF93DF93EC0188819981DC014B
:100AB000ED91FC910190F081E02D19952A813B8107
:100AC000820F931F9B838A83DF91CF910895CF93E9
:100AD000DF93EC0188819981DC01ED91FC9102802A
:100AE000F381E02D19952A813B81820F931F9B830F
:100AF0008A83DF91CF9108958F929F92AF92BF9298
:100B0000CF92DF92EF92FF920F931F93CF93DF93D9
:100B1000CDB7DEB766970FB6F894DEBF0FBECDBF78
:100B20006C018E01095E1F4F78018AE0882E912C9E
:100B3000A12CB12CCB01BA01A50194010E942F1563
:100B4000942F852F605DF80162938F01A901692FB1
:100B5000782F411551056105710561F7A7014E1BFD
:100B60005F0BBF01C6010E94670566960FB6F89439
:100B7000DEBF0FBECDBFDF91CF911F910F91FF90D0
:100B8000EF90DF90CF90BF90AF909F908F9008959F
:100B90004F925F926F927F928F929F92AF92BF928D
:100BA000DF92EF92FF920F931F93CF93DF9300D0CA
:100BB0001F921F92CDB7DEB7FC0184818F778630FC
:100BC000C1F028F48430D8F590E080E014C08A3079
:100BD00039F18C3009F476C18830B1F78081918188
:100BE000A281B381811520E89207A105B10560F7C4
:100BF00002C0808190E00F900F900F900F900F90A7
:100C0000DF91CF911F910F91FF90EF90DF90BF90F8
:100C1000AF909F908F907F906F905F904F900895CE
:100C200080819181A281B381AC01BD0150586F4F89
:100C30007F4F411551056140710530F6DCCF0190C1
:100C4000F081E02D1D8280818B32D1F18D32C9F58A
:100C50003196EE24E394808190ED980F9A3018F04D
:100C60008E3209F05DC08F0160E070E0CB01F801C9
:100C70002191A0ED8A2E820E49E0481520F16A39B3
:100C800059E97507850759E1950738F5AAE0B0E0FD
:100C90009B01AC010E942415912CB12CA12C2401A4
:100CA0003501409450946094709446165706680637
:100CB000790698F0680D791D8A1D9B1D8F01D7CF8D
:100CC0003196E12CC8CF211108C0EE2071F16130BE
:100CD00071058105A0E89A07A0F0F12CEAE08E2EBC
:100CE000912CA12CB12C6115710530E88307910579
:100CF00018F1A50194010E942F15CA01B901F394BE
:100D0000F2CF2AE02D839B01AC0188279927DC01D3
:100D1000821B930BA40BB50B89839A83AB83BC8393
:100D2000CE0101960E94C80566CF28E02D83698315
:100D30007A838B839C83F4CFF801D8012D918D01A8
:100D400030ED320F3A3010F4F394F6CF2E3201F535
:100D50008F010F5F1F4FF8010F5F1F4F208150ED74
:100D6000D52ED20EB9E0BD1598F06C3C2CEC720774
:100D70002CE08207910578F7AAE0B0E09B01AC0176
:100D80000E9424156D0D711D811D911DFA94E3CFF4
:100D900020812F7D10E000E0253409F050C0218132
:100DA0002D32B1F53296BB24B394DF0110E000E0A0
:100DB0002F2D0F2C000C330B4AE0A42EFD01DD90EB
:100DC00040ED4D0D4A30B0F5A09EA001A19E500D02
:100DD00011240D2DDD0C110B00531109040F151FEB
:100DE000A801420F531F4732510544F3BB20B9F00D
:100DF00080E090E0A0E0B0E8E11003C080E090E087
:100E0000DC012CE02D8389839A83AB83BC8388CF5C
:100E10002B3219F03196B12CC8CF3296FCCF80E03E
:100E200090E0A0E8BFEFE110ECCF80E090E0A0E818
:100E3000BFE7E7CFBB2019F011950195110920817B
:100E400021116ECF0F0D111DF7FC1A950E94E613AC
:100E500010161106F4F4F12C00FF0CC034E0F39EE0
:100E6000F0011124EA52FE4F25913591459154919C
:100E70000E94471415950795F3940115110561F724
:100E8000E11090582CE02D8369837A838B839C83B7
:100E900047CF119501951109F12C0115110581F329
:100EA00000FF0CC044E0F49EF0011124EA55FE4F0F
:100EB00025913591459154910E94471415950795B8
:100EC000F394EBCF80809180A280B38020E030E06B
:100ED00040E057ECC501B4010E94AC1687FD74CE0A
:100EE00020E03EEF4FEF56E4C501B4010E94E1134C
:100EF00018160CF469CEC501B4010E947616CB0118
:100F00007ACEFC012581222339F0F8E02F029001EE
:100F10001124820F931F089590E080E008950F93AD
:100F20001F93CF93DF93FC01208131812430310561
:100F300009F437C0EC01338322830E94C0030C8183
:100F40001D812E813F81601B710B820B930B6530DD
:100F500071058105910518F1288539853327F90137
:100F6000E255FD4F8491F901E859FD4F0491F901D3
:100F7000EE5DFD4F14911123D1F081110E94AE015D
:100F8000E12FF0E0EE0FFF1FE457FE4FA591B49163
:100F9000EC910E2361F081E090E0998388832881B1
:100FA0003981C901DF91CF911F910F910895198265
:100FB0001882F5CF0F931F93CF93DF93EC01162F79
:100FC000072F60E0812F0E94F702188709870E948F
:100FD000C0036C837D838E839F8383E090E099833D
:100FE00088839B838A83DF91CF911F910F9108950E
:100FF000CF9380E698E00E948F078130910529F514
:1010000020915E0330915F03232BF9F490935F03EB
:1010100080935E038091840390918503892BF9F07E
:1010200080916E0890916F08029751F0C0917008FE
:1010300061E08C2F0E94F70260E08C2F0E94150265
:10104000109285031092840308C080E698E00E9405
:101050008F0790935F0380935E03CF9108958091F3
:1010600062039091630301969093850380938403B8
:10107000F4CF0F931F93CF93DF93D0E0C0E06115BF
:10108000710591F08B01FC01C081D181209761F045
:101090006E817F81C8010E94B116892B29F0CE0193
:1010A0000E948107EC01F2CFCE01DF91CF911F9119
:1010B0000F910895EF92FF920F931F93CF93DF93B9
:1010C000FC018481982F9F7739F480788062848333
:1010D0001182108213821282848185FD09C080E012
:1010E00090E0DF91CF911F910F91FF90EF900895C5
:1010F00061157105A1F3EA017B018F01CF010E9407
:101100003908009771F7EC81FD818A819B810896EF
:10111000E817F90718F481E08887E1CF3897FD8355
:10112000EC833097E1F2E801AA81BB81109791F03E
:10113000CF018A1B9B0B23E0959587952A95E1F7B4
:1011400015968C93FB83EA8315821482F782E682DC
:10115000CF01C7CFF983E883FB83EA83F5CFCF9232
:10116000DF92EF92FF926A017B0142E354E0BC01FF
:101170008BE394E00E945A08FC01892B41F0948192
:1011800090789C609483C082D182E282F382FF9047
:10119000EF90DF90CF900895CF93DF93EB0142E380
:1011A00054E0BC018BE394E00E945A08FC01892BB7
:1011B00061F0948190789A609483CE01DD0FAA0B40
:1011C000BB0B80839183A283B383DF91CF9108957A
:1011D000FB0101900020E9F73197AF01461B570B47
:1011E0000C9467051F93CF93DF93EBE0F3E012813C
:1011F000112379F0329621816213F9CFEC016CE56D
:101200000E945205612FCE01DF91CF911F910C9466
:1012100052056111F9CF6CE173E0DF91CF911F911D
:101220000C94E8082F923F924F925F926F927F92B8
:101230008F929F92AF92BF92CF92DF92EF92FF92E6
:101240000F931F93CF93DF93CDB7DEB76C970FB695
:10125000F894DEBF0FBECDBF8C011B01DC011496DC
:101260008C9114978F77863009F492C268F582309A
:10127000A0F11296ED90FC901397CC901196DC9013
:10128000843008F056C2A701B601C1010E9467056B
:10129000F101828193816C960FB6F894DEBF0FBE88
:1012A000CDBFDF91CF911F910F91FF90EF90DF9015
:1012B000CF90BF90AF909F908F907F906F905F90F6
:1012C0004F903F902F9008958C3069F160F48830F2
:1012D00009F459C28A3009F43FC263E273E0C101E4
:1012E0000E94E808E5C1803209F4ECC18034A9F716
:1012F0006BE5C1010E945205F801008111810115C1
:10130000110509F4DAC1B101C8010E941209C8012E
:101310000E9481078C01892B09F4CFC16CE2C101C5
:101320000E945205ECCFF801C080D180E280F380AA
:10133000A7019601C701B6010E94E1138111CDCF2B
:1013400020E030E0A901C701B6010E94E113882323
:1013500079F0A7019601C701B6010E9498159B017B
:10136000AC01C701B6010E94E113882309F4B5CF8F
:1013700020E030E0A901C701B6010E94E11387FF18
:1013800008C06DE2C1010E945205F7FAF094F7F827
:10139000F09420E836E948E15BE4C701B6010E9419
:1013A000AC1687FD81C074E1A72EB12C00E210E0DD
:1013B000188E1F8AF501EA52FE4F2591359145910D
:1013C0005491C701B6010E94AC1687FD13C0F50108
:1013D000EA55FE4F2591359145915491C701B601CB
:1013E0000E9447146B017C012F89388D200F311F1B
:1013F000388F2F8B1595079534E0A31AB1088CEF21
:10140000A8168FEFB806B1F655245A9420E030E0C4
:10141000A901C701B6010E94AC1618160CF04BC00A
:101420002CEA35EC47E257E3C701B6010E94E1130D
:1014300018160CF440C0A52DB4E0AB02C001112475
:10144000B12CA12CFC01E254FE4F3F019C012A5219
:101450003E4F49013FEF531671F1F301EA0DFB1DB9
:101460002591359145915491C701B6010E94E11330
:1014700087FF13C0F401EA0DFB1D259135914591BD
:101480005491C701B6010E9447146B017C018F89FA
:10149000988D801B910B988F8F8B159507955A947B
:1014A00094E0A91AB108D6CF00E210E055E0552E1D
:1014B000188E1F8AABCFC701B6010E947D164B0163
:1014C0005C012B013C0106E080E492E4AFE0B0E077
:1014D000898F9A8FAB8FBC8F102F01509AE04916DD
:1014E000510461047104C8F0698D7A8D8B8D9C8DD7
:1014F0002AE030E040E050E00E942F15298F3A8F1B
:101500004B8F5C8FC301B2012AE030E040E050E035
:101510000E942F1529013A01DFCFC501B4010E94B5
:10152000E6139B01AC01C701B6010E9497156B0140
:101530007C01698D7A8D8B8D9C8D0E94E6139B01B9
:10154000AC01C701B6010E9447142B013C010E9467
:101550007D166B017C010E94E6139B01AC01C30167
:10156000B2010E9497159B01AC010E9498150E9440
:101570007D16C60ED71EE81EF91E898D9A8DAB8D7D
:10158000BC8DC816D906EA06FB06D8F09FEF891A6B
:10159000990AA90AB90AAF89B88DAB2B39F1BAE01B
:1015A0008B169104A104B10408F1EF89F88D3196EE
:1015B000F88FEF8BC12CD12C7601812C912C54010A
:1015C00083942AE0422E512C612C712CC701B60164
:1015D000A30192010E942F15672B682B692B51F4F0
:1015E000111644F469017A011150F0CFC12CD12CAD
:1015F0007601E7CFB501A401C1010E947C0511234A
:1016000071F14E01F1E18F0E911C012F54019AE00E
:10161000492E512C612C712C015068F0C701B60184
:10162000A30192010E942F15605DD4016E934D01BC
:1016300069017A01F1CF812F90E0BC01609570952E
:10164000F501E81BF90B31978EE28083442755277B
:10165000461B570B6A0D7B1DC1010E946705EF8970
:10166000F88DEF2B29F165E6C1010E9452050F8923
:10167000188D17FF07C06DE2C1010E945205119538
:1016800001951109FE0177969F018AE0E82EF12C61
:10169000C801B7010E946015805D82938B01672BA2
:1016A000B9F7A9014E1B5F0BBF01C1010E9467057D
:1016B000D10112968D919C91EECD6DE5C1010E94F4
:1016C0005205F6CF6BE7C1010E945205F801008177
:1016D00011810115110559F1D8011696CC90169774
:1016E0001796DC9062E2C1010E9452057601F70173
:1016F00061917F01662321F0C1010E94F208F7CFBA
:1017000062E2C1010E9452056AE3C1010E945205D2
:10171000B101C8010E941209C8010E9481078C0111
:10172000892B29F06CE2C1010E945205D2CF6DE7EE
:10173000C5CF62E2C1010E9452058601E00EF11E92
:10174000E016F10639F0F80161918F01C1010E94A4
:10175000F208F6CF62E2B2CFCD90DD90ED90FC9032
:10176000B701A601F7FE0BC06DE2C1010E94520550
:1017700044275527BA014C195D096E097F09C1013B
:101780000E947C0585CD4D915D916D917C91F7CF47
:101790008C9168E273E0811102C06DE273E0C101D7
:1017A0000E94E80875CD1F920F920FB60F92112478
:1017B0002F933F938F939F93AF93BF938091870312
:1017C00090918803A0918903B0918A033091860398
:1017D00023E0230F2D3758F50196A11DB11D20934D
:1017E00086038093870390938803A0938903B09323
:1017F0008A0380918B0390918C03A0918D03B0910B
:101800008E030196A11DB11D80938B0390938C03D1
:10181000A0938D03B0938E03BF91AF919F918F9151
:101820003F912F910F900FBE0F901F90189526E8B3
:10183000230F0296A11DB11DD2CF1F920F920FB69A
:101840000F9211240BB60F922F933F934F935F93F8
:101850006F937F938F939F93AF93BF93EF93FF9378
:101860008FE893E00E944004FF91EF91BF91AF9108
:101870009F918F917F916F915F914F913F912F91A8
:101880000F900BBE0F900FBE0F901F9018951F92D8
:101890000F920FB60F9211240BB60F922F938F93C6
:1018A0009F93EF93FF93E0919F03F091A0038081BA
:1018B000E091A503F091A60382FD1DC09081809167
:1018C000A8038F5F8F732091A903821741F0E091E5
:1018D000A803F0E0E157FC4F958F8093A803FF9198
:1018E000EF919F918F912F910F900BBE0F900FBE94
:1018F0000F901F9018958081F2CFCF93DF931092B5
:1019000092031092910388EE93E0A0E0B0E0809300
:10191000930390939403A0939503B09396038DEF54
:1019200092E09093900380938F0385EC90E09093E6
:101930009C0380939B0384EC90E090939E038093A0
:101940009D0380EC90E09093A00380939F0381EC33
:1019500090E09093A2038093A10382EC90E0909397
:10196000A4038093A30386EC90E09093A603809356
:10197000A5031092A8031092A9031092AA03109233
:10198000AB03CBE261E08C2F0E94F702CF5FC33341
:10199000C9F7C1E0D0E0D0938708C093860889E3F7
:1019A00090E090938308809382088AE390E090937C
:1019B00085088093840860E089E30E94F70260E074
:1019C0008AE30E94F70286E390E090937508809383
:1019D000740887E390E0909377088093760888E313
:1019E00090E0909379088093780860E086E30E9405
:1019F000F70260E087E30E94F70260E088E30E945C
:101A0000F70289E090E09093710880937008D0937A
:101A10006F08C0936E08C6E160E08C2F0E94F70249
:101A2000CF5FC032C9F762E270E080E698E00E94C2
:101A3000DA0763E270E086E598E00E94DA0764E284
:101A400070E08CE498E00E94DA0765E270E082E4DE
:101A500098E00E94DA0766E270E088E398E00E946E
:101A6000DA0780E494E090933304809332049093F7
:101A700035048093340484E396E090933704809394
:101A80003604909339048093380410923A041092EB
:101A90003F0482E496E09093350680933406909359
:101AA00037068093360686E398E090933906809354
:101AB000380690933B0680933A0610923C061092AB
:101AC0004106109236081092370880E092ECA1E0AF
:101AD000B0E080932C0490932D04A0932E04B09337
:101AE0002F0483E090E09093310480933004DF91E1
:101AF000CF910895CF93DF93CDB7DEB764970FB63C
:101B0000F894DEBF0FBECDBF789484B5826084BDEB
:101B100084B5816084BD85B5826085BD85B58160F1
:101B200085BD80916E00816080936E00109281006F
:101B3000809181008260809381008091810081602A
:101B400080938100809180008160809380008091EB
:101B5000B10084608093B1008091B0008160809377
:101B6000B0008091910082608093910080919100FB
:101B700081608093910080919000816080939000BB
:101B80008091A10082608093A1008091A10081607A
:101B90008093A1008091A00081608093A00080913B
:101BA00021018260809321018091210181608093D5
:101BB00021018091200181608093200180917A0031
:101BC000846080937A0080917A00826080937A00AA
:101BD00080917A00816080937A0080917A00806899
:101BE00080937A001092C100E0919F03F091A003CE
:101BF00082E08083E0919B03F0919C031082E0914E
:101C00009D03F0919E0380E180831092A703E091F1
:101C1000A303F091A40386E08083E091A103F091F7
:101C2000A203808180618083E091A103F091A203EF
:101C3000808188608083E091A103F091A20380817C
:101C400080688083E091A103F091A20380818F7D61
:101C500080831BE261E0812F0E94F70260E0812F08
:101C60000E9415021F5F1633A9F781E090E0909360
:101C700087088093860880E30E9443026AE070E050
:101C800080E090E00E948E0388E30E9443028CE093
:101C90000E94430281E00E94430286E00E944302C8
:101CA0008DE00E94430280E80E944302FF24F394E7
:101CB00059E1452E512C612C712C88248A9463E0C3
:101CC000962EA12CB12C80918403909185038230B3
:101CD000910509F401C30CF023C1009709F464C114
:101CE0008130910509F4AEC280913708882309F448
:101CF0000EC18091410685FF1DC063E373E08DE353
:101D000096E00E9439080097A9F0FC0184818F7742
:101D100089F063E373E08DE396E00E943908009751
:101D200009F44CC50E94C80590936D0880936C0817
:101D30000E9428030E94C0036D837E838F8398874F
:101D400042E354E067E373E08BE394E00E945A08B7
:101D5000FC01892B61F094819078986094838D8147
:101D60009E81AF81B88580839183A283B383809164
:101D70007A0890917B08029759F0809182080E941E
:101D80004C031C01809184080E944C039C8B8B8B1C
:101D900028EC30E0D1010E949015A50194010E9429
:101DA0000515CA01B90164567109810991090E949A
:101DB000E81320E030E048EC52E40E940416AB0146
:101DC000BC018CE393E00E94AF0828EC30E0AB89C3
:101DD000BC890E949015A50194010E940515CA01B5
:101DE000B90164567109810991090E94E81320E044
:101DF00030E048EC52E40E940416AB01BC0181E4DF
:101E000093E00E94AF0880E698E00E948F07BC0133
:101E100086E493E00E94CC0886E598E00E948F0754
:101E2000BC0189E493E00E94CC088CE498E00E9415
:101E30008F07BC018CE493E00E94CC0882E498E018
:101E40000E948F07BC018FE493E00E94CC0888E3D6
:101E500098E00E948F07BC0182E593E00E94CC08C5
:101E60008091720890917308029729F0809174080C
:101E70000E944C031C019101032C000C440B550BD8
:101E80002A5F310941095109A0EBB4E00E942415F1
:101E900026E930E040E050E00E940515CA01B90192
:101EA0000E94E81320E030E048EC52E40E9404165F
:101EB000AB01BC0185E593E00E94AF08AFE8B3E059
:101EC000BA83A9831C821B82BE016F5F7F4F8BE3A5
:101ED00094E00E941209809132049091330490930F
:101EE00035048093340480913804909139049093A0
:101EF00037048093360410923A0410923F041092F3
:101F00003608109237088FE893E00E94AF0468EE1D
:101F100073E080E090E00E948E030E94D304D3CE51
:101F20008430910509F406C30CF434C28530910560
:101F300009F0DACE2091F7023091F8022530310510
:101F400081F09093F8028093F702F092F6028CE011
:101F50000E94430280E80E94430286E592E00E94CC
:101F6000AD020E94F80780917A0890917B08029751
:101F700061F0809182080E944C03988B8F8780913A
:101F800084080E944C039A8B898B41E050E062E008
:101F900070E08F8598890E94020541E050E069E079
:101FA00070E089899A8995C18091F7029091F80231
:101FB000892B21F01092F8021092F70220917A08F2
:101FC00030917B082230310509F462C030937D08DE
:101FD00020937C080E94C00300917E0810917F0826
:101FE0002091800830918108601B710B820B930B4C
:101FF000633071058105910588F1809184080E9404
:102000004C03883C92403CF085E090E090937B0844
:1020100080937A080EC0809184080E944C03893313
:1020200091400CF069C0E7E0F0E0F0937B08E093AA
:102030007A0820917C0830917D0880917A089091EF
:102040007B082817390751F00E94C00360937E086F
:1020500070937F08809380089093810820917A087C
:1020600030917B08809162039091630327303105A2
:1020700009F04BC040916003509161034730510516
:1020800039F084309105DCF1109263031092620301
:1020900030936103209360030E94F80780916203EC
:1020A000909163038230910509F490C00CF045C013
:1020B000009709F467C0019709F016CE809150028D
:1020C00090915102019729F48091F602882309F436
:1020D0000BCE81E090E090935102809350021092D9
:1020E000F60270E060E080E192E00E94DB0261E0D5
:1020F00070E080E292E061C083E090E087CF0196DB
:102100009093630380936203C3CF2530310509F0B8
:10211000BFCF40916003509161034530510509F4F0
:10212000B7CF181619063CF0A4E0B0E0B0936303F3
:10213000A0936203ADCF0197E3CF8330910509F4FB
:1021400063C0049709F0D0CD809150029091510264
:10215000049729F48091F602882309F4C5CD84E020
:1021600090E090935102809350021092F60270E03A
:1021700060E080E492E00E94DB0261E070E080E0D9
:1021800092E01BC08091500290915102892B29F45A
:102190008091F602882309F4A7CD10925102109283
:1021A00050021092F60270E060E080E092E00E943F
:1021B000DB0261E070E080E192E00E94DB028DE0F2
:1021C0000E94430280E80E9443028ECD809150021B
:1021D00090915102029729F48091F602882309F424
:1021E00083CD82E090E09093510280935002109250
:1021F000F60270E060E080E292E00E94DB0261E0C3
:1022000070E080E392E0D9CF80915002909151022A
:10221000039729F48091F602882309F465CDE3E061
:10222000F0E0F0935102E09350021092F60270E059
:1022300060E080E392E00E94DB0261E070E080E415
:1022400092E0BBCF2091F7023091F80221303105A6
:1022500081F09093F8028093F702F092F6028CE0FE
:102260000E94430280E80E94430286ED92E00E94B1
:10227000AD020E94F807809172089091730802974E
:1022800091F0809174080E944C039A87898780910D
:1022900076080E944C039C878B87809178080E9467
:1022A0004C039E878D8750E040E06AE070E08985AE
:1022B0009A850E94020541E050E062E070E08B8563
:1022C0009C850E94020541E050E06AE070E08D8547
:1022D0009E850E94020508CD2091F7023091F802F8
:1022E0002230310581F09093F8028093F702F0924A
:1022F000F6028CE00E94430280E80E94430286EBD3
:1023000092E00E94AD020E94F80786E598E00E94E4
:102310008F07019759F583E80E94430281E30E94E9
:1023200078028CE498E00E948F07019721F58BE8F2
:102330000E94430281E30E94780282E498E00E94B6
:102340008F070197E9F483EC0E94430281E30E9426
:10235000780288E398E00E948F070197B1F48BEC34
:102360000E94430281E30E947802BECC83E80E946F
:10237000430280E3D4CF8BE80E94430280E3DBCFAB
:1023800083EC0E94430280E3E2CF8BEC0E94430285
:1023900080E3E9CF8091F7029091F802039791F0E2
:1023A000A3E0B0E0B093F802A093F702F092F60237
:1023B0008CE00E94430280E80E94430286E992E09A
:1023C0000E94AD0280916F0381110CC00E94C00376
:1023D00060936B0370936C0380936D0390936E0313
:1023E000F0926F030E94F80786E598E00E948F073D
:1023F0008130910509F05AC090936A038093690374
:102400000E94C00300916B0310916C0320916D0337
:1024100030916E03601B710B820B930B0091520283
:1024200010915302209154023091550260177107A8
:102430008207930708F458CC0E94C00360936B0393
:1024400070936C0380936D0390936E0320916903E6
:1024500030916A032115310509F041C040925202C2
:102460005092530260925402709255028091670319
:102470009091680384369105F4F0109266034091C0
:1024800066034423F1F001969093680380936703F9
:1024900000916703109168038AE090E0081719071C
:1024A00094F0359527953E5F0A96F8CF10926A030F
:1024B00010926903A5CF181619060CF3F092660363
:1024C000DECF0197E1CF30936D0820936C080E9416
:1024D000280350E040E06BE070E0C801FACE213004
:1024E000310509F001CC40925202509253026092A1
:1024F0005402709255028091640390916503880F95
:10250000991F91FF15C09093650380936403009118
:1025100064031091650310936D0800936C080E948A
:10252000280350E040E06BE070E0C8019370D1CE2A
:102530000196E9CF2091F7023091F802243031055D
:1025400081F09093F8028093F702F092F6028CE00B
:102550000E94430280E80E94430286E792E00E94C4
:10256000AD0280917C03811108C00E94C00370936A
:102570007B0360937A03F0927C030E94C003009176
:102580007A0310917B03012E000C220B330B601B8E
:10259000710B820B930B643171058105910508F471
:1025A00073C00E94C00370937B0360937A03809191
:1025B000780390917903AC01415051094E3F510588
:1025C00028F0209177032F2520937703209177031C
:1025D000222301F1019690937903809378038091EF
:1025E0006E0890916F08029709F444C00091780337
:1025F00010917903C0907008D090710861E08C2D23
:102600000E94F7020115110551F460E08C2D0E9423
:10261000150230C05093790340937803E0CF0F3F09
:10262000110511F461E0F2CFF601FF27E255FD4FED
:10263000E491E150E23108F0BCC0F0E08827EC5DA5
:10264000FC4E8F4F0C948815361347134C135613BA
:102650006013D9136A1372137A1384138E139813A9
:10266000A713B113D913BB13C513CF1384B5806857
:1026700084BD07BD50E040E06BE070E080917803DE
:10268000909179030E9402050E94F8072DCB84B532
:10269000806284BD08BDEECF809180008068809309
:1026A00080001093890000938800E4CF809180001F
:1026B00080628093800010938B0000938A00DACFB1
:1026C0008091800088608093800010938D0000933B
:1026D0008C00D0CF8091B00080688093B0000093D0
:1026E000B300C8CF8091B00080628093B0000093A7
:1026F000B400C0CF809190008068809390001093C8
:10270000990000939800B6CF8091900080628093EA
:10271000900010939B0000939A00ACCF80919000A2
:1027200088608093900010939D0000939C00A2CF3E
:102730008091A00080688093A0008091A0008F7B92
:102740008093A0001093A9000093A80093CF8091DC
:10275000A00080628093A0001093AB000093AA00B9
:1027600089CF8091A00088608093A0001093AD0075
:102770000093AC007FCF809120018068809320017E
:10278000109329010093280175CF80912001806268
:102790008093200110932B0100932A016BCF80912D
:1027A000200188608093200110932D0100932C015B
:1027B00061CF003811050CF035CF27CF90E080E0D5
:1027C000B3CA0E94231408F481E00895E89409C074
:1027D00097FB3EF490958095709561957F4F8F4F54
:1027E0009F4F9923A9F0F92F96E9BB279395F6956A
:1027F000879577956795B795F111F8CFFAF4BB0FE8
:1028000011F460FF1BC06F5F7F4F8F4F9F4F16C04B
:10281000882311F096E911C0772321F09EE8872FD5
:10282000762F05C0662371F096E8862F70E060E091
:102830002AF09A95660F771F881FDAF7880F96950A
:10284000879597F90895990F0008550FAA0BE0E8AE
:10285000FEEF16161706E807F907C0F01216130662
:10286000E407F50798F0621B730B840B950B39F4A2
:102870000A2661F0232B242B252B21F408950A2608
:1028800009F4A140A6958FEF811D811D08950E9436
:102890005A140C94CB140E94BD1438F00E94C41436
:1028A00020F0952311F00C94B4140C94BA14112454
:1028B0000C94FF140E94DC1470F3959FC1F3950FE4
:1028C00050E0551F629FF001729FBB27F00DB11DB4
:1028D000639FAA27F00DB11DAA1F649F6627B00D44
:1028E000A11D661F829F2227B00DA11D621F739F2D
:1028F000B00DA11D621F839FA00D611D221F749F3B
:102900003327A00D611D231F849F600D211D822F81
:10291000762F6A2F11249F5750409AF0F1F08823A8
:102920004AF0EE0FFF1FBB1F661F771F881F9150D5
:102930005040A9F79E3F510580F00C94B4140C94BC
:10294000FF145F3FE4F3983ED4F38695779567953F
:10295000B795F795E7959F5FC1F7FE2B880F911DFF
:102960009695879597F9089597F99F6780E870E0A5
:1029700060E008959FEF80EC089500240A941616F5
:10298000170618060906089500240A94121613065D
:10299000140605060895092E0394000C11F48823EB
:1029A00052F0BB0F40F4BF2B11F460FF04C06F5F07
:1029B0007F4F8F4F9F4F089557FD9058440F551FDD
:1029C00059F05F3F71F04795880F97FB991F61F0B1
:1029D0009F3F79F087950895121613061406551F28
:1029E000F2CF4695F1DF08C0161617061806991F94
:1029F000F1CF86957105610508940895E894BB2789
:102A000066277727CB0197F90895052E97FB1EF4CB
:102A100000940E941C1557FD07D00E942F1507FC3B
:102A200003D04EF40C941C1550954095309521958B
:102A30003F4F4F4F5F4F08959095809570956195EA
:102A40007F4F8F4F9F4F08950E945115A59F900D66
:102A5000B49F900DA49F800D911D11240895A1E2B3
:102A60001A2EAA1BBB1BFD010DC0AA1FBB1FEE1F08
:102A7000FF1FA217B307E407F50720F0A21BB30B53
:102A8000E40BF50B661F771F881F991F1A9469F7CF
:102A900060957095809590959B01AC01BD01CF012B
:102AA0000895A29FB001B39FC001A39F700D811D27
:102AB0001124911DB29F700D811D1124911D089547
:102AC000AA1BBB1B51E107C0AA1FBB1FA617B70754
:102AD00010F0A61BB70B881F991F5A95A9F7809570
:102AE0009095BC01CD01089597FB072E16F4009434
:102AF00007D077FD09D00E94601507FC05D03EF491
:102B0000909581959F4F0895709561957F4F089599
:102B1000EE0FFF1F881F8BBF0790F691E02D1994D1
:102B20000E945115B7FF0895821B930B08955058CA
:102B3000BB27AA270E94AF150C94CB140E94BD148A
:102B400038F00E94C41420F039F49F3F19F426F4A1
:102B50000C94BA140EF4E095E7FB0C94B414E92F2E
:102B60000E94DC1458F3BA176207730784079507AD
:102B700020F079F4A6F50C94FE140EF4E0950B2EDB
:102B8000BA2FA02D0B01B90190010C01CA01A001BF
:102B90001124FF27591B99F0593F50F4503E68F11A
:102BA0001A16F040A22F232F342F4427585FF3CF5B
:102BB000469537952795A795F0405395C9F77EF42C
:102BC0001F16BA0B620B730B840BBAF09150A1F075
:102BD000FF0FBB1F661F771F881FC2F70EC0BA0FFB
:102BE000621F731F841F48F4879577956795B79583
:102BF000F7959E3F08F0B0CF9395880F08F099277E
:102C0000EE0F9795879508950E9418160C94CB1493
:102C10000E94C41458F00E94BD1440F029F45F3F94
:102C200029F00C94B41451110C94FF140C94BA14A0
:102C30000E94DC1468F39923B1F3552391F3951B9B
:102C4000550BBB27AA2762177307840738F09F5FCD
:102C50005F4F220F331F441FAA1FA9F335D00E2E3A
:102C60003AF0E0E832D091505040E695001CCAF7A7
:102C70002BD0FE2F29D0660F771F881FBB1F26176A
:102C800037074807AB07B0E809F0BB0B802DBF0141
:102C9000FF2793585F4F3AF09E3F510578F00C9410
:102CA000B4140C94FF145F3FE4F3983ED4F386957C
:102CB00077956795B795F7959F5FC9F7880F911D31
:102CC0009695879597F90895E1E0660F771F881F1D
:102CD000BB1F621773078407BA0720F0621B730BD0
:102CE000840BBA0BEE1F88F7E09508950E947D16BD
:102CF0006894B1110C94FF1408950E94E41488F0B4
:102D00009F5798F0B92F9927B751B0F0E1F0660FAF
:102D1000771F881F991F1AF0BA95C9F714C0B130F0
:102D200091F00E94FE14B1E008950C94FE14672FF8
:102D3000782F8827B85F39F0B93FCCF3869577951F
:102D40006795B395D9F73EF4909580957095619508
:102D50007F4F8F4F9F4F08950E94231408F48FEFE9
:102D60000895FB01DC018D91019080190110D9F3C8
:082D7000990B0895F894FFCFC0
:102D780031202D20416363656C2020202020200015
:102D880032202D20426F7574746F6E202020200031
:102D980033202D20426172677261706865202000BF
:102DA80034202D204D6F746575722020202020005E
:102DB80035202D204A6F79737469636B20202000B9
:102DC800FFFF320000004A6F79737469636B20203B
:102DD800202020202000583A2020202020593A2066
:102DE8002020202020004D6F74657572202020203F
:102DF80020202020200020202020202020202020EB
:102E0800202020202000426172677261706865206E
:102E180020202020200020202020202020202020CA
:102E280020202020200042323A2020202020423337
:102E38003A202020200042343A2020202020423509
:102E48003A2020202000416363656C202020583AF6
:102E5800202020202000593A2020202020205A3AE3
:102E680020202020200001FFFF000000006204CC89
:102E780003F903AF042A0408041C042F2F22225C40
:102E88005C6208660C6E0A720D7409005C7530305D
:102E98003030006E756C6C00747275650066616C1C
:102EA8007365006C65640074696D65004A6F7958D4
:102EB800004A6F79590042310042320042330042E1
:0C2EC8003400423500416E676C6500006C
:00000001FF
