:100000000C9457010C9488010C9488010C9488017D
:100010000C9488010C9488010C9488010C9488013C
:100020000C9488010C9488010C9488010C9488012C
:100030000C9488010C9488010C9488010C9488011C
:100040000C9488010C9488010C9488010C9488010C
:100050000C9488010C9488010C9488010C94C205BE
:100060000C9488010C9436060C940C060C948801B0
:100070000C9488010C9488010C9488010C948801DC
:100080000C9488010C9488010C9488010C948801CC
:100090000C9488010C9488010C9488010C948801BC
:1000A0000C9488010C9488010C9488010C948801AC
:1000B0000C9488010C9488010C9488010C9488019C
:1000C0000C9488010C9488010C9488010C9488018C
:1000D0000C9488010C9488010C9488010C9488017C
:1000E0000C9488010C94800C0C94BA010C94760347
:1000F0000C943F0C0C94C3010C94980C0C94590470
:100100000C942D0C0C946C060C94740C0C948C0CAC
:100110000C94A8010C940C040C94150C0C94E301A1
:100120000C94E9010C94A40C0C94E8010C94B20317
:100130000C94DB010C94210C0C94570C0C94B00C17
:100140000C94ED010C94090C0C94AE010C94B601C6
:100150000C94DF010C94D4030C94CD010C94A303F4
:100160000C94030C0C94C7010C94630C0C94360C87
:100170000C94BD010C94F10B0C94D1010C944B0C1C
:100180000C94B2010C94D5010C94C603000020001D
:100190002300260029002C002F003200000100005F
:1001A00003010601090100002100240027002A00A4
:1001B0002D003000330001010000040107010A0195
:1001C00000002200250028002B002E003100340002
:1001D00002010000050108010B01050505050705E1
:1001E00008080808020202020A0A080804040404B3
:1001F00001010101010101010303030303030303DF
:10020000040707070C0C0C0C0C0C0C0C020202026D
:1002100006060606060606060B0B0B0B0B0B0B0B56
:100220000102102020080810204010204080020108
:1002300002010804020101020408102040808040ED
:1002400020100804020180040201804020100804EC
:10025000020108040201010204081020408001028A
:1002600004081020408000000A0B02090C0D0E0843
:10027000070304010000000000000000000000006F
:10028000000000000000000000000000000000006E
:10029000000012111000000000000000000000002B
:1002A0000000000000000000000000006C061124A7
:1002B0001FBECFEFD1E2DEBFCDBF00E00CBF24E018
:1002C000AEE1B3E001C01D92AE33B207E1F713E037
:1002D000A0E0B2E0E2EDF9E100E00BBF02C0079060
:1002E0000D92AE31B107D9F711E0C7E5D1E000E0DA
:1002F00006C021970109802FFE010E94CB0CC63554
:10030000D10780E00807A9F70E9422070C94E70CA8
:100310000C9400008150823108F05AC0E82FF0E0C0
:100320008827EA56FE4F8F4F0C94CB0CB601BA01CA
:10033000A801AE01B201E801BD01C301C701CD01B1
:10034000D101D501DB01DF01E801E301E901ED01A4
:10035000809180008F778093800008958091800045
:100360008F7DF9CF80918000877FF5CF84B58F771F
:1003700084BD089584B58F7DFBCF8091B0008F77C9
:100380008093B00008958091B0008F7DF9CF809167
:1003900090008F77809390000895809190008F7DDA
:1003A000F9CF80919000877FF5CF8091A0008F7763
:1003B0008093A00008958091A0008F7DF9CF809157
:1003C000A000877FF5CF809120018F778093200157
:1003D0000895809120018F7DF9CF80912001877F42
:1003E000F5CF1F93CF93DF93282F30E0F901EA591F
:1003F000FD4F8491F901E05EFD4FD491F901E65281
:10040000FE4FC491CC23A9F0162F81110E948A01BE
:10041000EC2FF0E0EE0FFF1FE054FE4FA591B491DA
:100420008FB7F894EC91111108C0D095DE23DC93BE
:100430008FBFDF91CF911F910895DE2BF8CFEF9200
:10044000FF920F931F93CF93CBE201E010E0E82ED1
:10045000880FFF08C7018023912361E0892B09F4ED
:1004600060E08C2F0E94F101000F111FCF5FC3339A
:1004700089F760E083E30E94F10160E084E30E9479
:10048000F10161E085E30E94F1018BE99FE00197B2
:10049000F1F760E085E30E94F10181E0CF911F91C7
:1004A0000F91FF90EF900895EF92FF920F931F939B
:1004B000CF93CBE201E010E0E82E880FFF08C701E0
:1004C0008023912361E0892B09F460E08C2F0E9446
:1004D000F101000F111FCF5FC33389F761E083E3A0
:1004E0000E94F10160E084E30E94F10161E085E394
:1004F0000E94F1018BE99FE00197F1F760E085E34D
:100500000E94F10181E0CF911F910F91FF90EF9038
:100510000895EF92FF920F931F93CF93DF93EC0117
:1005200080E80E941F027E018FE0E80EF11C8E0120
:10053000F80181918F010E945402E016F106C1F783
:1005400080EC0E941F028E01005F1F4F6F96F80122
:1005500081918F010E945402C017D107C1F781E039
:10056000DF91CF911F910F91FF90EF9008950F931E
:100570001F93CF93DF938C01862F8295880F880F6E
:10058000807C80580E941F02E801015F1F4F899103
:100590000E945402C017D107D1F781E0DF91CF91BB
:1005A0001F910F910895CF93DF9390E0FC01E05EDF
:1005B000FD4F249186529E4FFC0184918823D1F0F7
:1005C00090E0880F991FFC01EA55FE4FA591B49168
:1005D000FC01E054FE4FC591D49161110EC09FB74C
:1005E000F8948C91E22FE0958E238C932881E2235E
:1005F000E8839FBFDF91CF9108958FB7F894EC9176
:10060000E22BEC938FBFF6CF0F931F93CF93C6E1EE
:1006100001E010E080912204909123048023912333
:10062000892B69F060E08C2F0E94D302000F111F0C
:10063000CF5FC03279F7CF911F910F91089561E09C
:100640008C2F0E94D30260E08C2F0E94F101EECF2C
:10065000863308F0865320917B00982F9870277F6F
:10066000922B90937B008770806480937C008091B4
:100670007A00806480937A0080917A0086FDFCCFB6
:10068000809178009091790008953FB7F894809117
:100690004D0390914E03A0914F03B091500326B5A6
:1006A000A89B05C02F3F19F00196A11DB11D3FBFAA
:1006B000BA2FA92F982F8827BC01CD01620F711D79
:1006C000811D911D42E0660F771F881F991F4A9573
:1006D000D1F708952FB7F8946091490370914A03B8
:1006E00080914B0390914C032FBF0895AF92BF921E
:1006F000CF92DF92EF92FF920F931F93CF93DF93EE
:100700006C017B018B01040F151FEB015E01AE181C
:10071000BF08C017D10759F06991D601ED91FC913E
:100720000190F081E02DC6011995892B79F7C5015B
:10073000DF91CF911F910F91FF90EF90DF90CF90BD
:10074000BF90AF900895FC01538D448D252F30E06C
:10075000842F90E0821B930B541710F0CF960895CE
:1007600001970895FC01918D828D981761F0A28DFB
:10077000AE0FBF2FB11D5D968C91928D9F5F9F73C1
:10078000928F90E008958FEF9FEF0895FC01918D77
:10079000828D981731F0828DE80FF11D858D90E0E4
:1007A00008958FEF9FEF0895FC01918D228D892F81
:1007B00090E0805C9F4F821B91098F739927089569
:1007C00081E593E00E94D40321E0892B09F420E025
:1007D000822F0895FC01A48DA80FB92FB11DA35A33
:1007E000BF4F2C91848D90E001968F739927848F51
:1007F000A689B7892C93A089B1898C918370806474
:100800008C93938D848D981306C00288F389E02D14
:1008100080818F7D80830895EF92FF920F931F93C5
:10082000CF93DF93EC0181E0888F9B8D8C8D9813A3
:100830001AC0E889F989808185FF15C09FB7F894AF
:10084000EE89FF896083E889F989808183708064FB
:1008500080839FBF81E090E0DF91CF911F910F9146
:10086000FF90EF900895F62E0B8D10E00F5F1F4F55
:100870000F731127E02E8C8D8E110CC00FB607FC64
:10088000FACFE889F989808185FFF5CFCE010E94F2
:10089000EA03F1CFEB8DEC0FFD2FF11DE35AFF4F73
:1008A000F0829FB7F8940B8FEA89FB898081806280
:1008B000CFCFCF93DF93EC01888D8823B9F0AA893D
:1008C000BB89E889F9898C9185FD03C0808186FD0B
:1008D0000DC00FB607FCF7CF8C9185FFF2CF80815A
:1008E00085FFEDCFCE010E94EA03E9CFDF91CF91E2
:1008F000089581E08093210308950E94E0038823F6
:1009000019F081E08093210380E090E0892B49F089
:1009100080E090E0892B29F00E94000081110E9464
:10092000000080E090E0892B49F080E090E0892B86
:1009300029F00E94000081110E94000080E090E0F8
:10094000892B49F080E090E0892B29F00E9400007B
:1009500081110C94000008958F929F92AF92BF92E4
:10096000CF92DF92EF92FF920F931F93CF936C0180
:10097000C42FC295CC0FCC0FC07CC60FC05808EE58
:1009800013E0B12CA12C8AE0882E912CC601F12C09
:10099000E12C8017910734F0801B910B2FEFE21AA6
:1009A000F20AF7CFE09EC001E19E900DF09E900DFF
:1009B0001124C81AD90A8C2F0E941F0280E38E0DC1
:1009C0000E9454028FEFA81AB80AC801B4010E940D
:1009D000B70C8B01CF5F24E0A216B104B9F6CF911A
:1009E0001F910F91FF90EF90DF90CF90BF90AF904D
:1009F0009F908F9008950F931F93CF93DF93FC01E7
:100A0000208131812530310509F439C0EC0133836F
:100A100022830E946A030C811D812E813F81601B0D
:100A2000710B820B930B653071058105910528F1DF
:100A3000288539853327F901EA59FD4F8491F90159
:100A4000E05EFD4F0491F901E652FE4F149111232F
:100A500081F081110E948A01E12FF0E0EE0FFF1F6B
:100A6000E457FE4FA591B491EC910E2381E090E004
:100A700011F482E090E09983888328813981C9014B
:100A8000DF91CF911F910F9108950F931F93CF93F3
:100A9000DF93EC01162F072F60E0812F0E94D30215
:100AA000188709870E946A036C837D838E839F83E6
:100AB00084E090E0998388839B838A83DF91CF9140
:100AC0001F910F910895CF93DF93FC0101900020B7
:100AD000E9F73197AF01481B590BBC0181E593E061
:100AE0000E947603EC0142E050E06BE073E081E5A8
:100AF00093E00E9476038C0F9D1FDF91CF910895A4
:100B0000CF9386E194E00E94FB048130910531F59A
:100B100020911F033091200322303105F9F4909386
:100B2000200380931F038091460390914703892BF4
:100B3000F9F08091240490912504029751F0C0911E
:100B4000260461E08C2F0E94D30260E08C2F0E946B
:100B5000F101109247031092460308C086E194E029
:100B60000E94FB049093200380931F03CF9108956C
:100B700080912403909125030196909347038093DD
:100B80004603F4CF1F920F920FB60F9211242F93AA
:100B90003F938F939F93AF93BF938091490390911D
:100BA0004A03A0914B03B0914C033091480323E0DA
:100BB000230F2D3758F50196A11DB11D2093480331
:100BC0008093490390934A03A0934B03B0934C0343
:100BD00080914D0390914E03A0914F03B09150032B
:100BE0000196A11DB11D80934D0390934E03A093D8
:100BF0004F03B0935003BF91AF919F918F913F915D
:100C00002F910F900FBE0F901F90189526E8230F7D
:100C10000296A11DB11DD2CF1F920F920FB60F9257
:100C200011240BB60F922F933F934F935F936F93C3
:100C30007F938F939F93AF93BF93EF93FF9381E540
:100C400093E00E94EA03FF91EF91BF91AF919F91D2
:100C50008F917F916F915F914F913F912F910F9065
:100C60000BBE0F900FBE0F901F9018951F920F9202
:100C70000FB60F9211240BB60F922F938F939F9361
:100C8000EF93FF93E0916103F09162038081E09123
:100C90006703F091680382FD1DC0908180916A0313
:100CA0008F5F8F7320916B03821741F0E0916A038D
:100CB000F0E0EF5AFC4F958F80936A03FF91EF911C
:100CC0009F918F912F910F900BBE0F900FBE0F90A1
:100CD0001F9018958081F2CFCF93DF931092540329
:100CE0001092530388EE93E0A0E0B0E080935503A8
:100CF00090935603A0935703B09358038DEF92E05F
:100D0000909352038093510385EC90E090935E039F
:100D100080935D0384EC90E09093600380935F0385
:100D200080EC90E0909362038093610381EC90E00B
:100D3000909364038093630382EC90E09093660346
:100D40008093650386EC90E090936803809367033B
:100D500010926A0310926B0310926C0310926D0351
:100D6000CBE261E08C2F0E94D302CF5FC333C9F77F
:100D7000C1E0D0E0D0933D04C0933C0489E390E00F
:100D800090933904809338048AE390E090933B0475
:100D900080933A0460E089E30E94D30260E08AE332
:100DA0000E94D30286E390E090932B0480932A0460
:100DB00087E390E090932D0480932C0488E390E0E7
:100DC00090932F0480932E0460E086E30E94D30268
:100DD00060E087E30E94D30260E088E30E94D302D0
:100DE00089E090E09093270480932604D093250413
:100DF000C0932404C6E160E08C2F0E94D302CF5F31
:100E0000C032C9F762E270E086E194E00E944505D5
:100E100063E270E08CE094E00E94450564E270E0DB
:100E200082E094E00E94450565E270E088EF93E07F
:100E30000E94450566E270E08EEE93E0DF91CF916F
:100E40000C944505CF93DF93CDB7DEB72D970FB642
:100E5000F894DEBF0FBECDBF789484B5826084BDA8
:100E600084B5816084BD85B5826085BD85B58160AE
:100E700085BD80916E00816080936E00109281002C
:100E800080918100826080938100809181008160E7
:100E900080938100809180008160809380008091A8
:100EA000B10084608093B1008091B0008160809334
:100EB000B0008091910082608093910080919100B8
:100EC0008160809391008091900081608093900078
:100ED0008091A10082608093A1008091A100816037
:100EE0008093A1008091A00081608093A0008091F8
:100EF0002101826080932101809121018160809392
:100F000021018091200181608093200180917A00ED
:100F1000846080937A0080917A00826080937A0066
:100F200080917A00816080937A0080917A00806855
:100F300080937A001092C100E0916103F091620306
:100F400082E08083E0915D03F0915E031082E09186
:100F50005F03F091600380E1808310926903E09168
:100F60006503F091660386E08083E0916303F0916E
:100F70006403808180618083E0916303F091640366
:100F8000808188608083E0916303F09164038081B5
:100F900080688083E0916303F091640380818F7D9A
:100FA00080832BE22F8361E08F810E94D30260E077
:100FB0008F810E94F1013F813F5F3F83363399F774
:100FC00081E090E090933D0480933C0480E30E9494
:100FD0001F020E9445032B013C01EAE0CE2ED12CDA
:100FE000E12CF12C0E9445036419750986099709C3
:100FF000683E734081059105A8F341E0C41AD10809
:10100000E108F10858EE450E53E0551E611C711CB5
:10101000C114D104E104F10429F788E30E941F02FE
:101020008CE00E941F0281E00E941F0286E00E9465
:101030001F028DE00E941F0280E80E941F0211E043
:1010400059E1452E512C612C712C63E0C62ED12C18
:1010500074E0A72EB12C8091460390914703823013
:10106000910509F4E7C154F4009709F448C08130B0
:10107000910509F497C10E947D04EDCF843091055C
:1010800009F40DC30CF434C285309105A1F7209109
:10109000F7023091F8022530310581F09093F80283
:1010A0008093F7021093F6028CE00E941F0280E802
:1010B0000E941F0286E592E00E9489020E9480053C
:1010C0008091300490913104029759F08091380456
:1010D0000E9428034C0180913A040E9428039E83B9
:1010E0008D8341E050E062E070E0C4010E94AC04F6
:1010F00041E050E069E070E08D819E8198C180916F
:10110000F7029091F802892B21F01092F8021092C8
:10111000F70220913004309131042230310509F476
:1011200059C030933304209332040E946A03209103
:101130003404309135044091360450913704621BD9
:10114000730B840B950B633071058105910538F1A4
:1011500080913A040E942803883C92400CF46EC0AF
:1011600045E050E050933104409330048EE093E02A
:101170000E94630520913204309133048091300441
:10118000909131042817390751F00E946A03609347
:10119000340470933504809336049093370420917F
:1011A000300430913104809124039091250327303D
:1011B000310509F060C0409122035091230347306C
:1011C000510541F0843091050CF44FC01092250375
:1011D0001092240330932303209322030E9480055E
:1011E00080912403909125038230910509F4A0C0D9
:1011F0000CF057C0009709F477C0019709F03BCF76
:101200008091500290915102019729F48091F60249
:10121000882309F430CF81E090E0909351028093CD
:1012200050021092F60270E060E080E192E00E94CD
:10123000B70261E070E080E292E071C080913A0410
:101240000E942803893391404CF467E070E070936A
:1012500031046093300481E193E08ACFD09231046D
:10126000C092300486E193E083CF019690932503EA
:1012700080932403AFCF2530310509F0ABCF4091E7
:101280002203509123034530510509F4A3CF1816CA
:1012900019062CF0B0922503A09224039BCF01974E
:1012A000E5CF8330910509F461C0049709F0E3CEDE
:1012B0008091500290915102049729F48091F60296
:1012C000882309F4D8CEB0925102A0925002109215
:1012D000F60270E060E080E492E00E94B70261E014
:1012E00070E080E092E01BC080915002909151022A
:1012F000892B29F48091F602882309F4BCCE109240
:101300005102109250021092F60270E060E080E00C
:1013100092E00E94B70261E070E080E192E00E94FA
:10132000B7028DE00E941F0280E80E941F02A3CE38
:101330008091500290915102029729F48091F60217
:10134000882309F498CE82E090E090935102809334
:1013500050021092F60270E060E080E292E00E949B
:10136000B70261E070E080E392E0D9CF8091500253
:1013700090915102039729F48091F602882309F491
:101380007ACED0925102C09250021092F60270E0D2
:1013900060E080E392E00E94B70261E070E080E4E8
:1013A00092E0BDCF2091F7023091F8022130310553
:1013B00081F09093F8028093F7021093F6028CE08C
:1013C0000E941F0280E80E941F0286ED92E00E94A8
:1013D00089020E9480058091280490912904029737
:1013E00089F080912A040E9428039A83898380913E
:1013F0002C040E9428039C838B8380912E040E94DE
:1014000028031C0150E040E06AE070E089819A8185
:101410000E94AC0441E050E062E070E08B819C816E
:101420000E94AC0441E050E06AE070E0C1010E941B
:10143000AC0421CE2091F7023091F8022230310520
:1014400081F09093F8028093F7021093F6028CE0FB
:101450000E941F0280E80E941F0286EB92E00E9419
:1014600089020E9480058CE094E00E94FB040197B1
:1014700059F583E80E941F0281E30E94540282E032
:1014800094E00E94FB04019721F58BE80E941F0263
:1014900081E30E94540288EF93E00E94FB040197CD
:1014A000E9F483EC0E941F0281E30E9454028EEE55
:1014B00093E00E94FB040197B1F48BEC0E941F02A1
:1014C00081E30E945402D7CD83E80E941F0280E38B
:1014D000D4CF8BE80E941F0280E3DBCF83EC0E9415
:1014E0001F0280E3E2CF8BEC0E941F0280E3E9CF72
:1014F0008091F7029091F802039781F0D092F80260
:10150000C092F7021093F6028CE00E941F0280E85E
:101510000E941F0286E992E00E94890280913103B5
:1015200081110CC00E946A0360932D0370932E03F7
:1015300080932F0390933003109331030E94800512
:101540008CE094E00E94FB048130910509F05FC0BB
:1015500090932C0380932B030E946A0320912D0308
:1015600030912E0340912F0350913003621B730B77
:10157000840B950B209152023091530240915402FA
:1015800050915502621773078407950708F473CDCD
:101590000E946A0360932D0370932E0380932F03A0
:1015A0009093300380912B0390912C03009709F0C6
:1015B00049C040925202509253026092540270927B
:1015C00055022091290330912A032436310524F154
:1015D0001092280340912803442321F12F5F3F4FAD
:1015E00030932A03209329032091290330912A0361
:1015F000398728872AE030E0488559854217530704
:10160000A4F0880F991F0196265F3F4FF5CF1092E7
:101610002C0310922B03A0CF12161306DCF21093AA
:101620002803D8CF21503109DBCF90932304809336
:1016300022040E94040350E040E06BE070E08885E3
:101640009985F5CE019709F016CD4092520250923D
:101650005302609254027092550280912603909139
:101660002703880F991F91FF18C090932703809339
:10167000260360912603709127037987688770930A
:101680002304609322040E94040350E040E06BE0D6
:1016900070E0888599859370CACE0196E6CF209137
:1016A000F7023091F8022430310581F09093F8026E
:1016B0008093F7021093F6028CE00E941F0280E8EC
:1016C0000E941F0286E792E00E94890280913E03F9
:1016D000811108C00E946A0370933D0360933C032C
:1016E00010933E030E946A03DC01CB0120913C036E
:1016F00030913D03A901330F660B770B841B950BCB
:10170000A60BB70B4497A105B10508F479C00E9458
:101710006A0370933D0360933C0380913A03909178
:101720003B039C01215031092E3F310528F04091A7
:10173000390341274093390340913903442319F178
:10174000019690933B0380933A03809124049091F7
:101750002504029709F44AC060913A0370913B0353
:1017600079876887E0902604F090270461E08E2D49
:101770000E94D30288859985892B51F460E08E2DD3
:101780000E94F10133C030933B0320933A03DDCF35
:10179000288539852F3F310511F461E0F0CFF7013D
:1017A000FF27EA59FD4FE491E150E23108F0D8C03B
:1017B000F0E08827E152F44F8F4F0C94CB0CF10BE3
:1017C000030C090C150C210CB00C2D0C360C3F0C25
:1017D0004B0C570C630C740C800CB00C8C0C980CDC
:1017E000A40C84B5806884BD388537BD50E040E0E6
:1017F0006BE070E080913A0390913B030E94AC044F
:101800000E94800538CC84B5806284BD488548BD7F
:10181000EDCF809180008068809380006885798515
:101820007093890060938800E1CF8091800080628E
:10183000809380008885998590938B0080938A009F
:10184000D5CF80918000886080938000288539857D
:1018500030938D0020938C00C9CF8091B0008068B8
:101860008093B00038853093B300C0CF8091B00032
:1018700080628093B00048854093B400B7CF8091D8
:1018800090008068809390006885798570939900B6
:1018900060939800ABCF809190008062809390001D
:1018A0008885998590939B0080939A009FCF809123
:1018B00090008860809390002885398530939D0042
:1018C00020939C0093CF8091A00080688093A0001B
:1018D0008091A0008F7B8093A0004885598550930C
:1018E000A9004093A80082CF8091A00080628093DD
:1018F000A000688579857093AB006093AA0076CFCD
:101900008091A00088608093A0008885998590933D
:10191000AD008093AC006ACF8091200180688093F5
:1019200020012885398530932901209328015ECF35
:1019300080912001806280932001488559855093D1
:101940002B0140932A0152CF80912001886080931F
:1019500020016885798570932D0160932C0146CF15
:1019600088859985803891050CF017CF07CF97FBB4
:10197000072E16F4009407D077FD09D00E94D30CEF
:1019800007FC05D03EF4909581959F4F0895709582
:1019900061957F4F0895EE0FFF1F881F8BBF079043
:1019A000F691E02D1994AA1BBB1B51E107C0AA1F99
:1019B000BB1FA617B70710F0A61BB70B881F991FF0
:1019C0005A95A9F780959095BC01CD010895F8949A
:0219D000FFCF47
:1019D20031202D20416363656C20202020202000CF
:1019E20032202D20426F7574746F6E2020202000EB
:1019F20033202D2042617267726170686520200079
:101A020034202D204D6F7465757220202020200017
:101A120035202D204A6F79737469636B2020200072
:101A2200FFFF320000004A6F79737469636B2020F4
:101A3200202020202000583A2020202020593A201F
:101A42002020202020004D6F7465757220202020F8
:101A520020202020200020202020202020202020A4
:101A62002020202020004261726772617068652028
:101A72002020202020002020202020202020202084
:101A820020202020200042323A20202020204233F1
:101A92003A202020200042343A20202020204235C3
:101AA2003A2020202000416363656C202020583AB0
:101AB200202020202000593A2020202020205A3A9D
:101AC20020202020200001FFFF000000000C0476EF
:101AD20003A3035904D403B203C6030D0A005550ED
:0E1AE20000444F574E004D4944444C4500000F
:00000001FF
