:100000000C9457010C9488010C9488010C9488017D
:100010000C9488010C9488010C9488010C9488013C
:100020000C9488010C9488010C9488010C9488012C
:100030000C9488010C9488010C9488010C9488011C
:100040000C9488010C9488010C9488010C9488010C
:100050000C9488010C9488010C9488010C94CA05B6
:100060000C9488010C943E060C9414060C948801A0
:100070000C9488010C9488010C9488010C948801DC
:100080000C9488010C9488010C9488010C948801CC
:100090000C9488010C9488010C9488010C948801BC
:1000A0000C9488010C9488010C9488010C948801AC
:1000B0000C9488010C9488010C9488010C9488019C
:1000C0000C9488010C9488010C9488010C9488018C
:1000D0000C9488010C9488010C9488010C9488017C
:1000E0000C9488010C94E9010C944D040C94AE011D
:1000F0000C94D1010C94BA010C94DB010C94B7035D
:100100000C94F3030C94E8010C94E40B0C94750B21
:100110000C94A8010C94C7010C94B2010C94630BCD
:100120000C94DF010C949A040C94DA0B0C94C10B20
:100130000C94EE0B0C94B6010C94020C0C94A30BD3
:100140000C9415040C94E3010C94B70B0C94AD0BB8
:100150000C94700B0C94D5010C94F80B0C940704C0
:100160000C949B0B0C94E4030C947F0B0C94930B5A
:100170000C94C3010C94CD010C94D00B0C94890BFE
:100180000C9490060C94ED010C94BD01000020002D
:100190002300260029002C002F003200000100005F
:1001A00003010601090100002100240027002A00A4
:1001B0002D003000330001010000040107010A0195
:1001C00000002200250028002B002E003100340002
:1001D00002010000050108010B01050505050705E1
:1001E00008080808020202020A0A080804040404B3
:1001F00001010101010101010303030303030303DF
:10020000040707070C0C0C0C0C0C0C0C020202026D
:1002100006060606060606060B0B0B0B0B0B0B0B56
:100220000102102020080810204010204080020108
:1002300002010804020101020408102040808040ED
:1002400020100804020180040201804020100804EC
:10025000020108040201010204081020408001028A
:1002600004081020408000000A0B02090C0D0E0843
:10027000070304010000000000000000000000006F
:10028000000000000000000000000000000000006E
:10029000000012111000000000000000000000002B
:1002A0000000000000000000000000009006112483
:1002B0001FBECFEFD1E2DEBFCDBF00E00CBF24E018
:1002C000AAE0B3E001C01D92A831B207E1F713E044
:1002D000A0E0B2E0E4E7F8E100E00BBF02C0079065
:1002E0000D92AA30B107D9F711E0C7E5D1E000E0DF
:1002F00006C021970109802FFE010E941C0CC63503
:10030000D10780E00807A9F70E9446070C94380C33
:100310000C9400008150823108F05AC0E82FF0E0C0
:100320008827EA56FE4F8F4F0C941C0CB601BA0179
:10033000A801AE01B201E801BD01C301C701CD01B1
:10034000D101D501DB01DF01E801E301E901ED01A4
:10035000809180008F778093800008958091800045
:100360008F7DF9CF80918000877FF5CF84B58F771F
:1003700084BD089584B58F7DFBCF8091B0008F77C9
:100380008093B00008958091B0008F7DF9CF809167
:1003900090008F77809390000895809190008F7DDA
:1003A000F9CF80919000877FF5CF8091A0008F7763
:1003B0008093A00008958091A0008F7DF9CF809157
:1003C000A000877FF5CF809120018F778093200157
:1003D0000895809120018F7DF9CF80912001877F42
:1003E000F5CF1F93CF93DF93282F30E0F901EA591F
:1003F000FD4F8491F901E05EFD4FD491F901E65281
:10040000FE4FC491CC23A9F0162F81110E948A01BE
:10041000EC2FF0E0EE0FFF1FE054FE4FA591B491DA
:100420008FB7F894EC91111108C0D095DE23DC93BE
:100430008FBFDF91CF911F910895DE2BF8CFEF9200
:10044000FF920F931F93CF93CBE201E010E0E82ED1
:10045000880FFF08C7018023912361E0892B09F4ED
:1004600060E08C2F0E94F101000F111FCF5FC3339A
:1004700089F760E083E30E94F10160E084E30E9479
:10048000F10161E085E30E94F1018BE99FE00197B2
:10049000F1F760E085E30E94F10181E0CF911F91C7
:1004A0000F91FF90EF900895EF92FF920F931F939B
:1004B000CF93CBE201E010E0E82E880FFF08C701E0
:1004C0008023912361E0892B09F460E08C2F0E9446
:1004D000F101000F111FCF5FC33389F761E083E3A0
:1004E0000E94F10160E084E30E94F10161E085E394
:1004F0000E94F1018BE99FE00197F1F760E085E34D
:100500000E94F10181E0CF911F910F91FF90EF9038
:100510000895EF92FF920F931F93CF93DF93EC0117
:1005200080E80E941F027E018FE0E80EF11C8E0120
:10053000F80181918F010E945402E016F106C1F783
:1005400080EC0E941F028E01005F1F4F6F96F80122
:1005500081918F010E945402C017D107C1F781E039
:10056000DF91CF911F910F91FF90EF9008950F931E
:100570001F93CF93DF938C01862F8295880F880F6E
:10058000807C80580E941F02E801015F1F4F899103
:100590000E945402C017D107D1F781E0DF91CF91BB
:1005A0001F910F910895CF93DF9390E0FC01E05EDF
:1005B000FD4F249186529E4FFC0184918823D1F0F7
:1005C00090E0880F991FFC01EA55FE4FA591B49168
:1005D000FC01E054FE4FC591D49161110EC09FB74C
:1005E000F8948C91E22FE0958E238C932881E2235E
:1005F000E8839FBFDF91CF9108958FB7F894EC9176
:10060000E22BEC938FBFF6CF0F931F93CF93C6E1EE
:1006100001E010E08091FE039091FF03802391237D
:10062000892B69F060E08C2F0E94D302000F111F0C
:10063000CF5FC03279F7CF911F910F91089561E09C
:100640008C2F0E94D30260E08C2F0E94F101EECF2C
:10065000863308F0865320917B00982F9870277F6F
:10066000922B90937B008770806480937C008091B4
:100670007A00806480937A0080917A0086FDFCCFB6
:10068000809178009091790008953FB7F894809117
:10069000330390913403A0913503B091360326B50E
:1006A000A89B05C02F3F19F00196A11DB11D3FBFAA
:1006B000BA2FA92F982F8827BC01CD01620F711D79
:1006C000811D911D42E0660F771F881F991F4A9573
:1006D000D1F708952FB7F89460912F0370913003EC
:1006E00080913103909132032FBF08950F931F9390
:1006F00080910C0490910D048230910541F190930A
:100700000F0480930E040E946A030091100410915C
:100710001104012E000C220B330B601B710B820B9A
:10072000930B653071058105910568F08091120485
:100730000E942803843692406CF085E090E090930C
:100740000D0480930C0480910C0490910D041F9172
:100750000F910895809112040E9428038D399140D1
:100760001CF487E090E0EBCF83E090E0E8CFAF921D
:10077000BF92CF92DF92EF92FF920F931F93CF938E
:10078000DF936C017B018B01040F151FEB015E01F0
:10079000AE18BF08C017D10759F06991D601ED9185
:1007A000FC910190F081E02DC6011995892B79F714
:1007B000C501DF91CF911F910F91FF90EF90DF90D6
:1007C000CF90BF90AF900895FC01538D448D252F9D
:1007D00030E0842F90E0821B930B541710F0CF96DB
:1007E000089501970895FC01918D828D981761F00D
:1007F000A28DAE0FBF2FB11D5D968C91928D9F5F24
:100800009F73928F90E008958FEF9FEF0895FC0102
:10081000918D828D981731F0828DE80FF11D858DB5
:1008200090E008958FEF9FEF0895FC01918D228D48
:10083000892F90E0805C9F4F821B91098F739927CD
:10084000089587E393E00E94150421E0892B09F4C1
:1008500020E0822F0895FC01A48DA80FB92FB11DAF
:10086000A35ABF4F2C91848D90E001968F739927E6
:10087000848FA689B7892C93A089B1898C918370C4
:1008800080648C93938D848D981306C00288F389BD
:10089000E02D80818F7D80830895EF92FF920F93EA
:1008A0001F93CF93DF93EC0181E0888F9B8D8C8D1C
:1008B00098131AC0E889F989808185FF15C09FB710
:1008C000F894EE89FF896083E889F98980818370D3
:1008D000806480839FBF81E090E0DF91CF911F9182
:1008E0000F91FF90EF900895F62E0B8D10E00F5FA3
:1008F0001F4F0F731127E02E8C8D8E110CC00FB679
:1009000007FCFACFE889F989808185FFF5CFCE0110
:100910000E942B04F1CFEB8DEC0FFD2FF11DE35A5C
:10092000FF4FF0829FB7F8940B8FEA89FB89808193
:100930008062CFCFCF93DF93EC01888D8823B9F00D
:10094000AA89BB89E889F9898C9185FD03C08081DA
:1009500086FD0DC00FB607FCF7CF8C9185FFF2CF57
:10096000808185FFEDCFCE010E942B04E9CFDF917E
:10097000CF91089581E080930D0308950E94210492
:10098000882319F081E080930D0380E090E0892BAB
:1009900049F080E090E0892B29F00E94000081114D
:1009A0000E94000080E090E0892B49F080E090E018
:1009B000892B29F00E94000081110E94000080E034
:1009C00090E0892B49F080E090E0892B29F00E948B
:1009D000000081110C94000008958F929F92AF92B5
:1009E000BF92CF92DF92EF92FF920F931F93CF931C
:1009F0006C01C42FC295CC0FCC0FC07CC60FC05861
:100A000008EE13E0B12CA12C8AE0882E912CC601AF
:100A1000F12CE12C8017910734F0801B910B2FEF04
:100A2000E21AF20AF7CFE09EC001E19E900DF09E1F
:100A3000900D1124C81AD90A8C2F0E941F0280E33E
:100A40008E0D0E9454028FEFA81AB80AC801B40193
:100A50000E94080C8B01CF5F24E0A216B104B9F606
:100A6000CF911F910F91FF90EF90DF90CF90BF90AB
:100A7000AF909F908F9008950F931F93CF93DF9324
:100A8000FC01208131812530310509F43BC0EC01A6
:100A9000338322830E946A030C811D81012E000C86
:100AA000220B330B601B710B820B930B65307105AE
:100AB0008105910528F12E813F813327F901EA59FB
:100AC000FD4F8491F901E05EFD4F0491F901E6527A
:100AD000FE4F1491112381F081110E948A01E12FB0
:100AE000F0E0EE0FFF1FE457FE4FA591B491EC919B
:100AF0000E2381E090E011F482E090E099838883F6
:100B000028813981C901DF91CF911F910F910895FB
:100B1000CF9384EF93E00E943C058130910531F53D
:100B200020910B0330910C0322303105F9F490939E
:100B30000C0380930B0380912C0390912D03892B40
:100B4000F9F08091000490910104029751F0C09156
:100B5000020461E08C2F0E94D30260E08C2F0E947F
:100B6000F10110922D0310922C0308C084EF93E042
:100B70000E943C0590930C0380930B03CF91089542
:100B80008091100390911103019690932D0380930F
:100B90002C03F4CF1F920F920FB60F9211242F93B4
:100BA0003F938F939F93AF93BF9380912F03909127
:100BB0003003A0913103B091320330912E0323E032
:100BC000230F2D3758F50196A11DB11D20932E033B
:100BD00080932F0390933003A0933103B09332039B
:100BE0008091330390913403A0913503B091360383
:100BF0000196A11DB11D8093330390933403A093FC
:100C00003503B0933603BF91AF919F918F913F9180
:100C10002F910F900FBE0F901F90189526E8230F6D
:100C20000296A11DB11DD2CF1F920F920FB60F9247
:100C300011240BB60F922F933F934F935F936F93B3
:100C40007F938F939F93AF93BF93EF93FF9387E32C
:100C500093E00E942B04FF91EF91BF91AF919F9180
:100C60008F917F916F915F914F913F912F910F9055
:100C70000BBE0F900FBE0F901F9018951F920F92F2
:100C80000FB60F9211240BB60F922F938F939F9351
:100C9000EF93FF93E0914703F09148038081E09147
:100CA0004D03F0914E0382FD1DC090818091500351
:100CB0008F5F8F7320915103821741F0E0915003B1
:100CC000F0E0E95CFC4F958F80935003FF91EF912A
:100CD0009F918F912F910F900BBE0F900FBE0F9091
:100CE0001F9018958081F2CF0F931F93CF93DF93BE
:100CF000EC01162F072F60E0812F0E94D3021E8384
:100D00000F830E946A037D836C8384E090E0998363
:100D100088839B838A83DF91CF911F910F910895E0
:100D2000CF93DF9310923A031092390388EE93E049
:100D3000A0E0B0E080933B0390933C03A0933D037D
:100D4000B0933E038BEF92E0909338038093370388
:100D500085EC90E0909344038093430384EC90E00F
:100D6000909346038093450380EC90E09093480372
:100D70008093470381EC90E090934A03809349036A
:100D800082EC90E090934C0380934B0386EC90E0D0
:100D900090934E0380934D03109250031092510391
:100DA0001092520310925303CBE261E08C2F0E9409
:100DB000D302CF5FC333C9F7C1E0D0E0D0931704AB
:100DC000C093160489E390E0909313048093120477
:100DD0008AE390E0909315048093140460E089E323
:100DE0000E94D30260E08AE30E94D30286E390E08F
:100DF000909307048093060487E390E0909309049E
:100E00008093080488E390E090930B0480930A0495
:100E100060E086E30E94D30260E087E30E94D30291
:100E200060E088E30E94D30289E090E0909303049D
:100E300080930204D0930104C0930004C6E160E0F3
:100E40008C2F0E94D302CF5FC032C9F762E270E0FC
:100E500084EF93E00E94740663E270E08CEE93E00E
:100E60000E94740664E270E084EE93E00E947406CF
:100E700065E270E08CED93E00E94740666E270E03B
:100E800084ED93E0DF91CF910C947406CF93DF93C0
:100E900000D0CDB7DEB7789484B5826084BD84B5C8
:100EA000816084BD85B5826085BD85B5816085BD65
:100EB00080916E00816080936E001092810080911D
:100EC00081008260809381008091810081608093A5
:100ED0008100809180008160809380008091B100CA
:100EE00084608093B1008091B00081608093B000F5
:100EF0008091910082608093910080919100816047
:100F00008093910080919000816080939000809107
:100F1000A10082608093A1008091A10081608093F4
:100F2000A1008091A00081608093A00080912101A8
:100F30008260809321018091210181608093210151
:100F40008091200181608093200180917A008460EB
:100F500080937A0080917A00826080937A008091F9
:100F60007A00816080937A0080917A008068809313
:100F70007A001092C100E0914703F091480382E0AB
:100F80008083E0914303F09144031082E091450394
:100F9000F09146038FEC808310924F03E0914B0356
:100FA000F0914C0386E08083E0914903F0914A037D
:100FB000808180618083E0914903F0914A038081C0
:100FC00088608083E0914903F0914A0380818068C2
:100FD0008083E0914903F0914A0380818F7D808373
:100FE0002BE22B8361E08B810E94D30260E08B8136
:100FF0000E94F1018B818F5F8B83863399F781E0AB
:1010000090E0909317048093160480E30E941F02DF
:101010000E9445032B013C014AE0C42ED12CE12C57
:10102000F12C0E9445036419750986099709683EE9
:10103000734081059105A8F391E0C91AD108E10830
:10104000F10828EE420E23E0521E611C711CC114EF
:10105000D104E104F10429F788E30E941F028CE027
:101060000E941F0281E00E941F0286E00E941F0270
:101070008DE00E941F0280E80E941F027724739473
:1010800034E0432E512C80912C0390912D0382301B
:10109000910509F49EC154F4009709F446C08130CB
:1010A000910509F450C10E94BE04EDCF8430910532
:1010B00009F468C20CF4EBC185309105A1F72091C9
:1010C000F5023091F6022530310581F09093F60259
:1010D0008093F5027092F4028CE00E941F0280E877
:1010E0000E941F0284E592E00E9489020E94880506
:1010F00080910C0490910D04029751F0809112049C
:101100000E9428038C01809114040E9428035C0132
:1011100041E050E062E070E0C8010E94ED0441E06F
:1011200050E069E070E0C50151C18091F5029091F5
:10113000F602892B21F01092F6021092F5020E941D
:101140007603079749F480910E0390910F03833043
:10115000910579F0059769F00E9476038530910535
:1011600009F44EC00E94760390930F0380930E0300
:1011700011C087E090E090930F0380930E0380915D
:1011800010039091110384309105A4F11092110382
:10119000109210030E948805809110039091110312
:1011A0008230910509F493C00CF04AC0009709F40D
:1011B0006AC0019709F077CF809150029091510257
:1011C000019729F48091F402882309F46CCF81E01F
:1011D00090E090935102809350021092F40270E0DC
:1011E00060E080E192E00E94B70261E070E080E29E
:1011F00092E064C001969093110380931003CACFCC
:1012000020910E0330910F032B7F2330310509F01D
:10121000A9CF209110033091110390930F03809375
:101220000E03121613062CF0509211034092100375
:10123000B1CF215031093093110320931003AACF6D
:101240008330910509F461C0049709F02CCF809197
:10125000500290915102049729F48091F40288235E
:1012600009F421CF50925102409250021092F402A0
:1012700070E060E080E492E00E94B70261E070E01C
:1012800080E092E01BC08091500290915102892B26
:1012900029F48091F402882309F405CF10925102B9
:1012A000109250021092F40270E060E080E092E050
:1012B0000E94B70261E070E080E192E00E94B70214
:1012C0008DE00E941F0280E80E941F02ECCE8091F8
:1012D000500290915102029729F48091F4028823E0
:1012E00009F4E1CE82E090E09093510280935002A5
:1012F0001092F40270E060E080E292E00E94B70297
:1013000061E070E080E392E0D9CF8091500290914B
:101310005102039729F48091F402882309F4C3CE83
:1013200083E090E090935102809350021092F40277
:1013300070E060E080E392E00E94B70261E070E05C
:1013400080E492E0BBCF2091F5023091F60221308B
:10135000310581F09093F6028093F5027092F402C9
:101360008CE00E941F0280E80E941F0284ED92E040
:101370000E9489020E9488058091040490910504CE
:10138000029781F0809106040E9428031C0180913D
:1013900008040E9428034C0180910A040E9428033B
:1013A0009A83898350E040E06AE070E0C1010E94C6
:1013B000ED0441E050E062E070E0C4010E94ED0401
:1013C00041E050E06AE070E089819A810E94ED047A
:1013D0006ACE2091F5023091F6022230310581F07B
:1013E0009093F6028093F5027092F4028CE00E94D2
:1013F0001F0280E80E941F0284EB92E00E94890293
:101400000E9488058CEE93E00E943C05019759F5F7
:1014100083E80E941F0281E30E94540284EE93E05D
:101420000E943C05019721F58BE80E941F0281E391
:101430000E9454028CED93E00E943C050197E9F470
:1014400083EC0E941F0281E30E94540284ED93E02A
:101450000E943C050197B1F48BEC0E941F0281E3CE
:101460000E94540220CE83E80E941F0280E3D4CF62
:101470008BE80E941F0280E3DBCF83EC0E941F02F7
:1014800080E3E2CF8BEC0E941F0280E3E9CF8091E2
:10149000F5029091F602039791F083E090E090932B
:1014A000F6028093F5027092F4028CE00E941F0213
:1014B00080E80E941F0284E992E00E9489028091E4
:1014C0001703811108C00E946A037093160360938A
:1014D0001503709217030E9488050E946A032091E9
:1014E0001503309116036901330FEE08FF08AB01B5
:1014F000BC014C195D096E097F09809152029091DF
:101500005302092E000CAA0BBB0B481759076A0798
:101510007B0708F4C8CD0E946A037093160360939A
:10152000150384EF91E090935302809352028091CF
:10153000120390911303880F991F909313038093C4
:1015400012039C012F7233272230310514F470925C
:10155000140320911403222329F00196909313037E
:1015600080931203E0901203F0901303F092FF03B4
:10157000E092FE030E94040350E040E06BE070E064
:10158000C70124CF2091F5023091F60224303105B5
:1015900081F09093F6028093F5027092F4028CE051
:1015A0000E941F0280E80E941F0284E792E00E94CE
:1015B000890280912403811108C00E946A037093FC
:1015C000230360932203709224030E9488050E94E3
:1015D0006A0320912203309123036901330FEE083F
:1015E000FF08AB01BC014C195D096E097F0944314C
:1015F00051056105710508F456CD0E946A03709388
:1016000023036093220380912003909121039C0186
:10161000215031092E3F310528F040911F03472505
:1016200040931F0340911F03442301F101969093BF
:10163000210380932003809100049091010402977C
:1016400009F445C0E0902003F0902103C09002040B
:10165000D090030461E08C2D0E94D302E114F104C8
:1016600051F460E08C2D0E94F10131C030932103D0
:1016700020932003E0CF9FEFE916F10411F461E01D
:10168000F1CFF601FF27EA59FD4FE491E150E23135
:1016900008F0B8C0F0E08827EF5AF44F8F4F0C9451
:1016A0001C0C630B700B750B7F0B890B020C930BDF
:1016B0009B0BA30BAD0BB70BC10BD00BDA0B020CC2
:1016C000E40BEE0BF80B84B5806884BDE7BC50E0FA
:1016D00040E06BE070E0809120039091210376CE92
:1016E00084B5806284BDE8BCF2CF809180008068C0
:1016F00080938000F0928900E0928800E8CF80918A
:101700008000806280938000F0928B00E0928A00DB
:10171000DECF80918000886080938000F0928D0001
:10172000E0928C00D4CF8091B00080688093B000AC
:10173000E092B300CCCF8091B00080628093B00083
:10174000E092B400C4CF80919000806880939000B4
:10175000F0929900E0929800BACF80919000806258
:1017600080939000F0929B00E0929A00B0CF80911D
:101770009000886080939000F0929D00E0929C0021
:10178000A6CF8091A00080688093A0008091A000E7
:101790008F7B8093A000F092A900E092A80097CFE1
:1017A0008091A00080628093A000F092AB00E09254
:1017B000AA008DCF8091A00088608093A000F09255
:1017C000AD00E092AC0083CF8091200180688093CF
:1017D0002001F0922901E092280179CF8091200127
:1017E000806280932001F0922B01E0922A016FCF5A
:1017F00080912001886080932001F0922D01E09279
:101800002C0165CF20E8E216F1040CF038CF29CF87
:1018100097FB072E16F4009407D077FD09D00E949D
:10182000240C07FC05D03EF4909581959F4F0895B8
:10183000709561957F4F0895EE0FFF1F881F8BBF36
:101840000790F691E02D1994AA1BBB1B51E107C02C
:10185000AA1FBB1FA617B70710F0A61BB70B881F40
:10186000991F5A95A9F780959095BC01CD010895CF
:04187000F894FFCF1A
:1018740031202D20416363656C202020202020002E
:1018840032202D20426F7574746F6E20202020004A
:1018940033202D20426172677261706865202000D8
:1018A40034202D204D6F7465757220202020200077
:1018B40035202D204A6F79737469636B20202000D2
:1018C400FFFF14004A6F79737469636B2020202032
:1018D40020202000583A2020202020593A2020207F
:1018E400202020004D6F7465757220202020202058
:1018F4002020200020202020202020202020202004
:101904002020200042617267726170686520202087
:1019140020202000202020202020202020202020E3
:101924002020200042323A202020202042333A2036
:101934002020200042343A202020202042353A2022
:1019440020202000416363656C202020583A202029
:1019540020202000593A2020202020205A3A2020FC
:101964002020200001FFFF000000004D04B703E425
:0A197400039A041504F303070400AE
:00000001FF
