:100000000C947B010C94AC010C94AC010C94AC01ED
:100010000C94AC010C94AC010C94AC010C94AC01AC
:100020000C94AC010C94AC010C94AC010C94AC019C
:100030000C94AC010C94AC010C94AC010C94AC018C
:100040000C94AC010C94AC010C94AC010C94AC017C
:100050000C94AC010C94AC010C94AC010C94760F94
:100060000C94AC010C94EA0F0C94C00F0C94AC01EE
:100070000C94AC010C94AC010C94AC010C94AC014C
:100080000C94AC010C94AC010C94AC010C94AC013C
:100090000C94AC010C94AC010C94AC010C94AC012C
:1000A0000C94AC010C94AC010C94AC010C94AC011C
:1000B0000C94AC010C94AC010C94AC010C94AC010C
:1000C0000C94AC010C94AC010C94AC010C94AC01FC
:1000D0000C94AC010C94AC010C94AC010C94AC01EC
:1000E0000C94AC010C9410170C948D160C94D60142
:1000F0000C9420100C94A9160C9411020C949A03E1
:100100000C94F1010C94CF160C9497160C94F216E3
:100110000C94F8030C94FC160C94F9010C94FF0158
:100120000C9483160C940C020C94E7010C94EA03D3
:100130000C9430040C94DE160C940D020C94B11641
:100140000C9406170C94F5010C94C5160C94CC0174
:100150000C94E1010C9403020C94C7030C94EB0182
:100160000C94BB160C946D160C94D2010C94D6030F
:100170000C94E8160C947D040C94A1160C947E1635
:100180000C94DE010C94DA010C94070200002000AC
:100190002300260029002C002F003200000100005F
:1001A000030106010901CDCCCC3D0AD7233C17B78A
:1001B000D13877CC2B329595E6241FB14F0A000039
:1001C000803FCDCCCC3D6F12833A95BFD6337D1D99
:1001D0009026B3CE010C000020410000C842004030
:1001E0001C4620BCBE4CCA1B0E5AAEC59D740000F6
:1001F0002100240027002A002D00300033000101D7
:100200000000040107010A01000022002500280067
:100210002B002E003100340002010000050108010E
:100220000B0105050505070508080808020202027A
:100230000A0A080804040404010101010101010182
:100240000303030303030303040707070C0C0C0C4D
:100250000C0C0C0C02020202060606060606060636
:100260000B0B0B0B0B0B0B0B0102102020080810C3
:100270002040102040800201020108040201010216
:1002800004081020408080402010080402018004EF
:10029000020180402010080402010804020101024A
:1002A0000408102040800102040810204080000053
:1002B0000A0B02090C0D0E080703040100000000E0
:1002C000000000000000000000000000000000002E
:1002D00000000000000000000000121110000000EB
:1002E000000000000000000000000000000000000E
:1002F00000000000201011241FBECFEFD1E2DEBFAE
:10030000CDBF00E00CBF13E0A0E0B2E0E8E2F6E30E
:1003100000E00BBF02C007900D92AE3BB107D9F7CA
:1003200028E0AEEBB3E001C01D92AA3EB207E1F7B0
:1003300011E0CBE7D1E000E006C021970109802F52
:10034000FE010E94E019CA37D10780E00807A9F72B
:100350000E941D110C94121B0C94000081508231DC
:1003600008F05AC0E82FF0E08827E654FE4F8F4F80
:100370000C94E019DA01DE01CC01D201D6010C02A5
:10038000E101E701EB01F101F501F901FF010302D0
:100390000C0207020D021102809180008F7780937A
:1003A00080000895809180008F7DF9CF809180003A
:1003B000877FF5CF84B58F7784BD089584B58F7D11
:1003C000FBCF8091B0008F778093B000089580912B
:1003D000B0008F7DF9CF809190008F77809390004F
:1003E0000895809190008F7DF9CF80919000877F54
:1003F000F5CF8091A0008F778093A0000895809121
:10040000A0008F7DF9CF8091A000877FF5CF8091EC
:1004100020018F77809320010895809120018F7DA6
:10042000F9CF80912001877FF5CF1F93CF93DF9382
:10043000282F30E0F901E255FD4F8491F901E85988
:10044000FD4FD491F901EE5DFD4FC491CC23A9F08D
:10045000162F81110E94AE01EC2FF0E0EE0FFF1F6E
:10046000E85FFD4FA591B4918FB7F894EC9111110D
:1004700008C0D095DE23DC938FBFDF91CF911F9111
:100480000895DE2BF8CFEF92FF920F931F93CF9337
:10049000CBE201E010E0E82E880FFF08C7018023BF
:1004A000912361E0892B09F460E08C2F0E941502F2
:1004B000000F111FCF5FC33389F760E083E30E9411
:1004C000150260E084E30E94150261E085E30E946A
:1004D00015028BE99FE00197F1F760E085E30E9448
:1004E000150281E0CF911F910F91FF90EF90089539
:1004F000EF92FF920F931F93CF93CBE201E010E0B6
:10050000E82E880FFF08C7018023912361E0892B23
:1005100009F460E08C2F0E941502000F111FCF5FBD
:10052000C33389F761E083E30E94150260E084E34E
:100530000E94150261E085E30E9415028BE99FE0AD
:100540000197F1F760E085E30E94150281E0CF9109
:100550001F910F91FF90EF900895EF92FF920F93EC
:100560001F93CF93DF93EC0180E80E9443027E014A
:100570008FE0E80EF11C8E01F80181918F010E943D
:100580007802E016F106C1F780EC0E9443028E016A
:10059000005F1F4F6F96F80181918F010E947802D2
:1005A000C017D107C1F781E0DF91CF911F910F9163
:1005B000FF90EF9008950F931F93CF93DF938C01DB
:1005C000862F8295880F880F807C80580E94430276
:1005D000E801015F1F4F89910E947802C017D1077F
:1005E000D1F781E0DF91CF911F910F910895CF93C3
:1005F000DF9390E0FC01E859FD4F24918E5D9D4F03
:10060000FC0184918823D1F090E0880F991FFC01B0
:10061000E251FE4FA591B491FC01E85FFD4FC591F9
:10062000D49161110EC09FB7F8948C91E22FE095A0
:100630008E238C932881E223E8839FBFDF91CF91A3
:1006400008958FB7F894EC91E22BEC938FBFF6CF1F
:100650000F931F93CF93C6E101E010E08091CE0885
:100660009091CF0880239123892B69F060E08C2F33
:100670000E94F702000F111FCF5FC03279F7CF91B0
:100680001F910F91089561E08C2F0E94F70260E0A6
:100690008C2F0E941502EECF863308F086532091EE
:1006A0007B00982F9870277F922B90937B00877008
:1006B000806480937C0080917A00806480937A00CB
:1006C00080917A0086FDFCCF80917800909179002E
:1006D00008953FB7F8948091ED039091EE03A091B7
:1006E000EF03B091F00326B5A89B05C02F3F19F08A
:1006F0000196A11DB11D3FBFBA2FA92F982F8827A2
:10070000BC01CD01620F711D811D911D42E0660F7C
:10071000771F881F991F4A95D1F708952FB7F8942E
:100720006091E9037091EA038091EB039091EC03EF
:100730002FBF0895AF92BF92CF92DF92EF92FF92B8
:100740000F931F93CF93DF936C017B018B01040FF9
:10075000151FEB015E01AE18BF08C017D10759F095
:100760006991D601ED91FC910190F081E02DC601D7
:100770001995892B79F7C501DF91CF911F910F91C1
:10078000FF90EF90DF90CF90BF90AF900895FC0165
:10079000538D448D252F30E0842F90E0821B930BE6
:1007A000541710F0CF96089501970895FC01918D8C
:1007B000828D981761F0A28DAE0FBF2FB11D5D968F
:1007C0008C91928D9F5F9F73928F90E008958FEF31
:1007D0009FEF0895FC01918D828D981731F0828DE5
:1007E000E80FF11D858D90E008958FEF9FEF08953C
:1007F000FC01918D228D892F90E0805C9F4F821BA0
:1008000091098F739927089581EF93E00E94F8036F
:1008100021E0892B09F420E0822F0895FC01A48DAA
:10082000A80FB92FB11DA35ABF4F2C91848D90E012
:1008300001968F739927848FA689B7892C93A089F5
:10084000B1898C91837080648C93938D848D98137F
:1008500006C00288F389E02D80818F7D8083089512
:10086000EF92FF920F931F93CF93DF93EC0181E000
:10087000888F9B8D8C8D98131AC0E889F9898081A7
:1008800085FF15C09FB7F894EE89FF896083E889DA
:10089000F98980818370806480839FBF81E090E0CC
:1008A000DF91CF911F910F91FF90EF900895F62E59
:1008B0000B8D10E00F5F1F4F0F731127E02E8C8DF3
:1008C0008E110CC00FB607FCFACFE889F989808138
:1008D00085FFF5CFCE010E940E04F1CFEB8DEC0F1A
:1008E000FD2FF11DE35AFF4FF0829FB7F8940B8F55
:1008F000EA89FB8980818062CFCFCF93DF93EC01BF
:10090000888D8823B9F0AA89BB89E889F9898C91F7
:1009100085FD03C0808186FD0DC00FB607FCF7CFB3
:100920008C9185FFF2CF808185FFEDCFCE010E94B3
:100930000E04E9CFDF91CF91089581E0809399086B
:1009400008950E940404882319F081E08093990897
:1009500080E090E0892B49F080E090E0892B29F03D
:100960000E94000081110E94000080E090E0892B2D
:1009700049F080E090E0892B29F00E94000081116D
:100980000E94000080E090E0892B49F080E090E038
:10099000892B29F00E94000081110C940000089519
:1009A0008F929F92AF92BF92CF92DF92EF92FF927F
:1009B0000F931F93CF936C01C42FC295CC0FCC0F14
:1009C000C07CC60FC05808EE13E0B12CA12C8AE001
:1009D000882E912CC601F12CE12C8017910734F060
:1009E000801B910B2FEFE21AF20AF7CFE09EC001B5
:1009F000E19E900DF09E900D1124C81AD90A8C2FFB
:100A00000E94430280E38E0D0E9478028FEFA81AA5
:100A1000B80AC801B4010E94CC198B01CF5F24E051
:100A2000A216B104B9F6CF911F910F91FF90EF90EC
:100A3000DF90CF90BF90AF909F908F9008950895D2
:100A4000CF93DF93EC0188819981DC01ED91FC91DA
:100A50000190F081E02D19952A813B81820F931F2F
:100A60009B838A83DF91CF910895CF93DF93EC012D
:100A700088819981DC01ED91FC910280F381E02D68
:100A800019952A813B81820F931F9B838A83DF9173
:100A9000CF9108958F929F92AF92BF92CF92DF92A3
:100AA000EF92FF920F931F93CF93DF93CDB7DEB7F3
:100AB00066970FB6F894DEBF0FBECDBF6C018E01F6
:100AC000095E1F4F78018AE0882E912CA12CB12C51
:100AD000CB01BA01A50194010E948719942F852F9B
:100AE000605DF80162938F01A901692F782F41158C
:100AF00051056105710561F7A7014E1B5F0BBF0131
:100B0000C6010E94350566960FB6F894DEBF0FBE8B
:100B1000CDBFDF91CF911F910F91FF90EF90DF90AC
:100B2000CF90BF90AF909F908F90089580339CF0AE
:100B30008A3324F08F3524F08B3724F481E0089534
:100B400081344CF08B35D4F393ED980F81E09230E3
:100B5000B0F380E008958B32B9F7F0CFCF92DF92F7
:100B6000EF92FF920F931F93CF93DF93EC018C854D
:100B7000811130C009851A850E948E03D80118960C
:100B80006D937D938D939C931B97D801ED91FC9170
:100B90000284F385E02DC801199597FF25C00E94B6
:100BA0008E03F801C084D184E284F3846C197D093A
:100BB0008E099F09C480D580E680F7806C157D057D
:100BC0008E059F0510F38FEF9FEF97FD80E08B87D9
:100BD00081E08C878B85DF91CF911F910F91FF90E2
:100BE000EF90DF90CF9008959927EFCF1F93CF9389
:100BF000DF93EC01162F0E94AE05811306C01C8600
:100C000081E0DF91CF911F91089580E0FACFCF93DB
:100C1000DF93EC01CE010E94AE058B303CF48930AD
:100C20004CF4882349F081E0888710C08D3011F0A2
:100C30008032C9F71C86EECF888581110AC081E019
:100C400090E0C15BDF4F9983888380E0DF91CF9193
:100C5000089582E090E0F5CF0895FC01248135816C
:100C6000A9014F5F5F4F868197814817590748F464
:100C70008281938155834483FC01E20FF31F6083DB
:100C800008950190F081E02D81E0808708959F9282
:100C9000AF92BF92CF92DF92EF92FF920F931F938A
:100CA000CF93DF9300D01F921F92CDB7DEB78C0198
:100CB0000E94AE05D82ED8011C961C92F12CE12C76
:100CC00060EFC62EC8010E94AE05F8011486D81642
:100CD00009F4BDC0811119C0F801E15BFF4F82E04A
:100CE00090E09183808380E00F900F900F900F90A1
:100CF0000F90DF91CF911F910F91FF90EF90DF90B8
:100D0000CF90BF90AF909F9008958C3509F09DC013
:100D1000C8010E94AE058823F9F2E7E1F3E08537C8
:100D200009F087C0D8011C961C9254E0952EB12C76
:100D3000A12CC8010E94AE05882371F281344CF4C5
:100D40008053803148F0F801E15BFF4F83E090E091
:100D5000C8CF8F7D8753F5CF44E0AA0CBB1C4A95C2
:100D6000E1F7A82AF80114869A949110E2CFC50100
:100D7000985D8115944020F4750123E0F222A2CF02
:100D8000C5019C5D81159440A8F4B3E0BB22B70176
:100D9000762F6627770F770F6A297B2990E080E00E
:100DA0000196603871058105910540F4C8010E94E3
:100DB0002D0688CFB50190E080E0F3CF1982262F71
:100DC0002F7320682A8326E09695879577956795F7
:100DD0002A95D1F76032710580F4606C6B835E01F7
:100DE000E4E0AE0EB11CD5016E915D01662309F4FD
:100DF00069CFC8010E942D06F6CF262F2F732068D9
:100E00002B8386E0769567958A95E1F760317105C9
:100E100038F4606E6C835E01F5E0AF0EB11CE3CF79
:100E200060686C83CD825E0126E0A20EB11CDBCF30
:100E300032969081992309F486CF8913F9CF818165
:100E4000882309F480CFF8011486682FAFCF019072
:100E5000F081E02D8085882331F0F801E15BFF4FC0
:100E600084E090E03ECF81E03FCF4F925F926F925F
:100E70007F928F929F92AF92BF92CF92DF92EF922A
:100E8000FF920F931F93CF93DF93EC018B01888127
:100E90008B32C9F18D32C1F52196FF24F3948881FC
:100EA00090ED980F9A3018F08E3209F04DC160E045
:100EB00070E0CB01FE012191A0ED8A2E820E39E077
:100EC000381520F16A3949E97407840749E1940724
:100ED00038F5AAE0B0E09B01AC010E947C19912C8E
:100EE000B12CA12C2401350140945094609470944D
:100EF000461657066806790698F0680D791D8A1D12
:100F00009B1DEF01D7CF2196F12CC9CF211108C02D
:100F1000FF20F1F161307105810550E89507A0F0DF
:100F2000E12CEAE08E2E912CA12CB12C61157105DB
:100F3000F0E88F079105C0F1A50194010E9487197F
:100F4000CA01B901E394F2CFF801248120782A6024
:100F500024839B01AC0188279927DC01821B930B1A
:100F6000A40BB50B80839183A283B3838F2DDF9174
:100F7000CF911F910F91FF90EF90DF90CF90BF9096
:100F8000AF909F908F907F906F905F904F9008955B
:100F9000F801248120782860248360837183828310
:100FA0009383FF24F394E2CFFE01299130ED320FB9
:100FB0003A3010F4E394F8CF2E32F1F4EF01219699
:100FC000FE012196208150EDD52ED20E29E02D155F
:100FD00098F06C3C3CEC73073CE08307910580F78C
:100FE000AAE0B0E09B01AC010E947C196D0D711D5F
:100FF000811D911DEA94E4CF20812F7DD0E0C0E0D7
:10100000253409F05DC021812D32D9F53296CC24EA
:10101000C394DF01D0E0C0E02E2D0E2C000C330B6A
:101020004AE0B42EFD01DD9040ED4D0D4A3008F050
:1010300042C0BC9EA001BD9E500D1124CD2DDD0CE3
:10104000DD0BE097C40FD51FAE01420F531F47328F
:10105000510544F3F8018481CC20D1F040E050E008
:1010600060E070E8F11003C040E050E0BA01807821
:101070008C60F80184834083518362837383FC2CEA
:1010800075CF2B3219F03196C12CC3CF3296FCCFDD
:1010900040E050E060E87FEFF11004C040E050E035
:1010A00060E87FE780788C60F80184834083518317
:1010B0006283738376CFCC2019F0D195C195D10985
:1010C0002081211141C0CE0DD11DE7FCDA950E948F
:1010D0003E181C161D0604F5E12CC0FF0CC024E0D0
:1010E000E29EF0011124EA52FE4F2591359145917F
:1010F00054910E949F18D595C795E394209769F75E
:10110000F1109058F801248120782C6024836083AA
:1011100071838283938345CFD195C195D109E12C09
:10112000209771F3C0FF0CC044E0E49EF00111244D
:10113000EA55FE4F25913591459154910E949F1893
:10114000D595C795E394ECCFF12C10CFCF92DF92D9
:10115000EF92FF92CF93DF9300D01F921F92CDB7F3
:10116000DEB7FC0184818F778630B9F028F48430B3
:1011700088F590E080E013C08A30E9F08C30B9F156
:101180008830B9F780819181A281B381811520E8EF
:101190009207A105B10568F702C0808190E00F9029
:1011A0000F900F900F900F90DF91CF91FF90EF90E5
:1011B000DF90CF90089580819181A281B381AC01AD
:1011C000BD0150586F4F7F4F41155105614071056A
:1011D00080F6E5CF808191811D82BE016F5F7F4FD8
:1011E0000E943507CE0101960E94A608D8CFC08084
:1011F000D180E280F38020E030E040E057ECC7018E
:10120000B6010E94041B87FDB4CF20E03EEF4FEFF4
:1012100056E4C701B6010E94391818160CF4A9CF7C
:10122000C701B6010E94CE1ACB01B9CFCF93DF938D
:10123000DC01EB01EC81FD818A819B810896E81736
:10124000F90740F481E08887F0E0E0E0CF01DF912A
:10125000CF9108953897FD83EC833097B9F31296B8
:10126000CD91DC911397209791F0CF018C1B9D0BB2
:1012700023E0959587952A95E1F78D831396FC9346
:10128000EE9312971582148217821682DFCF119681
:10129000FC93EE93F3CFEF92FF920F931F93CF93B4
:1012A000DF937C01DC0112962D913C911397ED9117
:1012B000FC91AB01420F531FEF01C60FD71FC2179E
:1012C000D307A0F4888181110BC0E901CF014C172D
:1012D0005D0751F00991DC011D91CD010117B9F3B2
:1012E00081918111FDCFE8CF309751F4620F731FC8
:1012F000CB010196F70193838283DB011C92F901F4
:10130000CF01DF91CF911F910F91FF90EF90089542
:10131000FC012581222339F0F8E02F0290011124ED
:10132000820F931F089590E080E008950F931F931C
:10133000CF93DF93FC01208131812430310509F402
:1013400037C0EC01338322830E948E030C811D8100
:101350002E813F81601B710B820B930B65307105F1
:101360008105910518F1288539853327F901E25562
:10137000FD4F8491F901E859FD4F0491F901EE5DAB
:10138000FD4F14911123D1F081110E94AE01E12F84
:10139000F0E0EE0FFF1FE457FE4FA591B491EC91E2
:1013A0000E2361F081E090E0998388832881398160
:1013B000C901DF91CF911F910F9108951982188271
:1013C000F5CF0F931F93CF93DF93EC01162F072FC9
:1013D00060E0812F0E94F702188709870E948E0320
:1013E0006C837D838E839F8383E090E099838883E1
:1013F0009B838A83DF91CF911F910F910895FC0108
:1014000001900020E9F73197AF01481B590BBC014F
:1014100081EF93E00C949A03FB0101900020E9F71F
:101420003197AF01461B570B0C9435051F93CF9393
:10143000DF93E7E1F3E01281112379F03296218105
:101440006213F9CFEC016CE50E942005612FCE01FB
:10145000DF91CF911F910C9420056111F9CF68E2C3
:1014600073E0DF91CF911F910C940C0A2F923F9261
:101470004F925F926F927F928F929F92AF92BF92A4
:10148000CF92DF92EF92FF920F931F93CF93DF9350
:10149000CDB7DEB76C970FB6F894DEBF0FBECDBFE9
:1014A0008C011B01DC0114968C9114978F77863088
:1014B00009F492C268F58230A0F11296ED90FC908A
:1014C0001397CC901196DC90843008F056C2A70197
:1014D000B601C1010E943505F101828193816C96AC
:1014E0000FB6F894DEBF0FBECDBFDF91CF911F9135
:1014F0000F91FF90EF90DF90CF90BF90AF909F90B3
:101500008F907F906F905F904F903F902F900895B5
:101510008C3069F160F4883009F459C28A3009F4DA
:101520003FC26FE273E0C1010E940C0AE5C1803244
:1015300009F4ECC18034A9F76BE5C1010E942005D4
:10154000F801008111810115110509F4DAC1B10119
:10155000C8010E94360AC8010E9488098C01892BA3
:1015600009F4CFC16CE2C1010E942005ECCFF80163
:10157000C080D180E280F380A7019601C701B60147
:101580000E9439188111CDCF20E030E0A901C701B8
:10159000B6010E943918882379F0A7019601C70186
:1015A000B6010E94F0199B01AC01C701B6010E946F
:1015B0003918882309F4B5CF20E030E0A901C7012C
:1015C000B6010E94391887FF08C06DE2C1010E9470
:1015D0002005F7FAF094F7F8F09420E836E948E1AE
:1015E0005BE4C701B6010E94041B87FD81C074E162
:1015F000A72EB12C00E210E0188E1F8AF501EA52E6
:10160000FE4F2591359145915491C701B6010E9435
:10161000041B87FD13C0F501EA55FE4F2591359156
:1016200045915491C701B6010E949F186B017C013E
:101630002F89388D200F311F388F2F8B15950795E7
:1016400034E0A31AB1088CEFA8168FEFB806B1F6F4
:1016500055245A9420E030E0A901C701B6010E9448
:10166000041B18160CF04BC02CEA35EC47E257E38C
:10167000C701B6010E94391818160CF440C0A52DF8
:10168000B4E0AB02C0011124B12CA12CFC01E25446
:10169000FE4F3F019C012A523E4F49013FEF531636
:1016A00071F1F301EA0DFB1D25913591459154919E
:1016B000C701B6010E94391887FF13C0F401EA0D73
:1016C000FB1D2591359145915491C701B6010E94AA
:1016D0009F186B017C018F89988D801B910B988FCF
:1016E0008F8B159507955A9494E0A91AB108D6CF17
:1016F00000E210E055E0552E188E1F8AABCFC701CF
:10170000B6010E94D51A4B015C012B013C0106E099
:1017100080E492E4AFE0B0E0898F9A8FAB8FBC8F0A
:10172000102F01509AE04916510461047104C8F069
:10173000698D7A8D8B8D9C8D2AE030E040E050E001
:101740000E948719298F3A8F4B8F5C8FC301B2019A
:101750002AE030E040E050E00E94871929013A0178
:10176000DFCFC501B4010E943E189B01AC01C70147
:10177000B6010E94EF196B017C01698D7A8D8B8D0A
:101780009C8D0E943E189B01AC01C701B6010E94CE
:101790009F182B013C010E94D51A6B017C010E940D
:1017A0003E189B01AC01C301B2010E94EF199B01DD
:1017B000AC010E94F0190E94D51AC60ED71EE81E71
:1017C000F91E898D9A8DAB8DBC8DC816D906EA0697
:1017D000FB06D8F09FEF891A990AA90AB90AAF89BE
:1017E000B88DAB2B39F1BAE08B169104A104B1048A
:1017F00008F1EF89F88D3196F88FEF8BC12CD12C41
:101800007601812C912C540183942AE0422E512C94
:10181000612C712CC701B601A30192010E948719A6
:10182000672B682B692B51F4111644F469017A0176
:101830001150F0CFC12CD12C7601E7CFB501A40116
:10184000C1010E944A05112371F14E01F1E18F0E91
:10185000911C012F54019AE0492E512C612C712CBE
:10186000015068F0C701B601A30192010E948719D7
:10187000605DD4016E934D0169017A01F1CF812F32
:1018800090E0BC0160957095F501E81BF90B31976C
:101890008EE2808344275527461B570B6A0D7B1D1C
:1018A000C1010E943505EF89F88DEF2B29F165E61E
:1018B000C1010E9420050F89188D17FF07C06DE236
:1018C000C1010E942005119501951109FE0177962D
:1018D0009F018AE0E82EF12CC801B7010E94B819D7
:1018E000805D82938B01672BB9F7A9014E1B5F0BBB
:1018F000BF01C1010E943505D10112968D919C91C5
:10190000EECD6DE5C1010E942005F6CF6BE7C10168
:101910000E942005F801008111810115110559F17E
:10192000D8011696CC9016971796DC9062E2C1010A
:101930000E9420057601F70161917F01662321F065
:10194000C1010E94160AF7CF62E2C1010E94200580
:101950006AE3C1010E942005B101C8010E94360A54
:10196000C8010E9488098C01892B29F06CE2C10111
:101970000E942005D2CF6DE7C5CF62E2C1010E946F
:1019800020058601E00EF11EE016F10639F0F8019F
:1019900061918F01C1010E94160AF6CF62E2B2CFB7
:1019A000CD90DD90ED90FC90B701A601F7FE0BC045
:1019B0006DE2C1010E94200544275527BA014C1948
:1019C0005D096E097F09C1010E944A0585CD4D91CF
:1019D0005D916D917C91F7CF8C9164E373E08111FF
:1019E00002C069E373E0C1010E940C0A75CDCF9378
:1019F00082EC98E00E9496098130910529F52091AA
:101A0000C0033091C103232BF9F49093C103809359
:101A1000C0038091E6039091E703892BF9F0809150
:101A2000D0089091D108029751F0C091D20861E09E
:101A30008C2F0E94F70260E08C2F0E9415021092FA
:101A4000E7031092E60308C082EC98E00E94960932
:101A50009093C1038093C003CF9108958091C403F4
:101A60009091C50301969093E7038093E603F4CF2A
:101A70000F931F93CF93DF93D0E0C0E06115710502
:101A800091F08B01FC01C081D181209761F06E81C2
:101A90007F81C8010E94091B892B29F0CE010E9479
:101AA0008809EC01F2CFCE01DF91CF911F910F9108
:101AB00008959F92AF92BF92CF92DF92EF92FF92E2
:101AC0000F931F93CF93DF93EC018B01E42E0E94C1
:101AD0000706D82E81110EC0F12C8F2DDF91CF91EA
:101AE0001F910F91FF90EF90DF90CF90BF90AF903C
:101AF0009F900895CE010E94AE05873209F42CC153
:101B000014F5823209F428C1CE010E94AE05E82EF8
:101B10005E01FFE0AF0EB11CF12C9A2CCB2C8E2D68
:101B20000E949605882309F443C18FE3F81609F44F
:101B30003FC11C86F394F501E1925F01CE010E9442
:101B4000AE05E82EECCF8B3509F44AC08B37E1F6B1
:101B5000F8018481807880628483118210821382EC
:101B60001282EE2009F447C01C86CE010E940706AF
:101B7000882309F4B1CF6DE7CE010E94F605F82E57
:101B800081114FC0CC24C394EA94E881F981828109
:101B900093819B838A838481958122813381821BF7
:101BA000930B9F838E831D821C82892B09F4C08630
:101BB000CE010E94AE05873209F460C0823209F47A
:101BC0005DC0CE010E94AE05D82E0E9496058111FF
:101BD000AEC0C15BDF4F83E090E0998388837DCF07
:101BE000F80184818078806484831182108213825A
:101BF0001282E11007C0C15BDF4F85E090E099835E
:101C000088836ACF1C86CE010E940706882309F4C8
:101C100063CF6DE5CE010E94F605F82EEA94882385
:101C200011F0FD2C5ACF6D857E85C8010E941609E2
:101C3000009729F4C15BDF4F84E090E0CECF4E2DBA
:101C4000BC01CE010E94590D882309F445CFCE0175
:101C50000E940706882309F43FCF6DE5CE010E945C
:101C6000F6058111DECF6CE2CE010E94F6058111EE
:101C7000DACFC15BDF4F83E090E0C1CFCE010E949D
:101C80004706882309F429CFCE010E94070688233E
:101C900009F423CF6AE3CE010E94F605882309F4F4
:101CA00098CFEA81FB818C819D81E80FF91F10821A
:101CB000AC80BD806A817B81C8010E94380DBC0167
:101CC000892BA9F4B501888199810E944B095C0197
:101CD0006D857E85C8010E941609FC01892B09F4D7
:101CE000A9CF848180688483B782A682BF014E2DEC
:101CF000CE010E94590D882309F4EFCECE010E9437
:101D00000706882309F4E9CE6DE7CE010E94F605A7
:101D1000811120C06CE2CE010E94F605882309F4EF
:101D200058CFCE010E94070681112FCFD6CE1C8638
:101D30006D2DCE010E942D06CE010E94AE05D82E3B
:101D40000E9496058111F3CFE881F9818085811188
:101D500071CF9ACFF82EC1CEE881F981828193812B
:101D60009B838A838481958122813381821B930B9B
:101D70009F838E831D821C82892B11F481E08087D2
:101D8000CE010E944706F82E882309F4A5CECC8008
:101D9000DD80B601888199810E944B09F801248178
:101DA00020782560248391838083D382C28295CE5C
:101DB000FE01EF0DF11D17868F85843781F4F80140
:101DC000848180788660848381E08083F4E0FF16DC
:101DD00009F427CFC15BDF4F82E090E010CF863659
:101DE00041F4F80184818078866084831082F5E074
:101DF000EECF8E3621F484E0F812ECCF12CFB8018A
:101E0000892D9C2D0E943507882309F432CF09CFF4
:101E1000EF92FF920F931F93CF93DF93EC018C818E
:101E2000982F9F7739F4807880628C83198218828A
:101E30001B821A828C8185FF1DC061157105D1F04E
:101E40007A018B01CE010E94380D009761F4B70131
:101E5000CE010E941609009731F0FC0124812F77F2
:101E6000248317830683DF91CF911F910F91FF90F9
:101E7000EF90089590E080E0F6CFCF92DF92EF925E
:101E8000FF926A017B0144E954E0BC018DE994E0D2
:101E90000E94080FFC01892B41F0948190789C608E
:101EA0009483C082D182E282F382FF90EF90DF9030
:101EB000CF900895CF93DF93EB0144E954E0BC0148
:101EC0008DE994E00E94080FFC01892B61F0948158
:101ED00090789A609483CE01DD0FAA0BBB0B8083B0
:101EE0009183A283B383DF91CF9108951F920F92C4
:101EF0000FB60F9211242F933F938F939F93AF931D
:101F0000BF938091E9039091EA03A091EB03B09114
:101F1000EC033091E80323E0230F2D3758F50196A9
:101F2000A11DB11D2093E8038093E9039093EA0378
:101F3000A093EB03B093EC038091ED039091EE033B
:101F4000A091EF03B091F0030196A11DB11D809304
:101F5000ED039093EE03A093EF03B093F003BF91D2
:101F6000AF919F918F913F912F910F900FBE0F9046
:101F70001F90189526E8230F0296A11DB11DD2CF00
:101F80001F920F920FB60F9211240BB60F922F9340
:101F90003F934F935F936F937F938F939F93AF93F1
:101FA000BF93EF93FF9381EF93E00E940E04FF91A4
:101FB000EF91BF91AF919F918F917F916F915F91C1
:101FC0004F913F912F910F900BBE0F900FBE0F902E
:101FD0001F9018951F920F920FB60F9211240BB6F7
:101FE0000F922F938F939F93EF93FF93E0910104B0
:101FF000F09102048081E0910704F091080482FDD1
:102000001DC0908180910A048F5F8F7320910B0413
:10201000821741F0E0910A04F0E0EF50FC4F958FF9
:1020200080930A04FF91EF919F918F912F910F90D0
:102030000BBE0F900FBE0F901F9018958081F2CFAE
:10204000CF93DF931092F4031092F30388EE93E0A2
:10205000A0E0B0E08093F5039093F603A093F7031C
:10206000B093F80389E093E09093F2038093F10337
:1020700085EC90E09093FE038093FD0384EC90E068
:10208000909300048093FF0380EC90E0909302040F
:102090008093010481EC90E0909304048093030406
:1020A00082EC90E0909306048093050486EC90E027
:1020B000909308048093070410920A0410920B0472
:1020C00010920C0410920D04CBE261E08C2F0E9460
:1020D000F702CF5FC333C9F7C1E0D0E0D093E9087E
:1020E000C093E80889E390E09093E5088093E408C2
:1020F0008AE390E09093E7088093E60860E089E344
:102100000E94F70260E08AE30E94F70286E390E013
:102110009093D7088093D60887E390E09093D908EE
:102120008093D80888E390E09093DB088093DA08E6
:1021300060E086E30E94F70260E087E30E94F70216
:1021400060E088E30E94F70289E090E09093D30872
:102150008093D208D093D108C093D008C6E160E044
:102160008C2F0E94F702CF5FC032C9F762E270E0A5
:1021700082EC98E00E94E10963E270E088EB98E06D
:102180000E94E10964E270E08EEA98E00E94E109B1
:1021900065E270E084EA98E00E94E10966E270E09E
:1021A0008AE998E00E94E10982EA94E0909395041C
:1021B00080939404909397048093960486E996E024
:1021C000909399048093980490939B0480939A042D
:1021D00010929C041092A10484EA96E090939706D2
:1021E00080939606909399068093980688E998E0E4
:1021F00090939B0680939A0690939D0680939C06ED
:1022000010929E061092A3061092980810929908B8
:1022100080E092ECA1E0B0E080938E0490938F0474
:10222000A0939004B093910483E090E09093930482
:1022300080939204DF91CF910895CF93DF93CDB730
:10224000DEB7C157D1090FB6F894DEBF0FBECDBFC0
:10225000789484B5826084BD84B5816084BD85B581
:10226000826085BD85B5816085BD80916E0081608D
:1022700080936E0010928100809181008260809333
:102280008100809181008160809381008091800035
:102290008160809380008091B10084608093B10060
:1022A0008091B00081608093B00080919100826045
:1022B0008093910080919100816080939100809142
:1022C00090008160809390008091A1008260809353
:1022D000A1008091A10081608093A1008091A00065
:1022E00081608093A0008091210182608093210110
:1022F0008091210181608093210180912001816082
:102300008093200180917A00846080937A0080918C
:102310007A00826080937A0080917A008160809355
:102320007A0080917A00806880937A001092C100D0
:10233000E0910104F091020482E08083E091FD03CA
:10234000F091FE031082E091FF03F091000480E120
:10235000808310920904E0910504F091060486E060
:102360008083E0910304F091040480818061808384
:10237000E0910304F0910404808188608083E091FF
:102380000304F0910404808180688083E091030459
:10239000F091040480818F7D80831BE261E0812FB6
:1023A0000E94F70260E0812F0E9415021F5F163322
:1023B000A9F781E090E09093E9088093E80880E332
:1023C0000E9443020E9469032B013C01EAE08E2E29
:1023D000912CA12CB12C0E946903641975098609FE
:1023E0009709683E734081059105A8F321E0821AA0
:1023F0009108A108B10888EE480E83E0581E611CC0
:10240000711C81149104A104B10429F788E30E948E
:1024100043028CE00E94430281E00E94430286E076
:102420000E9443028DE00E94430280E80E94430222
:1024300059E1452E512C612C712C63E0262E312C54
:1024400088248A9473E0972EA12CB12C8091E60306
:102450009091E7038230910509F470C20CF07BC0C3
:10246000009709F4C5C08130910509F410C280912C
:102470009908882309F4F7C58091960690919706EC
:10248000909399068093980680919C0690919D0662
:1024900090939B0680939A0610929E061092A30634
:1024A0001092990886E996E06C969FAF8EAF6C9774
:1024B00088E0FE01E65AFF4FDE01AE5ABF4F0190A1
:1024C0000D928A95E1F788E0FE01EE5AFF4FDE019A
:1024D000119601900D928A95E1F71986A1EFB3E06C
:1024E000BB87AA871D86E6E9F6E0FF87EE8762963E
:1024F0001FAE1EAE62974AE06FE976E0CE0101960C
:102500000E94590D62960EAD1FAD6297011511051F
:1025100009F08BC48C85882309F487C48091A306B5
:1025200083FF83C481E08093980803E010E08FE389
:1025300093E00E94FF09000F111FF801E750FD4FC3
:1025400080819181009711F00E94FF0986E593E058
:102550000E94FF0971C48430910509F41FC30CF473
:102560004CC28530910509F082CF2091F70230915D
:10257000F8022530310589F09093F8028093F70234
:1025800081E08093F6028CE00E94430280E80E9482
:10259000430286E592E00E94AD020E94F70C809112
:1025A000DC089091DD08029781F08091E4080E9498
:1025B0004C03AE969FAF8EAFAE978091E6080E9417
:1025C0004C03E0969FAF8EAFE09741E050E062E0B1
:1025D00070E0AE968EAD9FADAE970E94D00441E004
:1025E00050E069E070E0E0968EAD9FADE097A3C14A
:1025F0008091F7029091F802892B21F01092F80255
:102600001092F7022091DC083091DD08223031056C
:1026100009F455C03093DF082093DE080E948E0332
:102620000091E0081091E1082091E2083091E30860
:10263000601B710B820B930B633071058105910553
:1026400018F18091E6080E944C03883C92400CF4FB
:102650006AC0E5E0F0E0F093DD08E093DC0820914B
:10266000DE083091DF088091DC089091DD082817A2
:10267000390751F00E948E036093E0087093E108DF
:102680008093E2089093E3082091DC083091DD0804
:102690008091C4039091C5032730310509F05CC0D7
:1026A0004091C2035091C3034730510541F084303B
:1026B00091050CF44BC01092C5031092C4033093E3
:1026C000C3032093C2030E94F70C8091C40390912E
:1026D000C5038230910509F4A0C00CF055C00097E5
:1026E00009F477C0019709F0C2CE80915002909111
:1026F0005102019729F48091F602882309F4B7CE9C
:1027000081E090E090935102809350021092F60283
:1027100070E060E080E192E00E94DB0261E070E046
:1027200080E292E071C08091E6080E944C038933F8
:1027300091403CF487E090E09093DD088093DC08C2
:102740008ECF3092DD082092DC0889CF01969093DD
:10275000C5038093C403B3CF2530310509F0AFCF53
:102760004091C2035091C3034530510509F4A7CFEE
:10277000181619063CF0A4E0B0E0B093C503A0938E
:10278000C4039DCF0197E3CF8330910509F463C063
:10279000049709F06CCE80915002909151020497F9
:1027A00029F48091F602882309F461CEE4E0F0E098
:1027B000F0935102E09350021092F60270E060E054
:1027C00080E492E00E94DB0261E070E080E092E051
:1027D0001BC08091500290915102892B29F4809165
:1027E000F602882309F443CE10925102109250024F
:1027F0001092F60270E060E080E092E00E94DB025E
:1028000061E070E080E192E00E94DB028DE00E94D6
:10281000430280E80E9443022ACE809150029091A8
:102820005102029729F48091F602882309F41FCE01
:1028300082E090E090935102809350021092F60251
:1028400070E060E080E292E00E94DB0261E070E014
:1028500080E392E0D9CF809150029091510203978A
:1028600029F48091F602882309F401CE30925102B6
:10287000209250021092F60270E060E080E392E055
:102880000E94DB0261E070E080E492E0BDCF209125
:10289000F7023091F8022130310589F09093F80267
:1028A0008093F70281E08093F6028CE00E9443025D
:1028B00080E80E94430286ED92E00E94AD020E94F1
:1028C000F70C8091D4089091D5080297C1F08091BF
:1028D000D6080E944C03A8969FAF8EAFA897809110
:1028E000D8080E944C03AA969FAF8EAFAA978091FA
:1028F000DA080E944C03AC969FAF8EAFAC9750E0C5
:1029000040E06AE070E0A8968EAD9FADA8970E9467
:10291000D00441E050E062E070E0AA968EAD9FAD39
:10292000AA970E94D00441E050E06AE070E0AC96C3
:102930008EAD9FADAC970E94D00499CD2091F70247
:102940003091F8022230310589F09093F80280939B
:10295000F70281E08093F6028CE00E94430280E857
:102960000E94430286EB92E00E94AD020E94F70CA7
:1029700088EB98E00E949609019759F583E80E9438
:10298000430281E30E9478028EEA98E00E94960951
:10299000019721F58BE80E94430281E30E947802AF
:1029A00084EA98E00E9496090197E9F483EC0E947A
:1029B000430281E30E9478028AE998E00E94960926
:1029C0000197B1F48BEC0E94430281E30E947802EC
:1029D0004ECD83E80E94430280E3D4CF8BE80E946F
:1029E000430280E3DBCF83EC0E94430280E3E2CF2B
:1029F0008BEC0E94430280E3E9CF8091F702909133
:102A0000F802039789F03092F8022092F70281E0F1
:102A10008093F6028CE00E94430280E80E94430209
:102A200086E992E00E94AD028091D10381110DC030
:102A30000E948E036093CD037093CE038093CF03E7
:102A40009093D00381E08093D1030E94F70C88EB30
:102A500098E00E9496098130910509F05AC0909340
:102A6000CC038093CB030E948E030091CD03109181
:102A7000CE032091CF033091D003601B710B820BEA
:102A8000930B009152021091530220915402309105
:102A90005502601771078207930708F4E8CC0E947B
:102AA0008E036093CD037093CE038093CF039093F6
:102AB000D0032091CB033091CC032115310509F0CF
:102AC00042C040925202509253026092540270925D
:102AD00055028091C9039091CA0384369105F4F0A0
:102AE0001092C8034091C8034423F9F001969093D3
:102AF000CA038093C9030091C9031091CA038AE0F5
:102B000090E0081719079CF0359527953E5F0A96C7
:102B1000F8CF1092CC031092CB03A5CF181619064C
:102B20000CF341E04093C803DDCF0197E0CF309331
:102B3000CF082093CE080E94280350E040E06BE0CD
:102B400070E0C801F8CE2130310509F090CC4092F8
:102B50005202509253026092540270925502809138
:102B6000C6039091C703880F991F91FF15C09093DA
:102B7000C7038093C6030091C6031091C703109347
:102B8000CF080093CE080E94280350E040E06BE09D
:102B900070E0C8019370CFCE0196E9CF2091F70283
:102BA0003091F8022430310589F09093F802809337
:102BB000F70281E08093F6028CE00E94430280E8F5
:102BC0000E94430286E792E00E94AD028091DE03FC
:102BD000811109C00E948E037093DD036093DC03B2
:102BE00081E08093DE030E948E030091DC0310914C
:102BF000DD03012E000C220B330B601B710B820BCB
:102C0000930B643171058105910508F474C00E942D
:102C10008E037093DD036093DC038091DA0390915F
:102C2000DB03AC01415051094E3F510530F020917A
:102C3000D90331E023272093D9032091D9032223FC
:102C400001F101969093DB038093DA038091D00821
:102C50009091D108029709F444C00091DA031091D1
:102C6000DB03E090D208F090D30861E08E2D0E9443
:102C7000F7020115110551F460E08E2D0E94150236
:102C800030C05093DB034093DA03E0CF0F3F1105D0
:102C900011F461E0F2CFF701FF27E255FD4FE49117
:102CA000E150E23108F0BCC0F0E08827E55AF94E67
:102CB0008F4F0C94E0196D167E1683168D1697169D
:102CC0001017A116A916B116BB16C516CF16DE161B
:102CD000E8161017F216FC16061784B5806884BD36
:102CE00007BD50E040E06BE070E08091DA03909126
:102CF000DB030E94D0040E94F70CB9CB84B580623C
:102D000084BD08BDEECF80918000806880938000F4
:102D10001093890000938800E4CF80918000806246
:102D20008093800010938B0000938A00DACF80910B
:102D3000800088608093800010938D0000938C0049
:102D4000D0CF8091B00080688093B0000093B30032
:102D5000C8CF8091B00080628093B0000093B4002F
:102D6000C0CF80919000806880939000109399006C
:102D700000939800B6CF809190008062809390007D
:102D800010939B0000939A00ACCF809190008860D4
:102D90008093900010939D0000939C00A2CF80919F
:102DA000A00080688093A0008091A0008F7B80931A
:102DB000A0001093A9000093A80093CF8091A000D9
:102DC00080628093A0001093AB000093AA0089CF8B
:102DD0008091A00088608093A0001093AD000093C4
:102DE000AC007FCF809120018068809320011093F8
:102DF00029010093280175CF809120018062809382
:102E0000200110932B0100932A016BCF80912001A8
:102E100088608093200110932D0100932C0161CFD5
:102E2000003811050CF035CF27CF81E0809398084A
:102E30000115110509F07BCB8091A30685FF1EC00B
:102E400069E573E08FE996E00E94380D0097B1F0D4
:102E5000DC0114968C918F7789F069E573E08FE936
:102E600096E00E94380D009709F400C10E94A60860
:102E70009093CF088093CE080E9428030E948E036F
:102E8000A6966CAF7DAF8EAF9FAFA69744E954E096
:102E90006DE573E08DE994E00E94080FFC01892B39
:102EA00071F09481907898609483A6968CAD9DADD6
:102EB000AEADBFADA69780839183A283B38380918B
:102EC000DC089091DD08029769F08091E4080E9487
:102ED0004C036C018091E6080E944C03E2969FAF80
:102EE0008EAFE29728EC30E0D6010E94E819A501E8
:102EF00094010E945D19CA01B901645671098109E2
:102F000091090E94401820E030E048EC52E40E9411
:102F10005C1AAB01BC0182E693E00E943D0F28ECF5
:102F200030E0E296AEADBFADE2970E94E819A50190
:102F300094010E945D19CA01B901645671098109A1
:102F400091090E94401820E030E048EC52E40E94D1
:102F50005C1AAB01BC0187E693E00E943D0F82EC56
:102F600098E00E949609BC018CE693E00E945A0FFB
:102F700088EB98E00E949609BC018FE693E00E94DE
:102F80005A0F8EEA98E00E949609BC0182E793E00E
:102F90000E945A0F84EA98E00E949609BC0185E7D6
:102FA00093E00E945A0F8AE998E00E949609BC01BA
:102FB00088E793E00E945A0F8091D4089091D50839
:102FC000029729F08091D6080E944C036C0196016B
:102FD0000D2C000C440B550B295A31404109510965
:102FE000A8E0B7E00E947C1924E73FEF4FEF5FEFC6
:102FF0000E945D19CA01B9016458734081099109A1
:103000000E94401820E030E040E251E40E945C1A47
:10301000AB01BC018BE793E00E943D0FA1EFB3E051
:10302000BA83A9831C821B82BE016F5F7F4F8DE92B
:1030300094E00E94360A80919404909195049093B4
:1030400097048093960480919A0490919B049093A6
:1030500099048093980410929C041092A1041092F9
:103060009808109299080E94A104F0C990E080E0AD
:10307000FFCE0E947B1808F481E00895E89409C00F
:1030800097FB3EF490958095709561957F4F8F4F9B
:103090009F4F9923A9F0F92F96E9BB279395F695B1
:1030A000879577956795B795F111F8CFFAF4BB0F2F
:1030B00011F460FF1BC06F5F7F4F8F4F9F4F16C093
:1030C000882311F096E911C0772321F09EE8872F1D
:1030D000762F05C0662371F096E8862F70E060E0D9
:1030E0002AF09A95660F771F881FDAF7880F969552
:1030F000879597F90895990F0008550FAA0BE0E8F6
:10310000FEEF16161706E807F907C0F012161306A9
:10311000E407F50798F0621B730B840B950B39F4E9
:103120000A2661F0232B242B252B21F408950A264F
:1031300009F4A140A6958FEF811D811D08950E947D
:10314000B2180C9423190E94151938F00E941C190A
:1031500020F0952311F00C940C190C9412191124E1
:103160000C9457190E94341970F3959FC1F3950F71
:1031700050E0551F629FF001729FBB27F00DB11DFB
:10318000639FAA27F00DB11DAA1F649F6627B00D8B
:10319000A11D661F829F2227B00DA11D621F739F74
:1031A000B00DA11D621F839FA00D611D221F749F82
:1031B0003327A00D611D231F849F600D211D822FC9
:1031C000762F6A2F11249F5750409AF0F1F08823F0
:1031D0004AF0EE0FFF1FBB1F661F771F881F91501D
:1031E0005040A9F79E3F510580F00C940C190C94A7
:1031F00057195F3FE4F3983ED4F38695779567952A
:10320000B795F795E7959F5FC1F7FE2B880F911D46
:103210009695879597F9089597F99F6780E870E0EC
:1032200060E008959FEF80EC089500240A9416163C
:10323000170618060906089500240A9412161306A4
:10324000140605060895092E0394000C11F4882332
:1032500052F0BB0F40F4BF2B11F460FF04C06F5F4E
:103260007F4F8F4F9F4F089557FD9058440F551F24
:1032700059F05F3F71F04795880F97FB991F61F0F8
:103280009F3F79F087950895121613061406551F6F
:10329000F2CF4695F1DF08C0161617061806991FDB
:1032A000F1CF86957105610508940895E894BB27D0
:1032B00066277727CB0197F90895052E97FB1EF413
:1032C00000940E94741957FD07D00E94871907FCCB
:1032D00003D04EF40C947419509540953095219577
:1032E0003F4F4F4F5F4F0895909580957095619532
:1032F0007F4F8F4F9F4F08950E94A919A59F900D52
:10330000B49F900DA49F800D911D11240895A1E2FA
:103310001A2EAA1BBB1BFD010DC0AA1FBB1FEE1F4F
:10332000FF1FA217B307E407F50720F0A21BB30B9A
:10333000E40BF50B661F771F881F991F1A9469F716
:1033400060957095809590959B01AC01BD01CF0172
:103350000895A29FB001B39FC001A39F700D811D6E
:103360001124911DB29F700D811D1124911D08958E
:10337000AA1BBB1B51E107C0AA1FBB1FA617B7079B
:1033800010F0A61BB70B881F991F5A95A9F78095B7
:103390009095BC01CD01089597FB072E16F400947B
:1033A00007D077FD09D00E94B81907FC05D03EF47C
:1033B000909581959F4F0895709561957F4F0895E1
:1033C000EE0FFF1F881F8BBF0790F691E02D199419
:1033D0000E94A919B7FF0895821B930B08955058B6
:1033E000BB27AA270E94071A0C9423190E941519BB
:1033F00038F00E941C1920F039F49F3F19F426F48C
:103400000C9412190EF4E095E7FB0C940C19E92FBB
:103410000E94341958F3BA17620773078407950797
:1034200020F079F4A6F50C9456190EF4E0950B2EC5
:10343000BA2FA02D0B01B90190010C01CA01A00106
:103440001124FF27591B99F0593F50F4503E68F161
:103450001A16F040A22F232F342F4427585FF3CFA2
:10346000469537952795A795F0405395C9F77EF473
:103470001F16BA0B620B730B840BBAF09150A1F0BC
:10348000FF0FBB1F661F771F881FC2F70EC0BA0F42
:10349000621F731F841F48F4879577956795B795CA
:1034A000F7959E3F08F0B0CF9395880F08F09927C5
:1034B000EE0F9795879508950E94701A0C94231922
:1034C0000E941C1958F00E94151940F029F45F3F22
:1034D00029F00C940C1951110C9457190C941219D1
:1034E0000E94341968F39923B1F3552391F3951B86
:1034F000550BBB27AA2762177307840738F09F5F15
:103500005F4F220F331F441FAA1FA9F335D00E2E81
:103510003AF0E0E832D091505040E695001CCAF7EE
:103520002BD0FE2F29D0660F771F881FBB1F2617B1
:1035300037074807AB07B0E809F0BB0B802DBF0188
:10354000FF2793585F4F3AF09E3F510578F00C9457
:103550000C190C9457195F3FE4F3983ED4F3869509
:1035600077956795B795F7959F5FC9F7880F911D78
:103570009695879597F90895E1E0660F771F881F64
:10358000BB1F621773078407BA0720F0621B730B17
:10359000840BBA0BEE1F88F7E09508950E94D51AA8
:1035A0006894B1110C94571908950E943C1988F041
:1035B0009F5798F0B92F9927B751B0F0E1F0660FF7
:1035C000771F881F991F1AF0BA95C9F714C0B13038
:1035D00091F00E945619B1E008950C945619672F86
:1035E000782F8827B85F39F0B93FCCF38695779567
:1035F0006795B395D9F73EF4909580957095619550
:103600007F4F8F4F9F4F08950E947B1808F48FEFD4
:103610000895FB01DC018D91019080190110D9F30F
:08362000990B0895F894FFCF07
:1036280031202D20416363656C202020202020005C
:1036380032202D20426F7574746F6E202020200078
:1036480033202D2042617267726170686520200006
:1036580034202D204D6F74657572202020202000A5
:1036680035202D204A6F79737469636B2020200000
:10367800FFFF320000004A6F79737469636B202082
:10368800202020202000583A2020202020593A20AD
:103698002020202020004D6F746575722020202086
:1036A8002020202020002020202020202020202032
:1036B80020202020200042617267726170686520B6
:1036C8002020202020002020202020202020202012
:1036D80020202020200042323A202020202042337F
:1036E8003A202020200042343A2020202020423551
:1036F8003A2020202000416363656C202020583A3E
:10370800202020202000593A2020202020205A3A2A
:1037180020202020200001FFFF810384038F039FC6
:1037280003AC03B5030000000030049A03C7037D0F
:1037380004F803D603EA032F2F22225C5C62086692
:103748000C6E0A720D7409005C7530303030006EF2
:10375800756C6C00747275650066616C73650064E5
:103768006573657269616C697A6528292066616983
:103778006C65643A20000D0A006C65640074696D1C
:1037880065004A6F7958004A6F7959004231004202
:103798003200423300423400423500416E676C65A6
:1037A800004F6B00456D707479496E7075740049EF
:1037B8006E636F6D706C657465496E7075740049E1
:1037C8006E76616C6964496E707574004E6F4D65F4
:0E37D8006D6F727900546F6F4465657000006C
:00000001FF
