:100000000C9435010C9466010C9466010C94660105
:100010000C9466010C9466010C9466010C946601C4
:100020000C9466010C9466010C9466010C946601B4
:100030000C9466010C9466010C9466010C946601A4
:100040000C9466010C9466010C9466010C94660194
:100050000C9466010C9466010C9466010C945A068B
:100060000C9466010C94CE060C94A4060C946601C4
:100070000C9466010C9466010C9466010C94660164
:100080000C9466010C9466010C9466010C94660154
:100090000C9466010C9466010C9466010C94660144
:1000A0000C9466010C9466010C9466010C94660134
:1000B0000C9466010C9466010C9466010C94660124
:1000C0000C9466010C9466010C9466010C94660114
:1000D0000C9466010C9466010C9466010C94660104
:1000E0000C9466010C9498010C94BD010C94CB0106
:1000F0000C948C010C94C1010C94C6010C94B901B0
:100100000C9444040C94AF010C94D7040C949B0100
:100110000C94B3010C9404070C9490010C9494017A
:100120000C94F4030C9430040C94A1010C94A501DC
:100130000C9486010C9421040C9452040C94C70175
:100140000C948A040C94AB010000210024002700C9
:100150002A002D00300033000101000004010701D6
:100160000A0100002200250028002B002E0031008B
:10017000340002010000050108010B01000020000D
:100180002300260029002C002F003200000100006F
:10019000030106010901050505050705080808080A
:1001A000020202020A0A080804040404010101010F
:1001B000010101010303030303030303040707070A
:1001C0000C0C0C0C0C0C0C0C0202020206060606AF
:1001D000060606060B0B0B0B0B0B0B0B010210207C
:1001E000200808102040102040800201020108046D
:1001F0000201010204081020408080402010080401
:100200000201800402018040201008040201080459
:10021000020101020408102040800102040810209D
:10022000408000000A0B02090C0D0E0807030401B0
:1002300000000000000000000000000000000000BE
:10024000000000000000000000000000000012118B
:10025000100000000000000000000000000000008E
:100260000000000000000000040711241FBECFEFB3
:10027000D1E2DEBFCDBF00E00CBF23E0A2E2B3E0DD
:1002800001C01D92A63EB207E1F713E0A0E0B2E084
:10029000E8E5F4E100E00BBF02C007900D92A23246
:1002A000B107D9F711E0C5E3D1E000E006C021971E
:1002B0000109802FFE010E940E0AC433D10780E09D
:1002C0000807A9F70E948E070C942A0A0C940000D4
:1002D0008150823108F05AC0E82FF0E08827EC58AE
:1002E000FE4F8F4F0C940E0A9401980186018C01E9
:1002F0009001C6019B01A101A501AB01AF01B301B2
:10030000B901BD01C601C101C701CB0180918000C7
:100310008F77809380000895809180008F7DF9CF42
:1003200080918000877FF5CF84B58F7784BD089555
:1003300084B58F7DFBCF8091B0008F778093B00024
:1003400008958091B0008F7DF9CF809190008F77D4
:10035000809390000895809190008F7DF9CF8091D7
:100360009000877FF5CF8091A0008F778093A000C9
:1003700008958091A0008F7DF9CF8091A000877FA4
:10038000F5CF809120018F7780932001089580918F
:1003900020018F7DF9CF80912001877FF5CFCF930A
:1003A000DF938091D2039091D3038530910509F4B6
:1003B0004CC09093D5038093D4032FB7F8948091C9
:1003C000CE039091CF03A091D003B091D1032FBF62
:1003D0004091D6035091D703052E000C660B770B86
:1003E000841B950BA60BB70B0597A105B10548F12A
:1003F0002091D8033091D9033327F901EE5DFD4FE9
:100400008491F901E452FE4FD491F901EA56FE4F6E
:10041000C491CC2381F081110E946801EC2FF0E09F
:10042000EE0FFF1FE458FE4FA591B491EC91ED2320
:1004300081E090E011F482E090E09093D303809308
:10044000D2038091D2039091D303DF91CF9108958D
:100450001F93CF93DF93282F30E0F901EE5DFD4F1E
:100460008491F901E452FE4FD491F901EA56FE4F0E
:10047000C491CC23A9F0162F81110E946801EC2FA2
:10048000F0E0EE0FFF1FEE59FE4FA591B4918FB72C
:10049000F894EC91111108C0D095DE23DC938FBF46
:1004A000DF91CF911F910895DE2BF8CFEF92FF924D
:1004B0000F931F93CF93CBE201E010E0E82E880F5B
:1004C000FF08C7018023912361E0892B09F460E0D4
:1004D0008C2F0E942802000F111FCF5FC33389F7B2
:1004E00060E083E30E94280260E084E30E94280227
:1004F00061E085E30E9428028BEC97E00197F1F719
:1005000060E085E30E94280281E0CF911F910F9166
:10051000FF90EF900895EF92FF920F931F93CF9368
:10052000CBE201E010E0E82E880FFF08C70180232E
:10053000912361E0892B09F460E08C2F0E9428024E
:10054000000F111FCF5FC33389F761E083E30E947F
:10055000280260E084E30E94280261E085E30E94B3
:1005600028028BEC97E00197F1F760E085E30E94A9
:10057000280281E0CF911F910F91FF90EF90089595
:10058000EF92FF920F931F93CF93DF93EC0180E8DC
:100590000E9456027E018FE0E80EF11C8E01F801E8
:1005A00081918F010E948B02E016F106C1F780EC69
:1005B0000E9456028E01005F1F4F6F96F8018191D5
:1005C0008F010E948B02C017D107C1F781E0DF9134
:1005D000CF911F910F91FF90EF9008950F931F936C
:1005E000CF93DF938C01862F8295880F880F807CB4
:1005F00080580E945602E801015F1F4F89910E94B6
:100600008B02C017D107D1F781E0DF91CF911F9105
:100610000F910895CF93DF9390E0FC01E452FE4FD9
:1006200024918A569E4FFC0184918823D1F090E05A
:10063000880F991FFC01E85BFE4FA591B491FC0166
:10064000EE59FE4FC591D49161110EC09FB7F89439
:100650008C91E22FE0958E238C932881E223E8830E
:100660009FBFDF91CF9108958FB7F894EC91E22B63
:10067000EC938FBFF6CF863308F0865320917B0032
:10068000982F9870277F922B90937B0087708064BF
:1006900080937C0080917A00806480937A008091BE
:1006A0007A0086FDFCCF80917800909179000895C2
:1006B0008091DA039091DB038230910581F1909370
:1006C000DD038093DC032FB7F8948091CE039091E3
:1006D000CF03A091D003B091D1032FBF4091DE038F
:1006E0005091DF03052E000C660B770B841B950BD6
:1006F000A60BB70B0597A105B10568F08091E00343
:100700000E943B03843692405CF085E090E0909339
:10071000DB038093DA038091DA039091DB03089581
:100720008091E0030E943B038D3991401CF487E0E7
:1007300090E0EDCF83E090E0EACF3FB7F89480916E
:100740002D0390912E03A0912F03B091300326B575
:10075000A89B05C02F3F19F00196A11DB11D3FBFF9
:10076000BA2FA92F982F8827BC01CD01620F711DC8
:10077000811D911D42E0660F771F881F991F4A95C2
:10078000D1F708958F929F92AF92BF92CF92DF924E
:10079000EF92FF924B015C010E949D036B017C0173
:1007A0000E949D036C197D098E099F09683E734064
:1007B00081059105A8F321E0821A9108A108B108EA
:1007C00088EEC80E83E0D81EE11CF11C8114910450
:1007D000A104B10429F7FF90EF90DF90CF90BF9074
:1007E000AF909F908F900895AF92BF92CF92DF927B
:1007F000EF92FF920F931F93CF93DF936C017B01D6
:100800008B01040F151FEB015E01AE18BF08C01766
:10081000D10759F06991D601ED91FC910190F081D9
:10082000E02DC6011995892B79F7C501DF91CF918C
:100830001F910F91FF90EF90DF90CF90BF90AF90FE
:100840000895FC01538D448D252F30E0842F90E0D6
:10085000821B930B541710F0CF96089501970895BB
:10086000FC01918D828D981761F0A28DAE0FBF2F84
:10087000B11D5D968C91928D9F5F9F73928F90E0DA
:1008800008958FEF9FEF0895FC01918D828D981749
:1008900031F0828DE80FF11D858D90E008958FEF86
:1008A0009FEF0895FC01918D228D892F90E0805C4F
:1008B0009F4F821B91098F739927089581E393E0DD
:1008C0000E94520421E0892B09F420E0822F089530
:1008D000FC01A48DA80FB92FB11DA35ABF4F2C91B5
:1008E000848D90E001968F739927848FA689B789AC
:1008F0002C93A089B1898C91837080648C93938DA3
:10090000848D981306C00288F389E02D80818F7D45
:1009100080830895EF92FF920F931F93CF93DF93FD
:10092000EC0181E0888F9B8D8C8D98131AC0E8892B
:10093000F989808185FF15C09FB7F894EE89FF89FA
:100940006083E889F98980818370806480839FBF98
:1009500081E090E0DF91CF911F910F91FF90EF9098
:100960000895F62E0B8D10E00F5F1F4F0F731127A8
:10097000E02E8C8D8E110CC00FB607FCFACFE889E3
:10098000F989808185FFF5CFCE010E946804F1CFFF
:10099000EB8DEC0FFD2FF11DE35AFF4FF0829FB757
:1009A000F8940B8FEA89FB8980818062CFCFCF9347
:1009B000DF93EC01888D8823B9F0AA89BB89E88987
:1009C000F9898C9185FD03C0808186FD0DC00FB62D
:1009D00007FCF7CF8C9185FFF2CF808185FFEDCFAB
:1009E000CE010E946804E9CFDF91CF91089581E0A4
:1009F0008093250308950E945E04882319F081E006
:100A00008093250380E090E0892B49F080E090E01E
:100A1000892B29F00E94000081110E94000080E0D3
:100A200090E0892B49F080E090E0892B29F00E942A
:100A3000000081110E94000080E090E0892B49F0C5
:100A400080E090E0892B29F00E94000081110C9435
:100A5000000008950E94CF0181309105D9F42091C2
:100A600023033091240322303105A1F49093240311
:100A70008093230380912A0390912B03892B89F47F
:100A80008091280390912903019690932B038093E2
:100A90002A0308950E94CF01909324038093230397
:100AA000089510922B0310922A030895FC010190DF
:100AB0000020E9F73197AF01481B590BBC0181E3D6
:100AC00093E00C94F4038F929F92AF92BF92CF92D7
:100AD000DF92EF92FF920F931F93CF93DF93CDB7E7
:100AE000DEB7A1970FB6F894DEBF0FBECDBF6B0186
:100AF0007C01F7FE41C06DE281E393E00E948A042D
:100B00008C0122273327A9012C193D094E095F09C1
:100B100019A2CE0181967C019AE0892E912CA12CFC
:100B2000B12CCA01B901A50194010E94EC09605DD4
:100B3000F70162937F01211531054105510589F7C0
:100B400090E080E0309719F0CF010E945605800FA9
:100B5000911FA1960FB6F894DEBF0FBECDBFDF91F7
:100B6000CF911F910F91FF90EF90DF90CF90BF90AA
:100B7000AF909F908F900895AC019B0119A28E01B8
:100B80000F5D1F4F8AE0C82ED12CE12CF12CCA0139
:100B9000B901A70196010E94EC09605DF80162931A
:100BA0008F01211531054105510589F790E080E05D
:100BB000309779F2CF010E945605CBCF3F924F92EA
:100BC0005F926F927F928F929F92AF92BF92CF92DD
:100BD000DF92EF92FF920F931F93CF93DF935C010D
:100BE000362EF12CE12CC8EED3E08AE0882E912C31
:100BF000650110E000E02E010D2E000C660877085C
:100C0000CC16DD063CF1CC1ADD0A0F5F1F4F84E0E5
:100C100093E00E945605C301B2010E94630588E07B
:100C200093E00E945605B6010D2C000C880B990B21
:100C30000E94630584E193E00E945605B801012EED
:100C4000000C880B990B0E9463058EE193E00E94D3
:100C50005605D6CF0C9FC0010D9F900D1C9F900D87
:100C60001124A81AB90A832D8E0D0E94560280E322
:100C7000800F0E948B028FEFE81AF80ACE01B401B0
:100C80000E94D809EB0184E0E816F10409F0B0CF26
:100C9000DF91CF911F910F91FF90EF90DF90CF9058
:100CA000BF90AF909F908F907F906F905F904F908C
:100CB0003F9008951F920F920FB60F9211242F9319
:100CC0003F938F939F93AF93BF938091CE03909167
:100CD000CF03A091D003B091D10330912C0323E036
:100CE000230F2D3758F50196A11DB11D20932C031C
:100CF0008093CE039093CF03A093D003B093D103FE
:100D000080912D0390912E03A0912F03B091300379
:100D10000196A11DB11D80932D0390932E03A093E6
:100D20002F03B0933003BF91AF919F918F913F916B
:100D30002F910F900FBE0F901F90189526E8230F4C
:100D40000296A11DB11DD2CF1F920F920FB60F9226
:100D500011240BB60F922F933F934F935F936F9392
:100D60007F938F939F93AF93BF93EF93FF9381E311
:100D700093E00E946804FF91EF91BF91AF919F9122
:100D80008F917F916F915F914F913F912F910F9034
:100D90000BBE0F900FBE0F901F9018951F920F92D1
:100DA0000FB60F9211240BB60F922F938F939F9330
:100DB000EF93FF93E0914103F09142038081E09132
:100DC0004703F091480382FD1DC0908180914A0342
:100DD0008F5F8F7320914B03821741F0E0914A039C
:100DE000F0E0EF5CFC4F958F80934A03FF91EF9109
:100DF0009F918F912F910F900BBE0F900FBE0F9070
:100E00001F9018958081F2CFCF93109234031092E7
:100E1000330388EE93E0A0E0B0E080933503909335
:100E20003603A0933703B093380386EF92E0909394
:100E300032038093310385EC90E090933E038093DE
:100E40003D0384EC90E09093400380933F0380EC5B
:100E500090E0909342038093410381EC90E0909363
:100E600044038093430382EC90E090934603809385
:100E7000450386EC90E090934803809347031092DB
:100E80004A0310924B0310924C0310924D03CBE295
:100E900061E08C2F0E940A03CF5FC333C9F781E062
:100EA00090E09093E5038093E40389E390E09093CE
:100EB000E1038093E0038AE390E09093E30380935F
:100EC000E20360E089E30E940A0360E08AE30E9493
:100ED0000A0360E082E20E940A0382E290E09093BB
:100EE000D9038093D8032FB7F8948091CE039091C3
:100EF000CF03A091D003B091D1032FBF9093D7031C
:100F00008093D60384E090E09093D3038093D20340
:100F10009093D5038093D403CF910895789484B5AA
:100F2000826084BD84B5816084BD85B5826085BDE5
:100F300085B5816085BD80916E00816080936E0073
:100F40001092810080918100826080938100809165
:100F50008100816080938100809180008160809316
:100F600080008091B10084608093B1008091B000D6
:100F700081608093B00080919100826080939100A5
:100F800080919100816080939100809190008160B8
:100F9000809390008091A10082608093A100809155
:100FA000A10081608093A1008091A0008160809366
:100FB000A000809121018260809321018091210114
:100FC00081608093210180912001816080932001C4
:100FD00080917A00846080937A0080917A008260A8
:100FE00080937A0080917A00816080937A0080916A
:100FF0007A00806880937A001092C100E0914103EA
:10100000F091420382E08083E0913D03F0913E0342
:101010001082E0913F03F09140038FEC80831092A7
:101020004903E0914503F091460386E08083E09117
:101030004303F0914403808180618083E091430306
:10104000F0914403808188608083E0914303F091B4
:101050004403808180688083E0914303F0914403DE
:1010600080818F7D80833BE2F32E61E08F2D0E9493
:101070000A0360E08F2D0E942802F39486E3F812A1
:10108000F4CF81E090E09093E5038093E40380E364
:101090000E9456026AE070E080E090E00E94C20385
:1010A00088E30E9456028CE00E94560281E00E9472
:1010B000560286E00E94560268EB7BE080E090E0FA
:1010C0000E94C20369E070E088EE93E00E94DE05B2
:1010D00068EE73E080E090E00E94C20362E070E09E
:1010E00082ED94E00E94DE0568E873E180E090E024
:1010F0000E94C20383E0E82EF12C94E0C92ED12C8B
:1011000027E0A22EB12C80912A0390912B038230EC
:10111000910509F412C154F4009709F442C08130DA
:10112000910509F4F2C00E94FB04EDCF84309105D3
:1011300009F42AC10CF415C185309105A1F720915D
:10114000F0023091F1022530310571F09093F102F7
:101150008093F0028CE00E94560280E80E945602C2
:1011600080E592E00E94C0020E942A058091DA0385
:101170009091DB03029751F08091E0030E943B03C2
:10118000EC018091E2030E943B038C0162E070E07D
:10119000CE010E94DE0569E070E0C8010E94DE0514
:1011A000C2CF8091F0029091F102892B21F0109230
:1011B000F1021092F0020E945803079749F48091BF
:1011C0002603909127038330910571F0059761F014
:1011D0000E94580385309105D1F10E9458039093E5
:1011E0002703809326030FC0B0922703A092260303
:1011F00080912803909129038430910514F1109275
:101200002903109228030E942A05809128039091B7
:1012100029038230910509F462C0CCF5009709F4E6
:1012200046C0019709F450C08DE00E94560280E844
:101230000E9456026AE070E080E090E00E94C203E3
:1012400072CF01969093290380932803DCCF2091DD
:101250002603309127032B7F2330310509F0BDCFC2
:10126000209128033091290390932703809326032C
:10127000121613062CF0D0922903C0922803C3CF74
:10128000215031093093290320932803BCCF8330A8
:10129000910581F1049741F670E060E080E492E00E
:1012A0000E94EE0261E070E080E092E00AC070E02F
:1012B00060E080E092E00E94EE0261E070E080E198
:1012C00092E00E94EE02B0CF70E060E080E192E038
:1012D0000E94EE0261E070E080E292E0F2CF70E006
:1012E00060E080E292E00E94EE0261E070E080E364
:1012F00092E0E7CF70E060E080E392E00E94EE02CF
:1013000061E070E080E492E0DCCF2091F002309167
:10131000F1022130310571F09093F1028093F002D7
:101320008CE00E94560280E80E94560280ED92E016
:101330000E94C0020E942A05F6CE2091F002309150
:10134000F10222303105B1F39093F1028093F00263
:101350008CE00E94560280E80E94560280EB92E0E8
:10136000E7CF8091F0029091F102039719F3F09288
:10137000F102E092F0028CE00E94560280E80E94A6
:10138000560280E992E0D4CF2091F0023091F10230
:101390002430310579F29093F1028093F0028CE0D1
:1013A0000E94560280E80E94560280E792E0C0CF79
:1013B00097FB072E16F4009407D077FD09D00E9402
:1013C000160A07FC05D03EF4909581959F4F08952D
:1013D000709561957F4F0895A1E21A2EAA1BBB1B41
:1013E000FD010DC0AA1FBB1FEE1FFF1FA217B307F1
:1013F000E407F50720F0A21BB30BE40BF50B661F07
:10140000771F881F991F1A9469F7609570958095CA
:1014100090959B01AC01BD01CF010895EE0FFF1F18
:10142000881F8BBF0790F691E02D1994AA1BBB1B58
:1014300051E107C0AA1FBB1FA617B70710F0A61BD4
:10144000B70B881F991F5A95A9F780959095BC01F5
:08145000CD010895F894FFCFCF
:1014580031202D20416363656C202020202020004E
:1014680032202D20426F7574746F6E20202020006A
:1014780033202D20426172677261706865202000F8
:1014880034202D204D6F7465757220202020200097
:1014980035202D204A6F79737469636B20202000F2
:1014A8004A6F79737469636B202020202020200004
:1014B800583A2020202020593A202020202020009F
:1014C8004D6F746575722020202020202020200078
:1014D8002020202020202020202020202020200024
:1014E80042617267726170686520202020202000A8
:1014F8002020202020202020202020202020200004
:1015080042313A202020202042323A202020200058
:1015180042333A202020202042343A202020200044
:10152800416363656C202020583A20202020200049
:10153800593A2020202020205A3A2020202020001C
:10154800FFFF000000008A04F4032104D7045204BA
:1015580030044404693A2000202076616C54656D9B
:10156800703A20002020636F6D70743A20000D0AD5
:02157800000071
:00000001FF
